:020000040800F2
:1000000000200020B90000083D120008411200083D
:1000100000000000000000000000000000000000E0
:100020000000000000000000000000003D12000879
:1000300000000000000000003D1200083D12000812
:100040003D1200083D1200083D1200083D12000854
:100050003D1200083D1200083D1200083D12000844
:10006000000000003D1200083D1200083D1200088B
:100070003D1200083D12000800000000890400083D
:10008000000000003D120008000000000000000019
:100090003D120008000000003D1200083D1200085B
:1000A0003D1200083D1200083D1200083D120008F4
:1000B0003D1200083D12000801F0C4F8184B194A1F
:1000C00093420ED2013AD41A0022A408601C164DA5
:1000D0008000A958995004328242FAD1A400043316
:1000E000E318124A934209D20321013AD21A8A43F1
:1000F000191D5218002102C39342FCD10C4D0D4B27
:100100009D4209D20024013B5E1BB608013608CD92
:1001100001349847B442FAD100F016FAFEE7C0461F
:1001200000000020000000204418000828000020E3
:10013000441800084418000810B50478002C09D0B1
:100140008021054AD3691942FCD094624478013079
:10015000002CF7D110BDC04600380140F0B5C646AE
:1001600000B50D0084B0002815DB061E1CD130231D
:1001700001AE337001246B46DF1CAC422CDB8021C6
:100180001E4A3F193C78D3691942FCD09462BE42A2
:1001900030D0013FF6E78021184AD3691942FCD0DC
:1001A0002D2346429362013D6B460024DF1C01343F
:1001B0003B19984630000A2101F028F943463031B6
:1001C000197030000A2101F09BF833000600092B5A
:1001D000EDD801AEAC42D2DA80202021074AD369A3
:1001E0001842FCD0013D9162A542F8D18021034A1A
:1001F0003F19C7E704B080BCB846F0BD00380140E5
:1002000000220F4B01201A605A609A60DA60A02326
:10021000DB0559690143596159690130014359614D
:1002200059690230014359615969043001435961E8
:10023000044B1A60044B1A60044B1A607047C046A6
:100240000C00002024000020200000201C000020C2
:10025000F0B503244646904642684F469C46994670
:1002600053009B185B18DA17D6461440E4180F2386
:10027000C0B546690F00B3429B4108210500806864
:100280001940A4100731A04226DA2A69231A92469F
:10029000002A26D0634529DA48430131001901F0CC
:1002A000B9F8A860031B844200DD231A5246002AD5
:1002B0001CD14046D917C20F83424A41D2B22F60A7
:1002C0006C60EB602A61731C01D001366E61E0BC8A
:1002D000BA46B146A846F0BD2A69031B9246002AD9
:1002E00002D14345E5DAD7E76345D5DB4846D91760
:1002F000C20F83424A41D2B2E1E7C046401A02002F
:100300002623133293429B41214A18401368106000
:10031000C31AC01840000300B43331DBB42826DC14
:10032000C8238C225B001B1A9200934217DC8C229C
:100330009130FF30920090420FDC19008446154A3C
:1003400013600022144B1860144B1A605A609A60B4
:10035000DA6062465960DA6070471000EDE713001A
:100360008C229130FF3092009042E6DDF5E7C82301
:10037000B4208C225B001B1A92009342D7DDEEE77B
:100380008C21DC2389009C46DC200B00D7E7C0468B
:100390001C00002024000020200000200C00002071
:1003A00010B5022816D0032811D0154B012818D1FA
:1003B0008C21DB301860134B890000221960124B2E
:1003C0001A605A609A60DA605860D96010BDFFF711
:1003D00017FFFBE78C200A4B80001860DC21094BDB
:1003E000EBE7C822002152001A60064B1A60064B48
:1003F000196059609960D9605A60DA60E6E7C046D2
:1004000024000020200000200C00002000221A4BB5
:100410001A60002810D000291FD082220021174B1B
:1004200052001A60164B1A60164B19605960996099
:10043000D9605A60DA6070470029EED0EB21DC22E7
:100440000E4B490019600E4B1A600E4B1860586035
:100450009860D8605960DA60EDE7DC20074BD7324E
:100460001860074BFF321A60064B1960596099609B
:10047000D9605860DA60DEE71C000020240000200C
:10048000200000200C00002080220121D2051369E9
:1004900010B58B4313612A4A13689C46294B186890
:1004A000844544D9A020C0058446406988436146FC
:1004B000486150681968884232D9A0200224C005DA
:1004C0004169A143416190681968884221D9A020FF
:1004D0000424C0054169A1434161D1681A68914271
:1004E00010D9A0210820C9054A6982434A611A68C7
:1004F00001321A60FA2219689200914201D3002257
:100500001A6010BDA0210820C9054A6902434A614A
:10051000EDE7A0200424C005416921434161DCE7E7
:10052000A0200224C005416921434161CBE7A020FE
:10053000C00584464069014360464161B9E7C04651
:100540000C00002008000020F0B5DE4657464E465D
:10055000454602220023E0B5E349BDB002910A708E
:100560000121E24A2B9313600C92E14A2C93136011
:100570000E92E04A2E9313600F92DF4A2F9313607E
:100580003193329334933593379338933A933B9323
:10059000DA4B1A680A431A60042219680A42FCD02E
:1005A000DA68D7490A40DA608822D968D2030A4358
:1005B000DA608022196852040A431A608022CF4B05
:1005C000920419681142FCD00120CE490A68024306
:1005D0000A600321DA680A43DA60C84A0931D3683D
:1005E0000B400C2BFBD10120D36AC74C0343D362D1
:1005F0008023516BDB010B435363A023DB05196898
:1006000055252140196080211C6809032143F024ED
:100610001960596AA1435962596AB03C2143596231
:10062000BA49D634CC600E3CFF3C0C60D16AF6343B
:100630000143D162916B014391631968A143196031
:100640001968294319605968463DA943596099685A
:1006500021439960D968A1430024D960596929438D
:100660005961AB49402521910C604C608C60CC6095
:10067000A849FF350C608021C9058C62CD620C61F0
:100680008034C8600C608024A34D48612E68240229
:1006900034432C600C6804430C6062B6D46A044393
:1006A000D4628024556BA4002C435463FC221C6844
:1006B000920122431A60994B1A69114319619A6891
:1006C000104207D0022299680A439A600122996871
:1006D0000A42FCD18023914A5B0591680B439360E9
:1006E0008F4B904A5A6000229A6005321A6080222D
:1006F000520219681142FCD000221A608022874BF6
:10070000120699680A439A609A68002AFCDB05225F
:100710005A6100220121DA609A680A439A60012333
:100720007E491E000A6816401342FAD0FFF768FDA2
:100730007C4BFA2080219C46002700250524784A1E
:1007400040004902634653609560146013680B4291
:10075000FCD0013817600028F4D17348FFF7ECFC97
:100760007248FFF7E9FC01210120FFF7F7FC704810
:10077000FFF7E2FC6F48FFF7DFFC14239B466E4B4C
:10078000624C0193043398466C4B644D03935F1D98
:100790005B46049600938022E3691A42FCD04C2306
:1007A0008022A362E3691A42FCD03D230421002089
:1007B0000422A3622D3BAB62AB681343AB602B6892
:1007C0001A42FCD02B6C01391B051B0DC0180029E7
:1007D000F2D10323C2171340181880100431FFF719
:1007E000BDFC202080220199E3691A42FCD0A0625E
:1007F000013108784145F7D120230421002004224B
:10080000AB62AB681343AB602B681A42FCD02B6C15
:1008100001391B051B0DC0180029F2D10323C21793
:100820001340181880100431FFF798FC2020802214
:100830000399E3691A42FCD0A06201310878B942F9
:10084000F7D14023042100200422AB62AB6813439C
:10085000AB602B681A42FCD02B6C01391B051B0DB9
:10086000C0180029F2D10323C217134018188010B2
:100870000431FFF773FC8022E3691A42FCD00D2398
:100880008022A362E3691A42FCD00A23A362254BAB
:1008900080219B46002364209A4699460526204ADB
:1008A00049025B4653604B469360166013680B42E7
:1008B000FCD05346013813600028F2D1009B013B65
:1008C0000093002B00D066E71D48049EFFF734FC20
:1008D00040230093303B9B460425104C5B4604228A
:1008E0000021A3622EE0C04604000020000000208A
:1008F00024000020200000201C00002000100240E6
:10090000FFFF02FF00200240FFFFF3FF003801401D
:100910000C0000200800002000E100E0002401405D
:1009200010E000E0FF7C0000101700082817000806
:10093000381700083C170008EC150008F4150008EB
:1009400064170008A3682B43A36023681D42FCD0F2
:10095000236C013A1B051B0DC918002AF2D1032391
:10096000CA1713405918C822642389102AA8FFF710
:100970006FFC202304220021A362A3682B43A36001
:1009800023681D42FCD0236C013A1B051B0DC918BE
:10099000002AF2D10323CA1713405918C82264232E
:1009A000891030A8FFF754FC402304220021A362E1
:1009B000A3682B43A36023681D42FCD0236C013A3B
:1009C0001B051B0DC918002AF2D10323CA171340B7
:1009D00059188C225A23891036A8FFF739FC894B05
:1009E00080219A4600230220994698460527864A88
:1009F00049025346536043469360176013680B42A5
:100A0000FCD04B461360012801D03000F1E7009B79
:100A1000013B0093002B00D060E77C48FFF78CFB84
:100A2000002308930193049303930A930D93784B47
:100A300004251B93774B784C0B93784B0593DF1C65
:100A4000774B069303339A46764B1393764B159365
:100A5000764B1793764B1E93764B1D93764B1893DC
:100A6000764B2093764B1F93764B1A93764B2293BB
:100A7000764B2693764B2593764B2993764B28938A
:100A8000764B2493764B2393764B1C93764B1093A3
:100A9000764B1193764B1293764B1493764B1693B9
:100AA000764B1993764B2793102304220021A362DF
:100AB000A3682B43A36023681D42FCD0236C013A3A
:100AC0001B051B0DC918002AF2D10323CA171340B6
:100AD0005918C822642389102AA8FFF7B9FB2023DC
:100AE00004220021A362A3682B43A36023681D4254
:100AF000FCD0236C013A1B051B0DC918002AF2D14A
:100B00000323CA1713405918C8226423891030A838
:100B1000FFF79EFB402304260022A362A3682B4319
:100B2000A36023681D42FCD0236C013E1B051B0DF6
:100B3000D218002EF2D10321D317194089185A2355
:100B40008C22891036A8FFF783FB3A9B9946002B2D
:100B500055D1019B022B07DC01330193033B5A1E45
:100B600093410A9A1A400A92029B05211B78009829
:100B7000984600F04BFC002900D183E0009B013334
:100B800000934346012B00D190E2022B00D1A2E258
:100B9000002B00D09CE22E983499002800D0B2E2BD
:100BA000002900D0C3E24146029A023313700E9A24
:100BB0000333FF3313600F9A1360219A1160516061
:100BC0009160D1605360D3600023089304930D4B70
:100BD0008021994600230A2098469C4605260A4A09
:100BE00049024B46536063469360166013680B429C
:100BF000FCD04346013813600028F2D154E70023AB
:100C00000193B1E7FF7C000010E000E088170008C6
:100C1000FC1500080416000800240140081600080E
:100C20000C160008101600081816000824160008F4
:100C3000D81700082C16000834160008CC17000836
:100C40003C16000848160008501600088C160008CC
:100C500080160008D0160008C416000868160008A0
:100C60005C160008D8160008E0160008E816000810
:100C7000F0160008F816000800170008081700080A
:100C8000E41700084C239C461B98CD4A8031D36959
:100C90001942FCD063460130936203789C46C94BED
:100CA0009842F4D104212A98FFF758FA2023802192
:100CB0009C460B98C24AD3691942FCD06346013066
:100CC000936203789C46C04B9842F4D104212C983F
:100CD000FFF744FA202380219C460598B84AD3693F
:100CE0001942FCD063460130936203789C46B842B7
:100CF000F5D104212D98FFF731FA202380219C465D
:100D00000698AF4AD3691942FCD06346013093621A
:100D100003789C465045F5D101212E98FFF71EFA25
:100D2000202380219C461398A54AD3691942FCD000
:100D300063460130936203789C46A44B9842F4D1F9
:100D400004213098FFF70AFA202380219C460B9853
:100D50009B4AD3691942FCD0634601309362037801
:100D60009C46994B9842F4D104213298FFF7F6F94A
:100D7000202380219C460598914AD3691942FCD0D2
:100D800063460130936203789C46B842F5D1042152
:100D90003398FFF7E3F9202380219C460698884A80
:100DA000D3691942FCD063460130936203789C46B4
:100DB0005045F5D101213498FFF7D0F92023802147
:100DC0009C4615987E4AD3691942FCD0634601308F
:100DD000936203789C467E4B9842F4D10421369866
:100DE000FFF7BCF9202380219C460598744AD369FB
:100DF0001942FCD063460130936203789C46B842A6
:100E0000F5D104213998FFF7A9F9202380219C46C8
:100E100006986B4AD3691942FCD06346013093624D
:100E200003789C465045F5D101214846FFF796F9D5
:100E3000202380219C461798614AD3691942FCD02F
:100E400063460130936203789C46624B9842F4D12A
:100E50004346022B00D952E11E9A9B00D3581878C2
:100E60009C4600280BD08021554AD3691942FCD0FA
:100E700001239C446346906218780028F5D1202312
:100E800080219C4618984E4AD3691942FCD063468B
:100E90000130936203789C464F4B9842F4D10C9BEF
:100EA0001B68013B022B00D925E1209A9B00D358F7
:100EB00018789C4600280BD08021414AD3691942FA
:100EC000FCD001239C446346906218780028F5D139
:100ED000202380219C461A98394AD3691942FCD0B4
:100EE00063460130936203789C463C4B9842F4D1B0
:100EF0000E9B1A680F9B09921968130007910B4308
:100F000000D121E1002A00DC22E1002900DC30E1EF
:100F10008A4200D171E156208A4200DC44E1229BE2
:100F20009B468021264AD3691942FCD001239B4469
:100F30005B46906218780028F5D11C9B80219C4666
:100F40001F4A2030D3691942FCD001239C446346D8
:100F500090621878224B9C45F4D104210998FFF740
:100F6000FDF8202380219C461098154AD369194228
:100F7000FCD063460130936203789C46194B98423B
:100F8000F4D104210798FFF7E9F8202380219C463B
:100F900011980B4AD3691942FCD063460130936221
:100FA00003789C46104B9842F4D103210398FFF735
:100FB000D5F8202380219C461298014A16E0C046AD
:100FC0000038014000160008071600081716000830
:100FD000201600082A160008391600084D160008C9
:100FE000DC160008E4160008EC160008D369194264
:100FF000FCD063460130936203789C46854B98424F
:10100000F4D101210498FFF7A9F8202380219C4600
:101010001498814AD3691942FCD063460130936227
:1010200003789C467D4B9842F4D101210198FFF74B
:1010300095F8202380219C461698774AD369194257
:10104000FCD063460130936203789C46744B98420F
:10105000F4D101210D98FFF781F8202380219C46CF
:1010600019986D4AD3691942FCD0634601309362E6
:1010700003789C466B4B9842F4D102210898FFF705
:101080006DF88021644AD3691942FCD00D23802178
:101090009362614AD3691942FCD00A239362009B90
:1010A000013300934346012B00D06EE5039B019A68
:1010B00001330393022A3FDD072B40DD0C9B1B68A5
:1010C000032B7BD00023029A0493137003937EE5D5
:1010D000FFF796F87BE52E983499002807D0002971
:1010E00005D0089B022B54D85E1C022B4FD0FFF773
:1010F0008DF908966BE51F9B53209C46DCE61D9BF3
:1011000053209C46AFE6002911D04B46002B3CD023
:101110000A9B002B38D1049B022B57DC013304932C
:10112000032B53D033992D98FFF7E8F84FE5FFF7DD
:101130006DF9002304934AE5039BC82BBEDC0C9B8E
:101140001868FFF72DF942E51D9B53209B46E8E602
:10115000099B002B21D0079A002A28DB249B4120E1
:101160009B46079B002B00D1DBE62F4B13309B46A1
:10117000D7E6239B41209B46079B002B00D1D0E65E
:10118000269B13309B46CCE600230493CAE7013329
:1011900008930023029A1370C4E7079B5020002B8A
:1011A0002FDD259B9B46BCE6289B9B46B9E652203B
:1011B00093422CD028DA1D4B9B46B2E6029A13705C
:1011C000FFF71EF800230493039300E50D9A032014
:1011D000072A04DC27999300C858531C0D930C9BD5
:1011E000029A186001231370FFF7DAF800230193C5
:1011F0000493039301330A93E9E4299B46209B4619
:101200008FE60B4B9B468CE60A4B9B4689E60A4BC6
:101210009B4686E6F416000800380140FC160008DC
:10122000041700080C17000898160008B0160008EC
:1012300074160008A4160008BC160008FEE7C04695
:10124000FEE7C0460121294A13680B4313600331AE
:1012500013681942FCD001230C21D360234AD368C0
:101260000B40042BFBD10220214B1968014319606C
:1012700019680138014319608023916B5B050B43AA
:101280009363802310211B4A1B011360536819428A
:10129000FCD1164B1849DA680A40DA608822D9680E
:1012A000D2030A43DA60DA681449DA60DA68DA608D
:1012B000DA68DA601A680A401A60802219685204F3
:1012C0000A4380211A6089041A680A42FCD003216B
:1012D000DA688A43DA60DA680A43DA600C22034982
:1012E000CB6813400C2BFBD17047C0460010024066
:1012F0000020024000700040FFFF02FFFFFFFFFEE2
:10130000002243088B4274D303098B425FD3030A44
:101310008B4244D3030B8B4228D3030C8B420DD357
:10132000FF22090212BA030C8B4202D312120902E5
:1013300065D0030B8B4219D300E0090AC30B8B4223
:1013400001D3CB03C01A5241830B8B4201D38B03D1
:10135000C01A5241430B8B4201D34B03C01A524176
:10136000030B8B4201D30B03C01A5241C30A8B42B9
:1013700001D3CB02C01A5241830A8B4201D38B02A4
:10138000C01A5241430A8B4201D34B02C01A524148
:10139000030A8B4201D30B02C01A5241CDD2C309BA
:1013A0008B4201D3CB01C01A524183098B4201D336
:1013B0008B01C01A524143098B4201D34B01C01A21
:1013C000524103098B4201D30B01C01A5241C30899
:1013D0008B4201D3CB00C01A524183088B4201D308
:1013E0008B00C01A524143088B4201D34B00C01AF4
:1013F0005241411A00D20146524110467047FFE760
:1014000001B5002000F0F0F802BDC0460029F7D079
:1014100076E7704703460B437FD4002243088B4294
:1014200074D303098B425FD3030A8B4244D3030B6B
:101430008B4228D3030C8B420DD3FF22090212BA30
:10144000030C8B4202D31212090265D0030B8B42AC
:1014500019D300E0090AC30B8B4201D3CB03C01A96
:101460005241830B8B4201D38B03C01A5241430B71
:101470008B4201D34B03C01A5241030B8B4201D361
:101480000B03C01A5241C30A8B4201D3CB02C01ACC
:101490005241830A8B4201D38B02C01A5241430A44
:1014A0008B4201D34B02C01A5241030A8B4201D333
:1014B0000B02C01A5241CDD2C3098B4201D3CB01DA
:1014C000C01A524183098B4201D38B01C01A524189
:1014D00043098B4201D34B01C01A524103098B428D
:1014E00001D30B01C01A5241C3088B4201D3CB0078
:1014F000C01A524183088B4201D38B00C01A52415B
:1015000043088B4201D34B00C01A5241411A00D20A
:1015100001465241104670475DE0CA0F00D0494273
:10152000031000D34042534000229C4603098B42E3
:101530002DD3030A8B4212D3FC22890112BA030A6B
:101540008B420CD3890192118B4208D389019211ED
:101550008B4204D389013AD0921100E08909C30972
:101560008B4201D3CB01C01A524183098B4201D374
:101570008B01C01A524143098B4201D34B01C01A5F
:10158000524103098B4201D30B01C01A5241C308D7
:101590008B4201D3CB00C01A524183088B4201D346
:1015A0008B00C01A5241D9D243088B4201D34B0061
:1015B000C01A5241411A00D20146634652415B10A3
:1015C000104601D34042002B00D549427047634684
:1015D0005B1000D3404201B5002000F005F802BDC9
:1015E0000029F8D016E770477047C0462020523DCA
:1015F00000000000202049583D0000004C20723DB2
:101600000000000020623D0020733D0020643D008A
:10161000207C205220723D00207C20495820723DC1
:1016200000000000207C2073743D000053544F5094
:1016300000000000206163743D00000053545241DB
:101640004947485400000000206469723D000000D2
:10165000564545525F524947485400004152435F46
:1016600052494748540000004152435F4C4546549C
:10167000000000005049564F545F524947485400FB
:101680005049564F545F4C45465400005455524EF5
:101690005F524947485400005455524E5F4C4546EE
:1016A000540000005245565F4C454654000000006F
:1016B0005245565F5249474854000000524556452E
:1016C00052534500564545525F4C45465400000074
:1016D000464F525741524400206C633D00000000C9
:1016E0002072633D000000002078743D000000007F
:1016F0002078733D000000002078723D000000005B
:101700002069633D00000000206C613D0000000086
:10171000526F626F74207374617274696E672075A2
:10172000702E2E2E0D0A000053656C65637465647F
:1017300020706174683D00000D0A00002D2D2D20E1
:10174000524157204144432044554D5020286E6F4C
:101750002066696C746572696E6729202D2D2D0DC8
:101760000A0000002D2D2D20454E442044554D509B
:101770002C207374617274696E67207761726D7565
:1017800070202D2D2D0D0A005761726D757020642B
:101790006F6E652E20456E746572696E67206D618F
:1017A000696E206C6F6F702E0D0A0000464F4C4C16
:1017B0004F570000494E54455253454354494F4EEC
:1017C000000000004C4F5354000000006C1600084D
:1017D000601600082C160008AC170008B4170008A3
:1017E000C417000800000000010000000100000014
:1017F00000000000020000000100000002000000E4
:1018000003000000010000000200000001000000D1
:1018100002000000000000000000000003000000C3
:1018200003000000020000000000000002000000B1
:1018300001000000020000000100000000000000A4
:0418400003000000A1
:04000005080000B936
:00000001FF
