:020000040800F2
:1000000000200020B9000008150C0008190C000899
:1000100000000000000000000000000000000000E0
:10002000000000000000000000000000150C0008A7
:100030000000000000000000150C0008150C00086E
:10004000150C0008150C0008150C0008150C00080C
:10005000150C0008150C0008150C0008150C0008FC
:1000600000000000150C0008150C0008150C000815
:10007000150C0008150C0008000000006D020008B7
:1000800000000000150C0008000000000000000047
:10009000150C000800000000150C0008150C0008E5
:1000A000150C0008150C0008150C0008150C0008AC
:1000B000150C0008150C000800F0B0FD184A194B8B
:1000C0009A422AD2013B991A002389080131164825
:1000D0008900C458D45004338B42FAD1D318134A40
:1000E000934209D20321013AD21A8A43191D5218A8
:1000F000002102C39342FCD10D4D0E4EB54209D2F0
:100100000024013E761BB60808CD98472300013431
:10011000B342F9D100F082F9FEE71300DFE7C046F1
:100120000000002004000020781E000824000020A9
:10013000781E0008781E000810B50478002C09D03D
:100140008021054AD3691942FCD094624478013079
:10015000002CF7D110BDC04600380140F0B50D00AD
:1001600085B000281FDB061E26D1302301AE0124F6
:100170003370012909D0802020211C4AD3691842FC
:10018000FCD0013D9162AC42F8DB8021601E174A31
:1001900030180478D3691942FCD09462431E864219
:1001A00021D01800F5E78021104AD3691942FCD00C
:1001B0002D2346429362013D00246B4630000333F9
:1001C0000A2101341F1901F091FC303139703000DF
:1001D0000A2101F005FC37000600092FEDD801AE19
:1001E000AC42C8DBD1E705B0F0BDC04600380140E5
:1001F00000220E4B01201A605A609A60DA60A02338
:10020000DB0559690143596159690130014359615D
:1002100059690230014359615969043001435961F8
:10022000034B1A60034B1A607047C0460C00002055
:1002300004000020080000200300F0B50138002B66
:100240000FD08021002600250524064A064F4902CA
:1002500057609560146013680B42FCD0166001383B
:10026000F6D2F0BD10E000E0FF7C0000802201210A
:10027000D205136910B58B431361274A274B1468C5
:100280001868844242D9A024E4056069884360610B
:1002900050681968884232D9A0200224C0054169FB
:1002A000A143416190681968884221D9A0200424A3
:1002B000C0054169A1434161D1681A68914210D9D2
:1002C000A0210820C9054A6982434A611A6801329F
:1002D0001A60FA2219689200914201D300221A6032
:1002E00010BDA0210820C9054A6902434A61EDE713
:1002F000A0200424C005416921434161DCE7A0201E
:100300000224C005416921434161CBE7A024E405F3
:10031000606901436161BBE70C0000201C00002004
:10032000394A70B518C81360384A394D1460002234
:100330002A606A60AA60EA60002B40DB16D1002CBC
:1003400028DB002C11D0FA239B009C424ED8FA21C6
:1003500063011B1B9B001C19E4002000890001F0B5
:100360003FFB2C4B9C4249D0E86070BDFA229200C2
:10037000934239D8FA215E01F61AB600F618F60053
:100380003000890001F02CFB224B9E4239D068607E
:10039000002CD6DAFA2362429B009A4200D91A0056
:1003A000FA2153019B1A9C00A418E4002000890044
:1003B00001F016FB174B9C421DD0A860D5E7FA222E
:1003C0005B429200934200D91300FA215E01F61AB3
:1003D000B600F618F6003000890001F001FB0D4B65
:1003E0009E4205D02860AAE71300C3E71C00AEE7D1
:1003F00009482860A3E70848A860B6E70648E8600F
:10040000B3E705486860C3E7040000200800002047
:100410000C00002040420F00E7030000F0B5DE466C
:10042000454657464E46E0B59FB00EA800F0F4FC96
:10043000DE4B01219846002342461360DC4A1360DC
:10044000DC4B1A680A431A60042219680A42FCD07D
:10045000DA68D9490A40DA608822D968D2030A43A7
:10046000DA608022196852040A431A608022D14B54
:10047000920419681142FCD00120D0490A68024355
:100480000A600321DA680A43DA60CA4A0931D3688C
:100490000B400C2BFBD10120D36AC94C0343D36220
:1004A0008023516BDB010B435363A023DB051968E9
:1004B000FF252140196080211C6809032143F02495
:1004C0000F261960596AA1435962596AB03C214309
:1004D0005962BC49D634CC600E3CFF3C0C60D16AFA
:1004E0004C340143D162916B014391631968A94374
:1004F00019601968214319605C68B4435C609C68AA
:100500002C439C60DC68AC43DC60002459694025C6
:1005100031435961AC49FF350C604C608C60CC6054
:10052000AA490C608021C9058C62CD620C618034BF
:10053000C8600C608024A64D48612E6824023443B4
:100540002C600C6804430C6062B6D46A0443D46225
:100550008024556BA4002C435463FC221C68920138
:1005600022431A609B4B1A69114319619A68104221
:1005700007D0022299680A439A60012299680A42C8
:10058000FCD18023934A5B0591680B439360924AA8
:10059000924B80215360002393600533136049021E
:1005A00013680B42FCD0002313608022894B120693
:1005B00099680A439A609A68002AFCDB05225A610E
:1005C00000220121DA609A680A439A600123814A75
:1005D00011680B42FCD0FFF70BFE002107A800F0CA
:1005E00069FC0AA800F012FE80210490FA2000267F
:1005F00000250524784A794F4000490257609560EC
:10060000146013680B42FCD0013816600028F5D145
:100610007348FFF791FD049B7248002B00D172488C
:10062000FFF78AFD7148FFF787FD14230193704B94
:10063000684C9A466F4B9B464C2080216E4E614A17
:10064000D3691942FCD09062707801360028F7D146
:10065000202304210422A362A3681343A360236818
:100660001A42FCD0236C01391B051B0DC018002950
:10067000F2D180100431FFF771FD56462020802111
:10068000504AD3691942FCD0906270780136002834
:10069000F7D1102304210422A362A3681343A360AB
:1006A00023681A42FCD0236C01391B051B0DC018AE
:1006B0000029F2D180100431FFF750FD5E46202062
:1006C0008021404AD3691942FCD09062707801368B
:1006D0000028F7D1402304210422A362A368134316
:1006E000A36023681A42FCD0236C01391B051B0D43
:1006F000C0180029F2D180100431FFF72FFD0D2022
:1007000080213E4E2F4AD3691942FCD09062707806
:1007100001360028F7D1314B80219946002500276A
:1007200005262D4A643049024B4653609760166097
:1007300013680B42FCD0013815600028F4D1019BEE
:10074000013B0193002B00D076E72D48FFF7F4FC26
:1007500020234026994604251E4C4B4604220021A6
:10076000A362A3682B43A36023681D42FCD0236CC3
:10077000013A1B051B0DC918002AF2D110230420D1
:100780008910A362A3682B43A36023681D42FCD099
:10079000236C01381B051B0DD2180028F2D1402311
:1007A0000427A362002392102CE0C046040000201E
:1007B0000800002000100240FFFF02FF002002405E
:1007C000FFFFF3FF003801400C0000201C00002058
:1007D00000E100E00024014010E000E0FF7C0000A8
:1007E000D81D0008CC1C0008DC1C0008F01D000807
:1007F000F41C0008FC1C0008F01C0008EC1D00089C
:10080000181E0008A0682843A06020680542FCD09C
:10081000206C013F0005000D1B18002FF2D19B102A
:100820000EA800F00BFBC94AC94B80215360052379
:1008300097604902136013680B42FCD00023C4493F
:10084000136051608021936005331360BF4A4902F1
:1008500013680B42FCD00023013E1360002E00D031
:100860007BE7BC48FFF768FC00230425BA4C0293E1
:1008700003930196202304220021A362A3682B4343
:10088000A36023681D42FCD0236C013A1B051B0D9D
:10089000C918002AF2D1102304208910A362A3688A
:1008A0002B43A36023681D42FCD0236C01381B0539
:1008B0001B0DD2180028F2D140230026A36292100B
:1008C0003C3BA0682843A06020680542FCD0206C17
:1008D000013B0005000D3618002BF2D10EA8B31015
:1008E00000F0ACFA0521019801F000F900292DD0A3
:1008F000019B01330193029B01330293049B002B64
:1009000003D0029B312B00D90CE1039B002B18D0A4
:10091000FFF76EFC8E4B80219B4600230A209A46EF
:1009200000260527894A49025B4653609660176096
:1009300013680B42FCD05346013813600028F3D1F2
:1009400098E707A90EA800F0C3FAE3E74C2080213E
:10095000824E834AD3691942FCD090627078013686
:100960000028F7D10E9B042118000593FFF7F6FB32
:10097000202080217B4E7A4AD3691942FCD09062B4
:10098000707801360028F7D1179B042118000593D1
:10099000FFF7E4FB20208021734E714AD36919428E
:1009A000FCD09062707801360028F7D11A9B0121A3
:1009B00018000593FFF7D2FB202080216B4E684A78
:1009C000D3691942FCD09062707801360028F7D1C3
:1009D0000F9B042118000593FFF7C0FB2020802106
:1009E000604E5F4AD3691942FCD09062707801363C
:1009F0000028F7D1189B042118000593FFF7AEFBE0
:100A000020208021584E564AD3691942FCD090626A
:100A1000707801360028F7D11B9B0121180005933F
:100A2000FFF79CFB20208021514E4D4AD36919428B
:100A3000FCD09062707801360028F7D1109B042119
:100A400018000593FFF78AFB20208021494E444A75
:100A5000D3691942FCD09062707801360028F7D132
:100A600043461B689C46444B1B68994663464A466E
:100A7000134367D06346002B00DC8BE0002A00DCC8
:100A800090E0CC4500D1A5E05627CC4500DD93E0B1
:100A90003A488021324AD3691942FCD0976247789C
:100AA0000130002FF7D120208021354E2C4AD36908
:100AB0001942FCD09062707801360028F7D10421E9
:100AC0006046FFF74BFB202080212E4E244AD3693D
:100AD0001942FCD09062707801360028F7D10421C9
:100AE0004846FFF73BFB20208021274E1C4AD36954
:100AF0001942FCD09062707801360028F7D1089B2B
:100B0000012118000593FFF729FB0D2080211F4EBE
:100B1000134AD3691942FCD09062707801360028DC
:100B2000F7D1E5E606AB981C00F0E2FE002806D0FF
:100B300006AB5A88C721002391425B4103930023EF
:100B40000293E2E653271248A3E7C04610E000E014
:100B5000FF7C00003C1E000800240140041D00082A
:100B6000003801400C1D0008101D0008141D00086D
:100B70001C1D0008281D000808000020B41D0008E6
:100B80003C1D0008441D00084C1D0008EC1D000819
:100B9000881D0008002B0AD0002A12DB0ED1412745
:100BA000114876E7002A12D14127104871E75027F3
:100BB000002A12DD0E486CE70E486AE754270E48FB
:100BC00067E75227CC450CD009DB0C4861E7542776
:100BD0000B485EE746270B485BE70B4859E70B4895
:100BE00057E70B4855E7C046C01D0008301D0008F8
:100BF000901D0008741D0008A81D0008601D000855
:100C00009C1D0008801D0008CC1D0008541D000814
:100C10006C1D0008FEE7C046FEE7C0460121294AD8
:100C200013680B431360033113681942FCD001238E
:100C30000C21D360234AD3680B40042BFBD1022044
:100C4000214B196801431960196801380143196083
:100C50008023916B5B050B439363802310211B4A18
:100C60001B01136053681942FCD1164B1849DA680E
:100C70000A40DA608822D968D2030A43DA60DA6867
:100C80001449DA60DA68DA60DA68DA601A680A4009
:100C90001A608022196852040A4380211A6089046C
:100CA0001A680A42FCD00320D9688143D960DA6807
:100CB00004490243DA600C22CB6813400C2BFBD1B1
:100CC0007047C04600100240002002400070004003
:100CD000FFFF02FFFFFFFFFE00B583B002280CD02C
:100CE00003281CD0012811D0D22368465B00009352
:100CF0000193FFF715FB03B000BD96239B00009303
:100D00000A4B68460193FFF70BFBF4E7074B684675
:100D1000009396239B000193FFF702FBEBE7002370
:100D2000684600930193FFF7FBFAE4E7A8FDFFFF95
:100D3000F8B54F46D646032480B51700089A1960C7
:100D4000136891465D00ED186D18EB171C409A462C
:100D5000099B64191B68A4100B9E191B9C4200DBA5
:100D6000E11A3268002A2FD1B94218DB191B9C42C4
:100D700000DBE11A0123002A22D18F4208DC4A4617
:100D800014600A9A11603360C0BCBA46B146F8BD1F
:100D900080235046DB019D4250410300EFE7802154
:100DA000C9018D42E2DA0F2812D910210F205843D1
:100DB000001900F09FFE099A030010603268D5E721
:100DC0006329DCDC0023DAE76329CFDC0F28ECD8C9
:100DD00008210720EBE7C04600B5411A83B050292F
:100DE00010DCD2235B000093503105DB6846019391
:100DF000FFF796FA03B000BD002368460193FFF7A2
:100E00008FFAF7E700230093A533FF336846019379
:100E1000FFF786FAEEE7C046002303604360836075
:100E2000C360036143618361C361036243628362A0
:100E3000C362036343638363C363704770B51D007C
:100E40000300040084B0303303930C3B02930C3B4B
:100E500001930C3B009316000300C822C06BFFF700
:100E600067FF2200343203920C3A02920C3A01924C
:100E70000C3A3100E06B231D0092C822FFF758FFA7
:100E800022002300383203920C3A02920C3A01926B
:100E90000C3A083300922900054AE06BFFF748FF3F
:100EA000E36B5A1C01D00133E36304B070BDC0464C
:100EB0000F2700000122044B01701A700023034A1F
:100EC0004360137083607047000000202000002002
:100ED00070B5384D04002B78826882B0022B0BD09D
:100EE000032B1DD0012B12D00023684600930193E1
:100EF000FFF716FA02B070BD642A1FDC00232E4AE9
:100F00008B601278032A1ED001232B70F2E7642A2B
:100F100011DD8A68002A1DD003CCFFF75DFFE9E7E9
:100F200041680068FFF758FF2368C82BECDC636852
:100F3000C82BE9DCDEE700238B60EDE71E4B187859
:100F4000FFF7CAFED6E768462B7000930193FFF7C0
:100F5000E7F9CFE78B604B68072B28DC0A78581C31
:100F60004860D100154A5218D35C0024124E6846DE
:100F7000337000940194FFF7D3F9C8204000FFF7C5
:100F80005BF93078431E012B03D90328BCD12C70A8
:100F9000B0E7FFF7A1FEE1208000FFF74DF96846BA
:100FA00000940194FFF7BCF901232B70A2E70323FF
:100FB000DBE7C0460000002020000020601E000883
:100FC00070B51E4B1E4C0225E361012323601D4BAF
:100FD0001D4E6360802362689B01134363601B4A5C
:100FE00004E0334225D1013A002A22D0A3691D42F0
:100FF000F7D0A062154A02241148134D04E02B4299
:1010000017D1013A002A14D083691C42F7D08162BB
:101010000E4A20200A490C4C04E0234209D1013A2F
:10102000002A06D08B691842F7D0044B0120CB610F
:1010300003E00020024B014ADA6170BD3017000066
:1010400000540040520002021017000020A10700C7
:1010500070B52C4B2C4C0225E361012323602B4BF4
:101060002B4E6360802362689B0113436360294AAF
:1010700004E0334240D1013A002A3DD0A3691D4229
:10108000F7D0A062234A20241F48214D04E02B42C0
:1010900032D1013A002A2FD083691C42F7D0194B74
:1010A0000424C361012303601B4B194D436080235B
:1010B00042689B0113434360164A134804E02B42E5
:1010C0001AD1013A002A17D083691C42F7D0436A2B
:1010D000104A0B7010230C49C3610D4C202004E012
:1010E000234209D1013A002A06D08B691842F7D071
:1010F000044B0120CB6103E00020034B014ADA617D
:1011000070BDC0463017000000540040520001027C
:101110001017000020A107005204010270B5354BE2
:10112000354C0225E36101232360344B344E636068
:10113000802362689B0113436360324A04E03342B8
:1011400052D1013A002A4FD0A3691D42F7D0A062C4
:101150002C4A202428482A4D04E02B4244D1013A4D
:10116000002A41D083691C42F7D0224B0424C3617A
:1011700001230360244B224D4360802342689B017E
:10118000134343601F4A1C4804E02B422CD1013A10
:10119000002A29D083691C42F7D0466A042436020B
:1011A000B6B2184A1448164D0E8004E02B421BD1EB
:1011B000013A002A18D083691C42F7D0436A114AC9
:1011C0001E4310230E800E4CC3610B49202004E007
:1011D000234209D1013A002A06D08B691842F7D080
:1011E000044B0120CB6103E00020034B014ADA618C
:1011F00070BDC0463017000000540040520001028C
:101200001017000020A1070052040202F0B50022CE
:10121000C646050000B5028042608260C2600120BF
:10122000A024344BE405D96A80460143D962216881
:101230003148802684460140802021602168C00119
:10124000084320606068B0436060C020A16800026D
:101250000843A0606046E16801400220E160A662A8
:10126000D96A0143D9628021986B8903014399634C
:10127000224B234819680140196019688C46A02147
:101280006746090239431960196A0902090A196295
:10129000196A8C468821674649053943C027196277
:1012A00059683943596099680140996099688C463A
:1012B000A0216746C90139439960D9680140D960C6
:1012C000104B05201A60104A1A61104ADA61FEF7C5
:1012D000B3FF0A20A661FEF7AFFF00F04DF800282B
:1012E00005D0434601206B6080BCB846F0BD0020AD
:1012F000FAE7C04600100240FF3FFFFF0004005025
:10130000FF0FFFFF00540040130F42703017000022
:1013100030B583B06B46DC1D002305002370012827
:101320001AD0012141250120FFF74AFE002810D0E4
:1013300029000020FFF744FE00280AD0072502E01C
:1013400023781D420AD121001320FFF781FE0028D7
:10135000F6D1002003B030BD0221E4E701210B20CB
:10136000FFF72EFE0028F4D000210020FFF728FE12
:10137000431E9841C0B2EDE7F0B583B06B4600253F
:10138000DC1D2100C0202570FFF762FE002812D06E
:101390002378EE2B0FD1210089202570FFF758FE0E
:1013A000002808D001232178892019432170FFF7F4
:1013B00007FE002802D1002003B0F0BD00218820E4
:1013C000FFF7FEFD012107008020FFF7F9FD012155
:1013D0000600FF20FFF7F4FD002106400020FFF784
:1013E000EFFD0D4906409120FFF732FE0121064036
:1013F0000020FFF7E5FD00210640FF20FFF7E0FD9C
:10140000002106408020FFF7DBFD3A00531E9A4181
:1014100030401042CFD001E0210000200121FF2008
:10142000FFF7CEFD002107000020FFF7C9FD0600F1
:101430000021FF20FFF7C4FD330003401E00002100
:101440000920FFF7BDFD330003401E0000211020DE
:10145000FFF7B6FD330003401E0000211120FFF707
:10146000AFFD330003401E0001212420FFF7A8FD3B
:10147000330003401E00FF212520FFF7A1FD3300AC
:1014800003401E0000217520FFF79AFD3300034042
:101490001E000121FF20FFF793FD330003401E00D3
:1014A0002C214E20FFF78CFD330003401E0000214D
:1014B0004820FFF785FD330003401E002021302027
:1014C000FFF77EFD330003401E000021FF20FFF7E1
:1014D00077FD330003401E0009213020FFF770FD27
:1014E000330003401E0000215420FFF769FD330044
:1014F00003401E0004213120FFF762FD330003404A
:101500001E0003213220FFF75BFD330003401E0065
:1015100083214020FFF754FD330003401E002521A6
:101520004620FFF74DFD330003401E0000216020E0
:10153000FFF746FD330003401E0000212720FFF780
:101540003FFD330003401E0006215020FFF738FD09
:10155000330003401E0000215120FFF731FD33000E
:1015600003401E0096215220FFF72AFD330003405E
:101570001E0008215620FFF723FD330003401E0004
:1015800030215720FFF71CFD330003401E000021CF
:101590006120FFF715FD330003401E00002162208B
:1015A000FFF70EFD330003401E0000216420FFF70B
:1015B00007FD330003401E0000216520FFF700FDFA
:1015C000330003401E00A0216620FFF7F9FC330022
:1015D00003401E000121FF20FFF7F2FC330003400F
:1015E0001E0032212220FFF7EBFC330003401E00D7
:1015F00014214720FFF7E4FC330003401E00FF21C5
:101600004920FFF7DDFC330003401E0000214A2083
:10161000FFF7D6FC330003401E000021FF20FFF738
:10162000CFFC330003401E000A217A20FFF7C8FCDC
:10163000330003401E0000217B20FFF7C1FC330074
:1016400003401E0021217820FFF7BAFC330003403D
:101650001E000121FF20FFF7B3FC330003401E00F2
:1016600034212320FFF7ACFC330003401E0000218F
:101670004220FFF7A5FC330003401E00FF21442059
:10168000FFF79EFC330003401E0026214520FFF794
:1016900097FC330003401E0005214620FFF790FC15
:1016A000330003401E0040214020FFF789FC330037
:1016B00003401E0006210E20FFF782FC330003408A
:1016C0001E001A212020FFF77BFC330003401E0080
:1016D00040214320FFF774FC330003401E0000212B
:1016E000FF20FFF76DFC330003401E000321342070
:1016F000FFF766FC330003401E0044213520FFF74E
:101700005FFC330003401E000121FF20FFF758FC5F
:10171000330003401E0004213120FFF751FC330049
:1017200003401E0009214B20FFF74AFC3300034011
:101730001E0005214C20FFF743FC330003401E0030
:1017400004214D20FFF73CFC330003401E00002124
:10175000FF20FFF735FC330003401E00002144202A
:10176000FFF72EFC330003401E0020214520FFF729
:1017700027FC330003401E0008214720FFF720FC10
:10178000330003401E0028214820FFF719FC3300D6
:1017900003401E0000216720FFF712FC33000340C6
:1017A0001E0004217020FFF70BFC330003401E00D5
:1017B00001217120FFF704FC330003401E00FE21CD
:1017C0007220FFF7FDFB330003401E00002176204E
:1017D000FFF7F6FB330003401E0000217720FFF7E0
:1017E000EFFB330003401E000121FF20FFF7E8FB61
:1017F000330003401E0001210D20FFF7E1FB330001
:1018000003401E000021FF20FFF7DAFB33000340F6
:101810001E0001218020FFF7D3FB330003401E0090
:10182000F8210120FFF7CCFB330003401E0001210B
:10183000FF20FFF7C5FB330003401E0001218E206F
:10184000FFF7BEFB330003401E0001210020FFF71D
:10185000B7FB330000210340FF201E00FFF7B0FB61
:10186000002106408020FFF7ABFB3B005A1E93414E
:101870003040184200D19EE504210A202570FFF770
:101880009FFB002800D196E521008420FFF7E0FBB4
:10189000002800D18FE510232178842099432170FE
:1018A000FFF78EFB002800D185E501210B20FFF713
:1018B00087FB002800D17EE5E8210120FFF780FBAF
:1018C000002800D177E50020FFF722FD002800D195
:1018D00071E50120FFF71CFD002800D16BE5E82130
:1018E0000120FFF76DFB431E9841C0B264E5C0467E
:1018F000F0B5C64600B582B06B466A469C1D002313
:10190000012180468020D51D23702B70FFF758FBE6
:1019100001210700FF20FFF753FB002106000020F4
:10192000FFF74EFB2B4B064019789120FFF748FB41
:10193000012106400020FFF743FB00210640FF2065
:10194000FFF73EFB002106408020FFF739FB3B00FC
:101950005A1E93413040184204D1002002B080BC8E
:10196000B846F0BD01210020FFF72AFB0028F4D083
:10197000012602E023781E4206D021000020FFF756
:1019800067FB0028F6D1E8E7072402E02B781C4229
:1019900006D129001320FFF75BFB0028F6D1DCE716
:1019A00041461E20FFF7BAFB0028D6D001210B20AC
:1019B000FFF706FB0028D0D04346074A1B889B1838
:1019C000012B01D90120C9E74246044B01201380B5
:1019D000C4E7C0462100002002E0FFFFFE1F000018
:1019E000002243088B4274D303098B425FD3030A5E
:1019F0008B4244D3030B8B4228D3030C8B420DD371
:101A0000FF22090212BA030C8B4202D312120902FE
:101A100065D0030B8B4219D300E0090AC30B8B423C
:101A200001D3CB03C01A5241830B8B4201D38B03EA
:101A3000C01A5241430B8B4201D34B03C01A52418F
:101A4000030B8B4201D30B03C01A5241C30A8B42D2
:101A500001D3CB02C01A5241830A8B4201D38B02BD
:101A6000C01A5241430A8B4201D34B02C01A524161
:101A7000030A8B4201D30B02C01A5241CDD2C309D3
:101A80008B4201D3CB01C01A524183098B4201D34F
:101A90008B01C01A524143098B4201D34B01C01A3A
:101AA000524103098B4201D30B01C01A5241C308B2
:101AB0008B4201D3CB00C01A524183088B4201D321
:101AC0008B00C01A524143088B4201D34B00C01A0D
:101AD0005241411A00D20146524110467047FFE779
:101AE00001B5002000F0F0F802BDC0460029F7D093
:101AF00076E7704703460B437FD4002243088B42AE
:101B000074D303098B425FD3030A8B4244D3030B84
:101B10008B4228D3030C8B420DD3FF22090212BA49
:101B2000030C8B4202D31212090265D0030B8B42C5
:101B300019D300E0090AC30B8B4201D3CB03C01AAF
:101B40005241830B8B4201D38B03C01A5241430B8A
:101B50008B4201D34B03C01A5241030B8B4201D37A
:101B60000B03C01A5241C30A8B4201D3CB02C01AE5
:101B70005241830A8B4201D38B02C01A5241430A5D
:101B80008B4201D34B02C01A5241030A8B4201D34C
:101B90000B02C01A5241CDD2C3098B4201D3CB01F3
:101BA000C01A524183098B4201D38B01C01A5241A2
:101BB00043098B4201D34B01C01A524103098B42A6
:101BC00001D30B01C01A5241C3088B4201D3CB0091
:101BD000C01A524183088B4201D38B00C01A524174
:101BE00043088B4201D34B00C01A5241411A00D224
:101BF00001465241104670475DE0CA0F00D049428D
:101C0000031000D34042534000229C4603098B42FC
:101C10002DD3030A8B4212D3FC22890112BA030A84
:101C20008B420CD3890192118B4208D38901921106
:101C30008B4204D389013AD0921100E08909C3098B
:101C40008B4201D3CB01C01A524183098B4201D38D
:101C50008B01C01A524143098B4201D34B01C01A78
:101C6000524103098B4201D30B01C01A5241C308F0
:101C70008B4201D3CB00C01A524183088B4201D35F
:101C80008B00C01A5241D9D243088B4201D34B007A
:101C9000C01A5241411A00D20146634652415B10BC
:101CA000104601D34042002B00D54942704763469D
:101CB0005B1000D3404201B5002000F005F802BDE2
:101CC0000029F8D016E770477047C046546F462089
:101CD000696E6974204F4B0D0A000000546F462056
:101CE000696E6974204641494C45440D0A00000064
:101CF0004C3D00002020523D0000000020204958AB
:101D00003D0000004C20723D0000000020733D00AB
:101D100020643D00207C205220723D00207C204920
:101D20005820723D00000000207C206469723D0054
:101D30004152435F5249474854000000206C633DC4
:101D4000000000002072633D000000002069783D23
:101D5000000000005245565F5249474854000000B9
:101D60005245565F4C4546540000000052455645CA
:101D700052534500564545525F524947485400006A
:101D8000464F52574152440053544F5000000000F8
:101D90005049564F545F4C45465400005455524EDE
:101DA0005F524947485400005455524E5F4C4546D7
:101DB00054000000564545525F4C45465400000013
:101DC0004152435F4C454654000000005049564F75
:101DD000545F524947485400526F626F74207374C5
:101DE000617274696E672075702E2E2E0D0A0000C8
:101DF0002D2D2D20524157204144432044554D5014
:101E000020286E6F2066696C746572696E67292080
:101E10002D2D2D0D0A0000002D2D2D20454E442086
:101E200044554D502C207374617274696E6720772D
:101E300061726D7570202D2D2D0D0A005761726D28
:101E4000757020646F6E652E20456E746572696EC4
:101E500067206D61696E206C6F6F702E0D0A000037
:101E60000001020303030303010201020000030354
:081E700002000201020100035F
:041E78000100000065
:04000005080000B936
:00000001FF
