:020000040800F2
:1000000000200020B9000008E1110008E5110008F7
:1000100000000000000000000000000000000000E0
:10002000000000000000000000000000E1110008D6
:100030000000000000000000E1110008E1110008CC
:10004000E1110008E1110008E1110008E1110008C8
:10005000E1110008E1110008E1110008E1110008B8
:1000600000000000E1110008E1110008E1110008A2
:10007000E1110008E1110008000000001103000870
:1000800000000000E1110008000000000000000076
:10009000E111000800000000E1110008E111000872
:1000A000E1110008E1110008E1110008E111000868
:1000B000E1110008E111000801F096F8184B194A07
:1000C00093420ED2013AD41A0022A408601C164DA5
:1000D0008000A958995004328242FAD1A400043316
:1000E000E318124A934209D20321013AD21A8A43F1
:1000F000191D5218002102C39342FCD10C4D0D4B27
:100100009D4209D20024013B5E1BB608013608CD92
:1001100001349847B442FAD100F09CF9FEE7C0469A
:100120000000002004000020482C000824000020CB
:10013000482C0008482C000810B50478002C09D081
:100140008021054AD3691942FCD094624478013079
:10015000002CF7D110BDC04600380140F0B5C646AE
:1001600000B50D0084B0002815DB061E1CD130231D
:1001700001AE337001246B46DF1CAC422CDB8021C6
:100180001E4A3F193C78D3691942FCD09462BE42A2
:1001900030D0013FF6E78021184AD3691942FCD0DC
:1001A0002D2346429362013D6B460024DF1C01343F
:1001B0003B19984630000A2101F09AFF434630313E
:1001C000197030000A2101F00DFF33000600092BE1
:1001D000EDD801AEAC42D2DA80202021074AD369A3
:1001E0001842FCD0013D9162A542F8D18021034A1A
:1001F0003F19C7E704B080BCB846F0BD00380140E5
:1002000000220E4B01201A605A609A60DA60A02327
:10021000DB0559690143596159690130014359614D
:1002200059690230014359615969043001435961E8
:10023000034B1A60034B1A607047C0460800002049
:100240001C0000201800002003000B430FD00028E2
:1002500006DD002911DD88421CD012DD124807E0BE
:10026000002806D000290EDB1AD1104800E0104803
:100270007047002912DD0F48FAE7002908D10E481F
:10028000F6E70E48F4E788420CD005DA0C48EFE7B1
:100290000C48EDE70C48EBE70C48E9E70C48E7E7CA
:1002A0000C48E5E70C48E3E78C2A0008F42A00082C
:1002B0007C2A0008DC2A0008B82A0008982A0008CE
:1002C000A42A0008C42A0008842A0008002B000879
:1002D000D02A0008E82A0008B02A0008F0B5002853
:1002E00010D08021002600250524074A074F013839
:1002F000490257609560146013680B42FCD0166089
:100300000138F6D2F0BDC04610E000E0FF7C0000EE
:1003100080220121D205136910B58B4313612A4A4B
:1003200013689C46294B1868844544D9A020C00511
:10033000844640698843614648615068196888422C
:1003400032D9A0200224C0054169A14341619068CF
:100350001968884221D9A0200424C0054169A1431D
:100360004161D1681A68914210D9A0210820C905BD
:100370004A6982434A611A6801321A60FA2219688E
:100380009200914201D300221A6010BDA0210820E2
:10039000C9054A6902434A61EDE7A0200424C0056B
:1003A000416921434161DCE7A0200224C005416985
:1003B00021434161CBE7A020C00584464069014349
:1003C00060464161B9E7C0460800002004000020F3
:1003D0000CC800201A490A601A490B601A490860C3
:1003E00048608860C860002A17DB09D1002B0EDB4B
:1003F000002B04D0FA229200934217DACB607047A8
:10040000FA20800082420EDA4A60002BF0DA0F4AAE
:10041000934211DB5B428B60F1E70C48824208DBC0
:1004200052420A60E2E70A4A4A60EEE7084BCB60B4
:10043000E5E7074A0A60D9E7054B8B60DFE7C0466E
:100440001C000020180000200800002019FCFFFFFD
:10045000E7030000F0B5DE4657464E464546E0B598
:10046000AFB01EA800F08EFF00230121E14A136007
:100470000792E14A1360E14B08921A680A431A6036
:10048000042219680A42FCD0DA68DD490A40DA60C1
:100490008822D968D2030A43DA608022196852049C
:1004A0000A431A608022D54B920419681142FCD08D
:1004B0000120D4490A6802430A600321DA680A432A
:1004C000DA60CE4A0931D3680B400C2BFBD10120F6
:1004D0000221D36A88460343D362D36ACA4C0B43D2
:1004E000D3628023516BDB010B435363A023DB05F5
:1004F000196803262140196080211C6809032143E3
:10050000F0241960596AA1435962596AB03C2143E9
:1005100059621968BD4C2140BD4C19602168B14336
:1005200021608B24BB496400CC600E3CFF3C0C6016
:10053000D16AF6340143D162916B52360143916323
:100540001968A14319601968314319605968463E1A
:10055000B1435960996821439960D968AE4FA1436E
:100560000024D960596931435961AC493C60402647
:100570007C60BC60FC600C608021FF36C9058C6229
:10058000CE620C61A64E8034C8600C60486134684D
:100590002500802424022C4334600C6804430C6042
:1005A00062B6D46A0443D4628024566BA4003443F8
:1005B0005463FC221C68920122431A60994B1A6909
:1005C000114319619A68104207D045469A6815434D
:1005D00001229D6099680A42FCD18023914A5B0503
:1005E00091680B439360904B904A5A6000229A6046
:1005F00005321A608022520219681142FCD0002292
:100600001A608022874B120699680A439A609A689A
:10061000002AFCDB05225A6100220121DA609A6877
:100620000A439A6001237F491E000A68164013425C
:10063000FAD0FFF7E5FD002117A800F0F1FE1AA897
:1006400001F0D2F8794B8021984600230690FA20D9
:100650009C4600250524744A4000490243465360E5
:100660009560146013680B42FCD063460138136038
:100670000028F3D16E48FFF75FFD069B6D48002B05
:1006800000D06D48FFF758FD6C48FFF755FD142367
:100690009B466B4B0396019304339946694B5E4628
:1006A000029305339A465B4C5E4D04978022E369C2
:1006B0001A42FCD04C238022A362E3691A42FCD088
:1006C0003D23042100200422A3621D3BAB62AB68E2
:1006D0001343AB602B681A42FCD02B6C01391B050D
:1006E0001B0DC0180029F2D10323C217134018189C
:1006F00080100431FFF732FD202080220199E36948
:100700001A42FCD0A062013108784945F7D1102384
:10071000042100200422AB62AB681343AB602B685A
:100720001A42FCD02B6C01391B051B0DC018002987
:10073000F2D10323C2171340181880100431FFF7B9
:100740000DFD202080220299E3691A42FCD0A062AC
:10075000013108785145F7D14023042100200422BB
:10076000AB62AB681343AB602B681A42FCD02B6CB6
:1007700001391B051B0DC0180029F2D10323C21734
:100780001340181880100431FFF7E8FC8022E36959
:100790001A42FCD00D238022A362E3691A42FCD0E6
:1007A0000A23A362214B80219B46002364209846A4
:1007B0009C4605271C4A49025B465360634693608A
:1007C000176013680B42FCD04346013813600028C1
:1007D000F2D1013E002E00D068E71B48049F039E23
:1007E000FFF7AAFC40239A46203B9B46534604252C
:1007F0002CE0C0461C000020180000200010024021
:10080000FFFF02FF00200240FFFFF3FFFF3FFFFF5B
:1008100000040050003801400800002004000020BF
:1008200000E100E00024014010E000E0FF7C000057
:10083000A82B00081C2B00080C2B0008C02B00085C
:10084000302B0008382B0008E82B0008A24C01933D
:1008500002975B4604220020A362A3682B43A36097
:1008600023681D42FCD0236C013A1B051B0DC018E8
:10087000002AF2D10321C3171940102309180020C0
:100880008910A3620432A3682B43A36023681D422E
:10089000FCD0236C013A1B051B0DC018002AF2D1B5
:1008A000C31703321A404023121800270420921065
:1008B000A362A3682B43A36023681D42FCD0236C72
:1008C00001381B051B0DFF180028F2D10323F81770
:1008D0000340DB199B101EA800F066FD7F4B8021B2
:1008E0009A46002302209946984605277C4A4902E9
:1008F0005346536043469360176013680B42FCD025
:100900004B461360012801D03000F1E7019B013B09
:100910000193002B9DD1019B72489946029FFFF7DE
:100920000BFC0023029303930D930993032301937C
:10093000023B04936C4B059712936C4B10936C4BDA
:1009400011936C4B13936C4B14936C4B0A936C4B3D
:100950000B936C4B0C936C4B15936C4B0E936C4B35
:100960000F936C4B00241B69DB0704D5A023DB0528
:100970001B691B0622D4674B01259C46A023DB057F
:100980009B4680231F279A4600200526544A63462B
:100990001B691D4204D05B4651461B69194274D144
:1009A00080215760013490604902166013680B4241
:1009B000FCD01060EBE7584B09950393484605219E
:1009C00001F096FB01239944049B0C00012B00D1FC
:1009D00091E1002C00D1A7E0069B002B00D022E182
:1009E000039801F0C5FF0500029801F0C1FF040063
:1009F000C821E800401B0001401BC300C01849008B
:100A000001F07AFB0500E000001B0001001BC300A1
:100A1000C821C01801F070FB07992B180B600899CA
:100A2000421B0A600021059C21606160A160E160B9
:100A3000002B00DA0CE106D0FA2189008B4200DBA2
:100A4000364B05994B60002A00DAF8E006D0FA230D
:100A50009B009A4200DB314A059BDA600023049335
:100A60001E4B80210A2098460026002505241C4A9A
:100A70004902434653609560146013680B42FCD0F2
:100A8000013816600028F4D16BE7FA23DB009C42A2
:100A900094DD234B9C4200DDE2E0200001F088FF62
:100AA0000999051C01F01AFD1E49061C039001F06E
:100AB0003FFC002800D17AE1019B002B00DC12E30F
:100AC000013B0193FA231B019C4200DD30E300232C
:100AD0000995039372E7C04600240140FF7C0000A3
:100AE00010E000E00C2C0008402B0008542B0008FC
:100AF000582B00085C2B0008642B0008702B0008A2
:100B0000782B0008802B0008882B0008902B000809
:100B1000A42B000800040050000048C3E7030000B5
:100B200030110000000066436D2480210E98C54AF4
:100B3000D3691942FCD0C44B9462013004789842C6
:100B4000F6D1039801F014FF042105002024FFF7DB
:100B500005FB80210F98BB4AD3691942FCD0BB4BDF
:100B60009462013004789842F6D1029801F000FFB7
:100B7000042104002026FFF7F1FA80210A98B14AE7
:100B8000D3691942FCD0B24B966201300678984284
:100B9000F6D1079B1B689846089B40461F683900A2
:100BA000FFF752FB0678002E09D08021A54AD369B1
:100BB0001942FCD0966246780130002EF7D12026EB
:100BC00080210B989F4AD3691942FCD0A14B9662B1
:100BD000013006789842F6D104214046FFF7BEFA6C
:100BE000202680210C98974AD3691942FCD09A4B51
:100BF0009662013006789842F6D104213800FFF75A
:100C0000ADFA80218F4AD3691942FCD00D2380218F
:100C100093628C4AD3691942FCD00A239362069BE3
:100C2000002B00D1E4E61AA800F05EFE00221D9B16
:100C30000492002B00D1D3E6FFF7E2FA10E7FA2383
:100C40002D1A9B009D4200DB844D059B9D6005E7AE
:100C500083498B4200DAF2E05B4205990B60F2E6D1
:100C6000804B9C4200DDBFE0200001F0A1FE0D9909
:100C7000051C01F033FC7C49029001F059FB00286F
:100C800000D0D2E07949029801F03EFB002800D064
:100C9000CBE07749029801F04BFB002800D12CE211
:100CA000019B002B00DC25E2013B0193714B029379
:100CB0000D9583E600238021642000249C460526B0
:100CC0006D4A6E4D49026346556093601660136825
:100CD0000B42FCD0013814600028F4D1019B002B9A
:100CE00002DD019B013B01934846052101F000FA1A
:100CF00001230C0099442023042000250421604A8C
:100D0000936293680B43936013681942FCD0136C91
:100D100001381B051B0DED180028F2D10323E9173C
:100D20000B405B199E101023002504219362544A46
:100D3000043093680B43936013681942FCD0136C22
:100D400001381B051B0DED180028F2D10323E9170C
:100D50000B405B199B109C464023002504219362A5
:100D6000474A043093680B43936013681942FCD0E0
:100D7000136C01381B051B0DED180028F2D103235D
:100D8000EA1713405B19624631009B101EA800F061
:100D90000BFB002C00D17FE0069B002B00D059E11B
:100DA00017A91EA800F04AFB0123049358E62F4917
:100DB000301C01F0A9FA002800D07DE62C49301C37
:100DC00001F0B6FA002800D1B6E1019B002B00DC4F
:100DD00086E1013B0193FA231B019C4200DC85E183
:100DE000244B0D950393E9E5264B9C4200DC3BE147
:100DF000254B9C4200DC5DE7244B9C4200DC4DE12E
:100E0000019AD3179B1ADB0FD31A0193D6E5204919
:100E1000029801F079FA002800D17EE11D4902987C
:100E200001F086FA002800D177E1019B002B00DC5D
:100E300031E1013B019300230D950293BEE5074B81
:100E40000BE7C04600380140A02B0008A72B000884
:100E5000772B00087C2B0008842B0008E703000098
:100E600019FCFFFF581B000000006643000066C32A
:100E700000003E430000484310E000E0FF7C00001B
:100E800000240140E02E0000983A00005046000087
:100E900000007041000070C180211298BF4A6D347B
:100EA000D3691942FCD0BE4B946201300478984259
:100EB000F6D104211E98FFF751F9202480211098C3
:100EC000B64AD3691942FCD0B64B9462013004781B
:100ED0009842F6D104212798FFF740F92024802179
:100EE0001198AE4AD3691942FCD0AF4B94620130DD
:100EF00004789842F6D101212A98FFF72FF920248F
:100F000080211398A54AD3691942FCD0A74B94625B
:100F1000013004789842F6D104211F98FFF71EF99A
:100F20002024802110989D4AD3691942FCD09D4B02
:100F30009462013004789842F6D104212898FFF792
:100F40000DF9202480211198944AD3691942FCD0CC
:100F5000954B9462013004789842F6D101212B9888
:100F6000FFF7FCF82024802114988C4AD369194299
:100F7000FCD08F4B9462013004789842F6D1042162
:100F80002098FFF7EBF8202480210A98834AD36940
:100F90001942FCD0874B9462013004789842F6D114
:100FA000079B1C68089B20001D682900FFF74CF96F
:100FB0000678002E09D08021784AD3691942FCD0E6
:100FC000966246780130002EF7D1202680210B98BA
:100FD000724AD3691942FCD0774B96620130067889
:100FE0009842F6D120000421FFF7B8F82024802190
:100FF0000C986A4AD3691942FCD0704B9462013054
:1010000004789842F6D104212800FFF7A7F820249D
:1010100080211598614AD3691942FCD0684B9462CB
:10102000013004789842F6D101211898FFF796F81C
:1010300080215A4AD3691942FCD00D238021936242
:10104000564AD3691942FCD00A239362069B002BAF
:1010500000D1A5E61AA800F047FC1D9B002B00D18B
:101060009EE601230493E7E50023802164209C464B
:1010700000260524534A544D490255609660146079
:1010800013680B42FCD06346013813600028F4D18A
:101090000223019392E4002302938FE40023802132
:1010A000642000249C460526464A474D4902634673
:1010B00055609360166013680B42FCD001381460D1
:1010C0000028F4D1019B002B02DD019B013B019321
:1010D0004846052101F00CF801230C00994478E4FE
:1010E0003A4B03936AE40023039367E4374B099573
:1010F000039363E4354B029360E43549029801F0B1
:1011000003F9002800D182E6019B002B0DDD013B95
:101110000193304B0D95029350E4019B834200DC18
:101120004CE4013B01930D9548E42A4B029345E4BE
:1011300000230D95039341E42549039801F0E4F859
:10114000002812D12449039801F0DEF800281DD1AF
:10115000019B002B00DC31E4013B0193FA231B01CE
:101160009C4200DDA4E5099528E4019B002B0ADDE3
:10117000013B0193FA231B019C4200DC1BE4154B4D
:101180000D9503931AE4134B039317E41349039843
:1011900001F0CEF80028DBD08EE4C04600380140D4
:1011A000502B0008572B00085B2B0008632B00080E
:1011B0006C2B0008772B00087C2B0008842B000880
:1011C0008C2B000810E000E0FF7C0000000048438A
:1011D00000003EC3000048C300007041000070C121
:1011E000FEE7C046FEE7C0460121294A13680B43CB
:1011F0001360033113681942FCD001230C21D36022
:10120000234AD3680B40042BFBD10220214B1968E1
:101210000143196019680138014319608023916BFB
:101220005B050B439363802310211B4A1B01136052
:1012300053681942FCD1164B1849DA680A40DA6043
:101240008822D968D2030A43DA60DA681449DA607E
:10125000DA68DA60DA68DA601A680A401A608022AE
:10126000196852040A4380211A6089041A680A42E4
:10127000FCD00321DA688A43DA60DA680A43DA606C
:101280000C220349CB6813400C2BFBD17047C0469E
:10129000001002400020024000700040FFFF02FFEB
:1012A000FFFFFFFEF0B5C646032400B51960069B9C
:1012B00090461B68099E5D00ED186D18079BEF179F
:1012C0003C401A686419A410944230DA3168131B48
:1012D000002930D1984510DC0122984507DC069999
:1012E0000C6008990B60326080BCB846F0BD80216C
:1012F0000022C9018D427A41F1E78023DB019D4242
:1013000020DA0F281BD910210F205043001900F0BC
:10131000F3FE079B18603268031B844200DB231A2C
:10132000002AD9D00122632BD9DC0022D7E731680B
:10133000A31A0029CED0632BF4DC0F28E3D80821B0
:101340000720E2E7131B9442C6DBA31AC4E7C0469A
:1013500000B5002283B0401A502803DCD22252008C
:10136000503008DBD22368465B0000920193FFF700
:101370002FF803B000BD0023684600920193FFF7E9
:1013800027F8F6E70023036043608360C3600361CE
:1013900043618361C361036243628362C362036327
:1013A00043638363C3637047F0B51E00030004000A
:1013B00085B03033C56B03930C3B02930C3B019318
:1013C0000C3B17000093C82203002800FFF76AFFB8
:1013D0002200343203920C3A02920C3A01920C3AF7
:1013E00039002800231D0092C822FFF75BFF22006E
:1013F0002300383203920C3A02920C3A01920C3AD2
:101400000833009231002800044AFFF74BFF6B1CA1
:1014100001D00135E56305B0F0BDC0460F270000DF
:101420000122044B01701A700023034A43601370B9
:1014300083607047000000202000002030B54E4D32
:1014400004002B78826883B0022B16D0032B09D0BE
:10145000012B1BD1642A25DC00238B6003CCFFF712
:1014600077FF08E041680068FFF772FF2368C82B28
:1014700014DD01232B7003B030BD404B1B78642A70
:1014800034DC00228A60032BF3D12A70002200236F
:10149000684600920193FEF79BFFECE76368C82B58
:1014A000E7DCE8E78A68002AD8D14A688B60072A17
:1014B00056DC531C08784B60314BC0001B189B5CFA
:1014C0002E4C002223700023684600920193FEF701
:1014D0007FFFC8204000FEF701FF23785A1E012A33
:1014E00026D9032BC5D100232B70C4E7022B0CD0C7
:1014F000032BCBD0012B11D19623224A9B006846A7
:1015000000920193FEF764FFB5E796221D4B92000F
:10151000684600920193FEF75BFFACE7D222D2232C
:1015200052005B00684600920193FEF751FFA2E76C
:10153000022B17D09623134A9B0068460092019312
:10154000FEF746FFE1208000FEF7C8FE00230022E0
:10155000684600920193FEF73BFF01232B708AE758
:101560000323ADE79622074B920068460092019351
:10157000FEF72EFFE6E7C046000000202000002016
:10158000302C0008A8FDFFFF30B5204B0D0020498E
:101590008446CB6101230B601E4B02204B608023ED
:1015A0004A689B0113431C4C1C4A4B6004E02342D5
:1015B00026D1013A002A23D08B691842F7D063461E
:1015C00002248B62154A1248134904E00B4217D1DA
:1015D000013A002A14D083691C42F7D085620F4A71
:1015E00020200B490C4C04E0234209D1013A002A87
:1015F00006D08B691842F7D0044B0120CB6103E081
:101600000020034B014ADA6130BDC04630170000AC
:1016100000540040520002021017000020A10700F1
:101620002D4B84462D4830B5C361012303602C4BFC
:101630000D004360802342689B0113430221294A25
:10164000294C436004E0234241D1013A002A3ED0B4
:1016500083691942F7D0634620248362214A1F48D8
:10166000214904E00B4232D1013A002A2FD083698C
:101670001C42F7D0184B1949C361012303601B4B6F
:10168000194C4360802342689B0113434360154A11
:10169000042004E023421AD1013A002A17D08B69B2
:1016A0001842F7D04B6A20202B7010230D4ACB61D3
:1016B0000D4C0A4904E0234209D1013A002A06D020
:1016C0008B691842F7D0044B0120CB6103E0002066
:1016D000024B014ADA6130BD30170000005400406F
:1016E0005200010220A1070010170000520401025D
:1016F000374B8446374830B5C36101230360364B0E
:101700000D004360802342689B0113430221334A4A
:10171000334C436004E0234254D1013A002A51D0B3
:1017200083691942F7D06346202483622B4A2948F3
:101730002B4904E00B4245D1013A002A42D083698B
:101740001C42F7D0224B2349C36101230360254B80
:10175000234C4360802342689B01134343601F4A2C
:10176000042004E023422DD1013A002A2AD08B69BB
:101770001842F7D04B6A04201B029C46174A1549B1
:10178000174C2B8004E023421CD1013A002A19D0C7
:101790008B691842F7D062464B6A20201A43102307
:1017A0002A800F4CCB610D4A0A4904E0234209D13B
:1017B000013A002A06D08B691842F7D0044B012069
:1017C000CB6103E00020034B014ADA6130BDC04623
:1017D00030170000005400405200010220A1070011
:1017E0001017000052040202F0B50022C6460500A0
:1017F00000B5028042608260C2600120A024334BA9
:10180000E405D96A80460143D96221683048014025
:10181000216080212668C9013143802621606168EA
:10182000B1436160A1680F00C02109023943A16082
:10183000E16801400220E160A662D96A0143D962F1
:101840008021986B890301439963224B22481968D0
:101850000140196019680F00A0210902394319607D
:10186000196A0902090A1962196A0F0088214905D3
:101870003943C02719625968394359609968014052
:10188000996099680F00A021C90139439960D9680E
:101890000140D960114B05201A60114A1A61114AA2
:1018A000DA61FEF71BFD0A20A661FEF717FD00F0C6
:1018B00077F8002802D180BCB846F0BD00F02CFBC0
:1018C0000028F8D0434601206B60F4E70010024086
:1018D000FF3FFFFF00040050FF0FFFFF00540040D8
:1018E000130F42703017000010B5040082B00028BA
:1018F00002D04368002B01D102B010BD00F040FBC4
:101900000028F9D06B46981D00F04EFB00280DD042
:101910006B46DA88074B2280D318591E8B41C721AA
:10192000A360002391425B41E360E5E7A060E060D3
:10193000E2E7C04602E0FFFF30B583B06B46DC1D36
:1019400000230500237001281AD001214125012020
:10195000FFF71AFE002810D029000020FFF714FE20
:1019600000280AD0072502E023781D420AD1210071
:101970001320FFF755FE0028F6D1002003B030BD3C
:101980000221E4E701210B20FFF7FEFD0028F4D03F
:1019900000210020FFF7F8FD431E9841C0B2EDE79B
:1019A000F0B583B06B460025DC1D2100C0202570FA
:1019B000FFF736FE002812D02378EE2B0FD121003E
:1019C00089202570FFF72CFE002808D001232178FC
:1019D000892019432170FFF7D7FD002802D100208C
:1019E00003B0F0BD00218820FFF7CEFD01210700E4
:1019F0008020FFF7C9FD01210600FF20FFF7C4FD8D
:101A0000002106400020FFF7BFFD0D490640912050
:101A1000FFF706FE012106400020FFF7B5FD00217B
:101A20000640FF20FFF7B0FD002106408020FFF7B1
:101A3000ABFD3A00531E9A4130401042CFD001E036
:101A4000210000200121FF20FFF79EFD002107005B
:101A50000020FFF799FD06000021FF20FFF794FD0D
:101A6000330003401E0000210920FFF78DFD3300E5
:101A700003401E0000211020FFF786FD33000340C5
:101A80001E0000211120FFF77FFD330003401E00E0
:101A900001212420FFF778FD330003401E00FF21C1
:101AA0002520FFF771FD330003401E000021752043
:101AB000FFF76AFD330003401E000121FF20FFF7FE
:101AC00063FD330003401E002C214E20FFF75CFD18
:101AD000330003401E0000214820FFF755FD33006E
:101AE00003401E0020213020FFF74EFD330003404D
:101AF0001E000021FF20FFF747FD330003401E00BA
:101B000009213020FFF740FD330003401E00002173
:101B10005420FFF739FD330003401E00042131201B
:101B2000FFF732FD330003401E0003213220FFF790
:101B30002BFD330003401E0083214020FFF724FDCE
:101B4000330003401E0025214620FFF71DFD330012
:101B500003401E0000216020FFF716FD3300034004
:101B60001E0000212720FFF70FFD330003401E0059
:101B700006215020FFF708FD330003401E0000211E
:101B80005120FFF701FD330003401E009621522033
:101B9000FFF7FAFC330003401E0008215620FFF730
:101BA000F3FC330003401E0030215720FFF7ECFC0C
:101BB000330003401E0000216120FFF7E5FC3300E5
:101BC00003401E0000216220FFF7DEFC33000340CB
:101BD0001E0000216420FFF7D7FC330003401E00E5
:101BE00000216520FFF7D0FC330003401E00A02138
:101BF0006620FFF7C9FC330003401E000121FF20CF
:101C0000FFF7C2FC330003401E0032212220FFF701
:101C1000BBFC330003401E0014214720FFF7B4FC37
:101C2000330003401E00FF214920FFF7ADFC3300C5
:101C300003401E0000214A20FFF7A6FC33000340AA
:101C40001E000021FF20FFF79FFC330003401E0011
:101C50000A217A20FFF798FC330003401E00002180
:101C60007B20FFF791FC330003401E0021217820E8
:101C7000FFF78AFC330003401E000121FF20FFF71D
:101C800083FC330003401E0034212320FFF77CFC3B
:101C9000330003401E0000214220FFF775FC330093
:101CA00003401E00FF214420FFF76EFC3300034079
:101CB0001E0026214520FFF767FC330003401E006D
:101CC00005214620FFF760FC330003401E00402141
:101CD0004020FFF759FC330003401E0006210E2070
:101CE000FFF752FC330003401E001A212020FFF7AB
:101CF0004BFC330003401E0040214320FFF744FC0F
:101D0000330003401E000021FF20FFF73DFC33009D
:101D100003401E0003213420FFF736FC330003404C
:101D20001E0044213520FFF72FFC330003401E0026
:101D30000121FF20FFF728FC330003401E0004218F
:101D40003120FFF721FC330003401E0009214B2006
:101D5000FFF71AFC330003401E0005214C20FFF75B
:101D600013FC330003401E0004214D20FFF70CFC40
:101D7000330003401E000021FF20FFF705FC330065
:101D800003401E0000214420FFF7FEFB3300034008
:101D90001E0020214520FFF7F7FB330003401E0003
:101DA00008214720FFF7F0FB330003401E002821E5
:101DB0004820FFF7E9FB330003401E0000216720A5
:101DC000FFF7E2FB330003401E0004217020FFF701
:101DD000DBFB330003401E0001217120FFF7D4FB21
:101DE000330003401E00FE217220FFF7CDFB3300BD
:101DF00003401E0000217620FFF7C6FB330003409E
:101E00001E0000217720FFF7BFFB330003401E00B8
:101E10000121FF20FFF7B8FB330003401E00012122
:101E20000D20FFF7B1FB330003401E000021FF200F
:101E3000FFF7AAFB330003401E0001218020FFF7BB
:101E4000A3FB330003401E00F8210120FFF79CFB99
:101E5000330003401E000121FF20FFF795FB3300F4
:101E600003401E0001218E20FFF78EFB330003404C
:101E70001E0001210020FFF787FB330000210340F3
:101E8000FF201E00FFF780FB002106408020FFF7A7
:101E90007BFB3B005A1E93413040184200D19EE527
:101EA00004210A202570FFF76FFB002800D196E57A
:101EB00021008420FFF7B4FB002800D18FE5102318
:101EC0002178842099432170FFF75EFB002800D120
:101ED00085E501210B20FFF757FB002800D17EE5A7
:101EE000E8210120FFF750FB002800D177E5002012
:101EF000FFF722FD002800D171E50120FFF71CFD4E
:101F0000002800D16BE5E8210120FFF73DFB431ECF
:101F10009841C0B264E5C04670B501218020FFF74A
:101F200033FB01210500FF20FFF72EFB00210400F9
:101F30000020FFF729FB114B044019789120FFF78F
:101F400023FB012104400020FFF71EFB0021044079
:101F5000FF20FFF719FB002104408020FFF714FB4E
:101F60002B005A1E9341044000201C4205D0022140
:101F7000FFF70AFB431E9841C0B270BD210000204C
:101F800000B583B06B461320D91DFFF749FB002332
:101F9000002806D06B46DA79072313405A1E934176
:101FA000DBB2180003B000BD10B5010004001E2014
:101FB000FFF79EFB002800D110BD01210B20FFF789
:101FC000E3FA0028F8D02388044A9B18012B01D992
:101FD0000120F1E7024B01202380EDE702E0FFFF43
:101FE000FE1F0000002243088B4274D303098B427A
:101FF0005FD3030A8B4244D3030B8B4228D3030CD9
:102000008B420DD3FF22090212BA030C8B4202D37A
:102010001212090265D0030B8B4219D300E0090AA2
:10202000C30B8B4201D3CB03C01A5241830B8B42AB
:1020300001D38B03C01A5241430B8B4201D34B0394
:10204000C01A5241030B8B4201D30B03C01A5241F9
:10205000C30A8B4201D3CB02C01A5241830A8B427E
:1020600001D38B02C01A5241430A8B4201D34B0267
:10207000C01A5241030A8B4201D30B02C01A5241CB
:10208000CDD2C3098B4201D3CB01C01A524183097F
:102090008B4201D38B01C01A524143098B4201D3B9
:1020A0004B01C01A524103098B4201D30B01C01AE4
:1020B0005241C3088B4201D3CB00C01A524183085E
:1020C0008B4201D38B00C01A524143088B4201D38B
:1020D0004B00C01A5241411A00D2014652411046EB
:1020E0007047FFE701B5002000F0F0F802BDC046E0
:1020F0000029F7D076E7704703460B437FD40022D0
:1021000043088B4274D303098B425FD3030A8B428B
:1021100044D3030B8B4228D3030C8B420DD3FF22F5
:10212000090212BA030C8B4202D31212090265D0C3
:10213000030B8B4219D300E0090AC30B8B4201D376
:10214000CB03C01A5241830B8B4201D38B03C01ABD
:102150005241430B8B4201D34B03C01A5241030B34
:102160008B4201D30B03C01A5241C30A8B4201D3E5
:10217000CB02C01A5241830A8B4201D38B02C01A90
:102180005241430A8B4201D34B02C01A5241030A07
:102190008B4201D30B02C01A5241CDD2C3098B42EC
:1021A00001D3CB01C01A524183098B4201D38B0169
:1021B000C01A524143098B4201D34B01C01A52410C
:1021C00003098B4201D30B01C01A5241C3088B4251
:1021D00001D3CB00C01A524183088B4201D38B003C
:1021E000C01A524143088B4201D34B00C01A5241DE
:1021F000411A00D201465241104670475DE0CA0FB5
:1022000000D04942031000D34042534000229C4674
:1022100003098B422DD3030A8B4212D3FC2289017E
:1022200012BA030A8B420CD3890192118B4208D354
:10223000890192118B4204D389013AD0921100E0B6
:102240008909C3098B4201D3CB01C01A52418309CA
:102250008B4201D38B01C01A524143098B4201D3F7
:102260004B01C01A524103098B4201D30B01C01A22
:102270005241C3088B4201D3CB00C01A524183089C
:102280008B4201D38B00C01A5241D9D243088B42F2
:1022900001D34B00C01A5241411A00D20146634695
:1022A00052415B10104601D34042002B00D54942F9
:1022B000704763465B1000D3404201B5002000F038
:1022C00005F802BD0029F8D016E770477047C046F0
:1022D000844608006146FFE71FB500F0AFF800280C
:1022E00001D40021C8421FBD10B500F02BF84042B8
:1022F000013010BD10B500F0A1F8002801DB00206E
:1023000010BD012010BDC04610B500F097F80028A0
:1023100001DD002010BD012010BDC04610B500F049
:102320003DF8002801DC002010BD012010BDC04692
:1023300010B500F033F8002801DA002010BD0120AC
:1023400010BDC04630B543024200C50F48025B0ACB
:10235000440A48009C46120E000EC90FFF2A11D0F5
:10236000FF280CD0012382420AD1A44508D18D4216
:1023700011D0002A04D163465A1E934100E0012384
:10238000180030BD0123FF28FAD162462243F7D15D
:102390002B004B40F4E70023F2E7C04643025B0A00
:1023A00042009C46C30F480210B5440A4800120E72
:1023B000000EC90FFF2A1AD0FF280BD0002A24D103
:1023C000624600281ED1002C2ED0002A32D14800AF
:1023D00001380BE0002C2AD1002A02D16246002AE3
:1023E000F5D08B421DD001205B42184310BD6246E0
:1023F000002A1CD1FF28F6D1002C18D120008B42D6
:10240000F1D1F3E7002AE2D0EBE70028EBD08B42D2
:10241000E9D18242E7DC04DBA445E4D80020A445EE
:10242000E4D258000138E1E7002ADFD0DBE70220E0
:102430004042DBE78B42D6D1EEE7C04643025B0A5F
:1024400042009C46C30F480210B5440A4800120ED1
:10245000000EC90FFF2A15D0FF280BD0002A1AD171
:10246000624600281DD1002C22D0002A32D148001B
:1024700001380FE0002C0CD1002A14D16246002A4A
:10248000F5D010E06246002A03D1FF2805D1002CC8
:102490001CD0022010BD00280DD101205B42184342
:1024A000F8E7002AE3D08B42F7D158000138F1E772
:1024B000002AEFD0F1E78B42EFD18242EDDCF4DB72
:1024C000A445EAD80020A445E4D2EEE720008B42E0
:1024D000E3D1DFE78B42E0D1F2E7C046F0B5C64674
:1024E00047027B0A4A0245009C46C40F530A480033
:1024F000984600B52D0EBF09000ECE0F9209FF2899
:1025000000D171E001235E402B1AB4423CD0002B75
:1025100000DC9CE1002800D1A3E0FF2D00D18BE07E
:102520008021C9040A431B2B00DCFBE0013F7B0137
:1025300000D47BE001277F42BF01B9090E000800EB
:1025400000F07EFA330005388340854200DCD2E09B
:10255000B44F2D1A1F405A0700D1F6E00F22134046
:10256000042B00D1F1E004377B0100D4EDE0681CBE
:10257000FE2D00D090E0FF200022C0051043E407AC
:10258000204380BCB846F0BD002B00DC77E100287A
:102590006FD1002A4CD0591E012B00D146E1FF2BF0
:1025A0004AD01B296ADC0B0011002020D940C31A35
:1025B0009A40531E9A410A43BF188023DB041F42EE
:1025C00000D1BBE00135FF2DD5D0974A79081140E5
:1025D000012217400F437A0700D09AE01F42C6D16C
:1025E000FB089C462B004DE02B00FF3B002A2ED120
:1025F00001214E40B44200D1B4E0002B50D0002D58
:1026000000D0EAE0FF23002F00D1FAE0591E012B91
:1026100000D15CE1FF2B00D13DE11B2900DC22E170
:10262000571E340005007B0100D583E72B000437DB
:10263000FA089446FF2B25D16346002B9BD08022BD
:102640006346D2031A435202FF20520A95E7B4426E
:1026500000D1A4E0002B23D0002DD3D0C4463400F9
:10266000EDE7002AE4D0012B39D0FF2BE4D0013B69
:1026700059E7FF2DE0D01B2B00DCA6E00537FB0857
:102680009C462B0062465202520AD8B275E70120DE
:102690003A007B0100D43FE1C0B2BA01520A6CE7B4
:1026A000FE216B1C194252D1002D00D0ACE0002F4E
:1026B00000D11AE1002A00D1F4E08021BB1AC9043C
:1026C0000B4200D13CE10124D71B3440002F46D0FF
:1026D00001200F42E1D1FB089C460023D2E7BF1A3C
:1026E0007A0100D4DAE0BD01A80900F0A9F9AB092C
:1026F0000538834001252022401B0130121A1F009B
:102700009340C7405A1E93411F4328D000257B07A2
:10271000BDD00F233B40042B00D024E77B0100D524
:1027200025E75DE711002020D940C31A9A40531EC7
:102730009A410A43BF1A7B0100D5FDE67B0704D00E
:102740000F233B40042B00D00DE72B0070E7BB1A92
:1027500019005B0162D4002900D0EFE600240020BC
:1027600000220AE7002B1CD0002D00D003E7FF2336
:10277000002F47D0591E012B58D0FF2B00D18BE0E2
:102780001B2900DD90E00B0039002025D940EB1A11
:102790009F407B1E9F410F430500BF180DE7002B94
:1027A00017D1FE216B1C19421BD1002D00D080E0F7
:1027B000002F00D1AEE0002A74D0BA18530100D423
:1027C000AAE092010120520AD7E68021C9040A43F7
:1027D000EAE6002DCBD0C44631E73400FF200022CA
:1027E000CBE6FF2B00D1C6E6BA185208510705D038
:1027F0000F21171D1140042900D019E7D208944673
:1028000040E73400170013E7002F75D1002A00D0ED
:102810009DE080220024FF20D203AEE60124D11BDC
:1028200034408BE6FFFFFFFBFFFFFF7DBB185A0123
:1028300000D494E04D4A5B081A40590700D192E059
:102840000F210B40042B6ED00223171DF0E6002B46
:1028500000D125E7411B0B00002D00D1D3E68023DA
:10286000DB041F43D9E63B002024CB40611A8F4094
:10287000791E8F411F4334000500D71B5BE7002BF7
:102880008FD0431B002D00D172E71B2B0CDC802165
:10289000C9040F4378E73400C446CDE6FB089C46E4
:1028A0000123EFE60023EDE60532D3089C46030042
:1028B000E8E6002FF0D0002A37D08023DB039C45C8
:1028C00000D2BCE6984500D3B9E6C446B7E6D31BB0
:1028D0005A0130D59B019C09200000F0B1F823007B
:1028E000053883403400012505E7002A18D001246B
:1028F0000023C4463440C5E6002A16D08023DB03FB
:102900009C4500D29BE6984500D398E60124C44636
:10291000344094E6002A04D0D3089C460023B1E654
:102920000024002029E6023B68E780226346D203A8
:10293000FF201A4321E6DB089C4634000123A1E670
:10294000002B00D10AE7DB089C4600239AE6802290
:1029500043460124D203FF201A4334400DE6DB082E
:102960009C4601238EE6022348E7C046FFFFFF7D19
:1029700041024200C30F490A0020120E7E2A03DDE5
:102980009D2A02DD094A98187047802000040143FF
:10299000952A07DC9620821AD1404842002BF3D1B9
:1029A0000800F1E7963A9140F7E7C046FFFFFF7F46
:1029B00070B5002813D0C317C5185D40C40F280098
:1029C00000F03EF89E2301001B1A07280EDD0828A0
:1029D00030D008398D406D026D0AD8B201E0002474
:1029E0000025C0052843E407204370BD042816DDF8
:1029F000052801D0421F9540104A2A4068070AD096
:102A00000F202840042806D00432500103D50B4B78
:102A10001A409F235B1A9201550AD8B2E1E70200DF
:102A200028001B329040421E90410522521AD54088
:102A30000543E1E76D0296206D0AD2E7FFFFFFFB39
:102A40001C2101231B04984201D3000C10391B0ADE
:102A5000984201D3000A08391B09984201D30009A2
:102A6000043902A2105C40187047C04604030202F9
:102A700001010101000000000000000053544F500C
:102A800000000000464F52574152440056454552FF
:102A90005F52494748540000564545525F4C4546F1
:102AA000540000005245565F524947485400000008
:102AB00052455645525345004152435F524947489B
:102AC000540000005455524E5F524947485400008C
:102AD0005049564F545F5249474854005049564F49
:102AE000545F4C45465400005455524E5F4C454689
:102AF000540000004152435F4C4546540000000022
:102B00005245565F4C45465400000000546F462025
:102B1000696E6974204F4B0D0A000000546F462007
:102B2000696E6974204641494C45440D0A00000015
:102B30002020523D00000000202049583D000000A8
:102B40006D6F64653D4155544F207C204C20723D93
:102B50000000000020733D0020643D00207C2052D6
:102B600020723D00207C20495820723D000000006A
:102B7000207C206469723D00206C633D00000000F1
:102B80002072633D000000002069783D00000000D5
:102B90006D6F64653D52454D4F5445207C20783D16
:102BA0000000000020793D00526F626F7420737442
:102BB000617274696E672075702E2E2E0D0A0000EA
:102BC0002D2D2D20524157204144432044554D5036
:102BD00020286E6F2066696C746572696E672920A3
:102BE0002D2D2D0D0A0000002D2D2D20454E4420A9
:102BF00044554D502C207374617274696E67207750
:102C000061726D7570202D2D2D0D0A005761726D4A
:102C1000757020646F6E652E20456E746572696EE6
:102C200067206D61696E206C6F6F702E0D0A000059
:102C30000001020303030303010201020000030376
:082C4000020002010201000381
:042C48000100000087
:04000005080000B936
:00000001FF
