:020000040800F2
:1000000000200020B9000008A9100008AD10000869
:1000100000000000000000000000000000000000E0
:10002000000000000000000000000000A91000080F
:100030000000000000000000A9100008A91000083E
:10004000A9100008A9100008A9100008A9100008AC
:10005000A9100008A9100008A9100008A91000089C
:1000600000000000A9100008A9100008A91000084D
:10007000A9100008A91000080000000045040008AD
:1000800000000000A91000080000000000000000AF
:10009000A910000800000000A9100008A91000081D
:1000A000A9100008A9100008A9100008A91000084C
:1000B000A9100008A910000800F0FAFF184B194A0F
:1000C00093420ED2013AD41A0022A408601C164DA5
:1000D0008000A958995004328242FAD1A400043316
:1000E000E318124A934209D20321013AD21A8A43F1
:1000F000191D5218002102C39342FCD10C4D0D4B27
:100100009D4209D20024013B5E1BB608013608CD92
:1001100001349847B442FAD100F0F4F9FEE7C04642
:1001200000000020000000206C16000824000020C1
:100130006C1600086C16000810B50478002C09D065
:100140008021054AD3691942FCD094624478013079
:10015000002CF7D110BDC04600380140F0B5C646AE
:1001600000B50D0084B0002815DB061E1CD130231D
:1001700001AE337001246B46DF1CAC422CDB8021C6
:100180001E4A3F193C78D3691942FCD09462BE42A2
:1001900030D0013FF6E78021184AD3691942FCD0DC
:1001A0002D2346429362013D6B460024DF1C01343F
:1001B0003B19984630000A2101F05EF84346303181
:1001C000197030000A2100F0D1FF33000600092B1E
:1001D000EDD801AEAC42D2DA80202021074AD369A3
:1001E0001842FCD0013D9162A542F8D18021034A1A
:1001F0003F19C7E704B080BCB846F0BD00380140E5
:1002000000220E4B01201A605A609A60DA60A02327
:10021000DB0559690143596159690130014359614D
:1002200059690230014359615969043001435961E8
:10023000034B1A60034B1A607047C0460C00002045
:10024000200000201C00002010B5022816D0032832
:1002500011D0194B012821D18221184A49001A6076
:100260000022174B1960174B1A605A609A60DA60C7
:100270005960996010BDFFF7C3FFFBE782210E4B69
:10028000490019600D4A0E4B1A6000220D4B1A608E
:100290005A609A60DA601960D960EBE78222002127
:1002A00052001A60064B1A60064B1960596099603B
:1002B000D9601A609A60DDE720000020FCFEFFFF95
:1002C0001C0000200C000020401A0300223310B54F
:1002D000442B0DD903005A331DDB5A2827DC822317
:1002E0005B001B1A0530FF309C461C00010004E037
:1002F000822149000C0008008C460022114B1A6034
:100300005A609A60DA60104A1C60106060460F4ABA
:100310009960106010BDAF2400220A4B64001A607F
:10032000AA215A60A4469A60AA20DA60EBE78223E9
:100330005A205B001B1A0530FF309C461C00010050
:10034000DBE7C0460C0000201C000020200000203D
:1003500010B5002804D0002912D0FFF751FF10BDBE
:100360000029FAD0FA21AA220C4B19600C4B1A6012
:100370000C4B186058609860D86019609A60EEE77E
:10038000AA20FA22054B1860054B1A60054B19602C
:1003900059609960D96018609A60E0E720000020F9
:1003A0001C0000200C000020F8B5032447469046AE
:1003B0004268CE4653009B185B18DA171440E418C5
:1003C0000F23466980B5B3429B410F000821050009
:1003D00080681940A4100731844225DD2A69231A58
:1003E0009146002A25D0632B26DC484301310019B1
:1003F00000F046FFA860031B844200DD231A4A4632
:10040000002A19D14046D917C20F83424A41D2B2BD
:100410002F606C60EB602A61731C01D0731C6B61F0
:10042000C0BCB946B046F8BD2A69031B9146002AF4
:10043000D9D19845E6DDD8E70122632BE7DC00221D
:10044000E5E7C04680220121D205136910B58B4330
:1004500013612A4A13689C46294B1868844544D97D
:10046000A020C005844640698843614648615068C1
:100470001968884232D9A0200224C0054169A143ED
:10048000416190681968884221D9A0200424C005E0
:100490004169A1434161D1681A68914210D9A021F4
:1004A0000820C9054A6982434A611A6801321A6004
:1004B000FA2219689200914201D300221A6010BDFD
:1004C000A0210820C9054A6902434A61EDE7A0203E
:1004D0000424C005416921434161DCE7A0200224D6
:1004E000C005416921434161CBE7A020C005844696
:1004F0004069014360464161B9E7C0460C000020F5
:1005000008000020F0B5DE4657464E46454602221A
:100510000023E0B5DE49B5B000910A700121DD4A43
:10052000239313601492DC4A249313601592DB4AE0
:1005300026931360279329932A932C932D932F931B
:10054000309332933393D64B16921A680A431A604B
:10055000042219680A42FCD0DA68D2490A40DA60FB
:100560008822D968D2030A43DA60802219685204CB
:100570000A431A608022CA4B920419681142FCD0C7
:100580000120C9490A6802430A600321DA680A4364
:10059000DA60C34A0931D3680B400C2BFBD1012030
:1005A000D36AC24C0343D3628023516BDB010B43FC
:1005B0005363A023DB05196855252140196080216C
:1005C0001C6809032143F0241960596AA143596248
:1005D000596AB03C21435962B549D634CC600E3CCF
:1005E000FF3C0C60D16AF6340143D162916B014348
:1005F00091631968A1431960196829431960596802
:10060000463DA9435960996821439960D968A1433F
:100610000024D960596929435961A64940250C60D5
:100620004C608C60CC60A449FF350C608021C9050A
:100630008C62CD620C618034C8600C6080249F4D58
:1006400048612E68240234432C600C6804430C601B
:1006500062B6D46A0443D4628024556BA4002C4350
:100660005463FC221C68920122431A60944B1A695D
:10067000114319619A68104207D0022299680A430F
:100680009A60012299680A42FCD180238C4A5B055A
:1006900091680B4393608B4B8B4A5A6000229A609F
:1006A00005321A608022520219681142FCD00022E1
:1006B0001A608022824B120699680A439A609A68EF
:1006C000002AFCDB05225A6100220121DA609A68C7
:1006D0000A439A6001237A491E000A6816401342B1
:1006E000FAD0FFF78DFD784BFA2080219C46002739
:1006F00000250524734A4000490263465360956013
:10070000146013680B42FCD0013817600028F4D144
:100710006E48FFF711FD6E48FFF70EFD14239B4650
:100720006C4B634C0293043398466B4B644D0393BC
:100730005F1D5B46049601938022E3691A42FCD058
:100740004C238022A362E3691A42FCD03D2304219A
:1007500000200422A3622D3BAB62AB681343AB6065
:100760002B681A42FCD02B6C01391B051B0DC018DD
:100770000029F2D10323C217134018188010043146
:10078000FFF7ECFC202080220299E3691A42FCD09A
:10079000A062013108784145F7D1202304210020CF
:1007A0000422AB62AB681343AB602B681A42FCD0E7
:1007B0002B6C01391B051B0DC0180029F2D1032336
:1007C000C2171340181880100431FFF7C7FC20200F
:1007D00080220399E3691A42FCD0A06201310878B3
:1007E000B942F7D14023042100200422AB62AB6858
:1007F0001343AB602B681A42FCD02B6C01391B05EC
:100800001B0DC0180029F2D10323C217134018187A
:1008100080100431FFF7A2FC8022E3691A42FCD069
:100820000D238022A362E3691A42FCD00A23A3624B
:10083000254B80219B46002364209A469946052635
:10084000204A49025B4653604B469360166013682A
:100850000B42FCD05346013813600028F2D1019BB3
:10086000013B0193002B00D066E71C48049EFFF774
:1008700063FC40230193303B9B460425104C5B46B0
:1008800004220021A362A3682B43A36028E0C04692
:100890000400002000000020200000201C00002098
:1008A00000100240FFFF02FF00200240FFFFF3FFA5
:1008B000003801400C0000200800002000E100E0AA
:1008C0000024014010E000E0FF7C00005815000803
:1008D00070150008581400086014000898150008E6
:1008E00023681D42FCD0236C013A1B051B0DC9185F
:1008F000002AC8D10323CA1713405918C8228910E7
:1009000022A8FFF751FD202304220021A362A3683F
:100910002B43A36023681D42FCD0236C013A1B05C6
:100920001B0DC918002AF2D10323CA171340591806
:10093000C822891028A8FFF737FD40230422002190
:10094000A362A3682B43A36023681D42FCD0236CE1
:10095000013A1B051B0DC918002AF2D10323CA173F
:1009600013405918744A89102EA8FFF71DFD734BC8
:1009700080219A4600230220994698460527704A0E
:1009800049025346536043469360176013680B4215
:10099000FCD04B461360012801D03000F1E7019BE9
:1009A000013B0193002B00D069E76648FFF7C4FBC9
:1009B000002306930293059309931893624B042531
:1009C0000A93624B624C0893624B0393033398463D
:1009D000614B0493DF1C614B0B93614B0C93614B98
:1009E0001293614B1993614B1393614B1793614BB6
:1009F0001D93614B2193614B2093614B1B93614B82
:100A00001A93614B1F93614B1E93614B0D93614B86
:100A10000E93614B0F93614B1093614B1193614B9C
:100A20001C93019B9A46102304220021A362A36811
:100A30002B43A36023681D42FCD0236C013A1B05A5
:100A40001B0DC918002AF2D10323CA1713405918E5
:100A5000C822891022A8FFF7A7FC20230422002126
:100A6000A362A3682B43A36023681D42FCD0236CC0
:100A7000013A1B051B0DC918002AF2D10323CA171E
:100A800013405918C822891028A8FFF78DFC40236D
:100A900004260022A362A3682B43A36023681D429F
:100AA000FCD0236C013E1B051B0DD218002EF2D189
:100AB0000321D3171940891889102EA81E4AFFF761
:100AC00073FC009B05211B785046994600F0D4FB2F
:100AD000002969D001239A444B46012B00D126E21C
:100AE000022B00D139E2002B00D033E226982C995A
:100AF000002800D045E2002900D190E2FFF728FC51
:100B00000023029309930D4B80219B4600230A206A
:100B100099469C4605260A4A49025B46536063464D
:100B20009360166013680B42FCD04B46013813608B
:100B30000028F2D177E7C0460F270000FF7C0000B5
:100B400010E000E0BC1500086814000870140008EC
:100B50000024014074140008781400087C14000874
:100B6000841400089014000800160008A01400085F
:100B700098140008A8140008E4140008D814000809
:100B8000281500081C150008C0140008B41400083B
:100B900030150008381500084015000848150008F1
:100BA000501500080C1600084C239C460A98CE4AA3
:100BB0008031D3691942FCD06346013093620378D7
:100BC0009C46CA4B9842F4D104212298FFF7C6FAFA
:100BD000202380219C460898C34AD3691942FCD03F
:100BE00063460130936203789C46C14B9842F4D12E
:100BF00004212498FFF7B2FA202380219C46039811
:100C0000B94AD3691942FCD0634601309362037834
:100C10009C464045F5D104212598FFF79FFA2023F3
:100C200080219C460498B04AD3691942FCD063469F
:100C30000130936203789C46B842F5D10121269891
:100C4000FFF78CFA202380219C460B98A64AD36993
:100C50001942FCD063460130936203789C46A54B51
:100C60009842F4D104212898FFF778FA20238021B4
:100C70009C4608989C4AD3691942FCD063460130CF
:100C8000936203789C469A4B9842F4D104212A98A7
:100C9000FFF764FA202380219C460398924AD36987
:100CA0001942FCD063460130936203789C4640456C
:100CB000F5D104212B98FFF751FA202380219C467F
:100CC0000498894AD3691942FCD063460130936283
:100CD00003789C46B842F5D101212C98FFF73EFAE3
:100CE000202380219C460C987F4AD3691942FCD06E
:100CF00063460130936203789C467F4B9842F4D15F
:100D000004212E98FFF72AFA202380219C4603987D
:100D1000754AD3691942FCD0634601309362037867
:100D20009C464045F5D104213198FFF717FA20235E
:100D300080219C4604986C4AD3691942FCD06346D2
:100D40000130936203789C46B842F5D10121329874
:100D5000FFF704FA202380219C461298624AD36947
:100D60001942FCD063460130936203789C46634B82
:100D70009842F4D14B46022B00D9FEE0199A9B0011
:100D8000D35818789C4600280BD08021564AD36946
:100D90001942FCD001239C446346906218780028D5
:100DA000F5D1202380219C4613984F4AD3691942DC
:100DB000FCD063460130936203789C46504B9842C6
:100DC000F4D1159B1A68169B0792196813000191BC
:100DD0000B4300D1F9E0002A00DC04E1002900DC2B
:100DE00012E18A4200D147E156208A4200DC32E11A
:100DF0001D9B9B4680213C4AD3691942FCD00123AC
:100E00009B445B46906218780028F5D10D9B8021A9
:100E10009C46354A2030D3691942FCD001239C44BA
:100E2000634690621878374B9C45F4D104210798AB
:100E3000FFF794F9202380219C460E982A4AD36913
:100E40001942FCD063460130936203789C462E4BD6
:100E50009842F4D104210198FFF780F920238021E2
:100E60009C460F98204AD3691942FCD06346013052
:100E7000936203789C46254B9842F4D10321059850
:100E8000FFF76CF9202380219C461098164AD369FD
:100E90001942FCD063460130936203789C461C4B98
:100EA0009842F4D101210298FFF758F920238021BC
:100EB0009C4611980C4AD3691942FCD06346013014
:100EC000936203789C46134B9842F4D10221069812
:100ED000FFF744F98021044AD3691942FCD00D235D
:100EE00080219362004A17E0003801406C1400082A
:100EF00073140008831400088C140008961400086A
:100F0000A5140008341500083C1500084415000815
:100F10004C15000854150008D3691942FCD00A2367
:100F2000936201239A444B46012B00D0D8E5149BD1
:100F30001868329B002B04D0059B01330593C82B06
:100F400076DD032877D00023009A0293137005936F
:100F50000993D8E5FFF754F9D5E526982C99002890
:100F600007D0002905D0069B022B34D85E1C022B2B
:100F70002FD0FFF7EDF90696C5E5179B53209C4649
:100F800003E7002900D1B9E5329B002B66D0029B14
:100F900001330293022B21DD099B002B1ED1189AED
:100FA0000320072A04DC1C999300C858531C18938B
:100FB000149B009A186001231370FFF745F9002372
:100FC00002930593013309939DE5179B53209B469C
:100FD00010E7013306930023009A13702B9925988C
:100FE000FFF772F98FE5079B002B2DD0019A002A9D
:100FF0003BDB1F9B41209B46019B002B00D1F9E668
:10100000244B13309B46F5E61E9B41209B46019BDB
:10101000002B00D1EEE6219B13309B46EAE6FFF75A
:10102000EFF80223009A13700023069302936AE5F7
:10103000FFF70AF967E5009B1870FFF7E1F8002356
:101040000293059309935EE5019B5020002B17DD69
:10105000209B9B46CEE61A9B9B46CBE62B99259878
:1010600002930993FFF730F94DE5522093420DD0DA
:1010700009DA094B9B46BDE61B9B46209B46B9E619
:10108000064B9B46B6E6064B9B46B3E6054B9B4696
:10109000B0E6C046F014000808150008CC1400089B
:1010A000FC14000814150008FEE7C046FEE7C04621
:1010B0000121294A13680B43136003311368194255
:1010C000FCD001230C21D360234AD3680B40042BAE
:1010D000FBD10220214B19680143196019680138BE
:1010E000014319608023916B5B050B43936380235D
:1010F00010211B4A1B01136053681942FCD1164B87
:101100001849DA680A40DA608822D968D2030A43AB
:10111000DA60DA681449DA60DA68DA60DA68DA60C4
:101120001A680A401A608022196852040A43802112
:101130001A6089041A680A42FCD00321DA688A43DB
:10114000DA60DA680A43DA600C220349CB6813409C
:101150000C2BFBD17047C04600100240002002401B
:1011600000700040FFFF02FFFFFFFFFE0022430868
:101170008B4274D303098B425FD3030A8B4244D35F
:10118000030B8B4228D3030C8B420DD3FF220902A1
:1011900012BA030C8B4202D31212090265D0030B60
:1011A0008B4219D300E0090AC30B8B4201D3CB0356
:1011B000C01A5241830B8B4201D38B03C01A524198
:1011C000430B8B4201D34B03C01A5241030B8B429A
:1011D00001D30B03C01A5241C30A8B4201D3CB0285
:1011E000C01A5241830A8B4201D38B02C01A52416A
:1011F000430A8B4201D34B02C01A5241030A8B426D
:1012000001D30B02C01A5241CDD2C3098B4201D384
:10121000CB01C01A524183098B4201D38B01C01A02
:10122000524143098B4201D34B01C01A5241030979
:101230008B4201D30B01C01A5241C3088B4201D328
:10124000CB00C01A524183088B4201D38B00C01AD5
:10125000524143088B4201D34B00C01A5241411AFC
:1012600000D20146524110467047FFE701B5002009
:1012700000F0F0F802BDC0460029F7D076E77047CD
:1012800003460B437FD4002243088B4274D30309E7
:101290008B425FD3030A8B4244D3030B8B4228D388
:1012A000030C8B420DD3FF22090212BA030C8B42AE
:1012B00002D31212090265D0030B8B4219D300E04E
:1012C000090AC30B8B4201D3CB03C01A5241830BD3
:1012D0008B4201D38B03C01A5241430B8B4201D383
:1012E0004B03C01A5241030B8B4201D30B03C01AAC
:1012F0005241C30A8B4201D3CB02C01A5241830A26
:101300008B4201D38B02C01A5241430A8B4201D354
:101310004B02C01A5241030A8B4201D30B02C01A7E
:101320005241CDD2C3098B4201D3CB01C01A5241E5
:1013300083098B4201D38B01C01A524143098B426E
:1013400001D34B01C01A524103098B4201D30B0157
:10135000C01A5241C3088B4201D3CB00C01A52417C
:1013600083088B4201D38B00C01A524143088B4241
:1013700001D34B00C01A5241411A00D201465241DA
:10138000104670475DE0CA0F00D04942031000D3F9
:101390004042534000229C4603098B422DD3030A4E
:1013A0008B4212D3FC22890112BA030A8B420CD35E
:1013B000890192118B4208D3890192118B4204D387
:1013C00089013AD0921100E08909C3098B4201D307
:1013D000CB01C01A524183098B4201D38B01C01A41
:1013E000524143098B4201D34B01C01A52410309B8
:1013F0008B4201D30B01C01A5241C3088B4201D367
:10140000CB00C01A524183088B4201D38B00C01A13
:101410005241D9D243088B4201D34B00C01A5241EA
:10142000411A00D20146634652415B10104601D377
:101430004042002B00D54942704763465B1000D301
:10144000404201B5002000F005F802BD0029F8D0A7
:1014500016E770477047C0462020523D000000004C
:10146000202049583D0000004C20723D0000000043
:1014700020623D0020733D0020643D00207C20520E
:1014800020723D00207C20495820723D0000000061
:10149000207C2073743D000053544F500000000026
:1014A000206469723D000000564545525F5249472D
:1014B000485400004152435F5249474854000000DD
:1014C0004152435F4C454654000000005049564F7E
:1014D000545F5249474854005049564F545F4C4559
:1014E000465400005455524E5F524947485400003C
:1014F0005455524E5F4C4546540000005245565FCD
:101500004C454654000000005245565F524947483A
:101510005400000052455645525345005645455229
:101520005F4C454654000000464F5257415244001C
:10153000206C633D000000002072633D000000004D
:101540002078743D000000002078733D000000000A
:10155000206C613D00000000526F626F7420737454
:10156000617274696E672075702E2E2E0D0A000050
:101570002D2D2D20524157204144432044554D509C
:1015800020286E6F2066696C746572696E67292009
:101590002D2D2D0D0A0000002D2D2D20454E44200F
:1015A00044554D502C207374617274696E672077B6
:1015B00061726D7570202D2D2D0D0A005761726DB1
:1015C000757020646F6E652E20456E746572696E4D
:1015D00067206D61696E206C6F6F702E0D0A0000C0
:1015E000464F4C4C4F570000494E544552534543CB
:1015F00054494F4E000000004C4F5354000000006F
:10160000E0150008E8150008F815000800000000C3
:1016100001000000010000000000000002000000C6
:1016200001000000020000000300000001000000B3
:1016300002000000010000000200000000000000A5
:101640000000000003000000030000000200000092
:101650000000000002000000010000000200000085
:0C1660000100000000000000030000007A
:04000005080000B936
:00000001FF
