:020000040800F2
:1000000000200020B9000008AD0C0008B10C000869
:1000100000000000000000000000000000000000E0
:10002000000000000000000000000000AD0C00080F
:100030000000000000000000AD0C0008AD0C00083E
:10004000AD0C0008AD0C0008AD0C0008AD0C0008AC
:10005000AD0C0008AD0C0008AD0C0008AD0C00089C
:1000600000000000AD0C0008AD0C0008AD0C00084D
:10007000AD0C0008AD0C000800000000AD0C00083D
:1000800000000000AD0C00080000000000000000AF
:10009000AD0C000800000000AD0C0008AD0C00081D
:1000A000AD0C0008AD0C0008AD0C0008AD0C00084C
:1000B000AD0C0008AD0C000800F0FCFD184B194A0F
:1000C00093420ED2013AD41A0022A408601C164DA5
:1000D0008000A958995004328242FAD1A400043316
:1000E000E318124A934209D20321013AD21A8A43F1
:1000F000191D5218002102C39342FCD10C4D0D4B27
:100100009D4209D20024013B5E1BB608013608CD92
:1001100001349847B442FAD100F018F9FEE7C0461E
:1001200000000020000000209411000808000020BA
:10013000941100089411000810B50478002C09D01F
:100140008021054AD3691942FCD094624478013079
:10015000002CF7D110BDC04600380140F0B5C646AE
:1001600000B50D0084B0002815DB061E1CD130231D
:1001700001AE337001246B46DF1CAC422CDB8021C6
:100180001E4A3F193C78D3691942FCD09462BE42A2
:1001900030D0013FF6E78021184AD3691942FCD0DC
:1001A0002D2346429362013D6B460024DF1C01343F
:1001B0003B19984630000A2100F060FE434630317A
:1001C000197030000A2100F0D3FD33000600092B1E
:1001D000EDD801AEAC42D2DA80202021074AD369A3
:1001E0001842FCD0013D9162A542F8D18021034A1A
:1001F0003F19C7E704B080BCB846F0BD00380140E5
:1002000080230022DB055A639A63DA631A640028AC
:100210001DDDFA239B0098420DDC8023DB0558632B
:1002200000290ADB06D0FA239B0099421ADC8023BE
:10023000DB05196470471800EFE7FA2349429B0079
:10024000994200DD19008023DB05D963F2E700281D
:10025000E6D0084B98420ADAFA2080008023DB05BA
:100260009863DDE719008023DB051964E2E740426B
:10027000F4E7C04618FCFFFFF8B503244746904654
:100280004268CE4653009B185B18DA171440E418F6
:100290000F23466980B5B3429B410F00082105003A
:1002A00080681940A4100731844225DD2A69231A89
:1002B0009146002A25D0632B26DC484301310019E2
:1002C00000F0E0FDA860031B844200DD231A4A46CB
:1002D000002A19D14046D917C20F83424A41D2B2EF
:1002E0002F606C60EB602A61731C01D0731C6B6122
:1002F000C0BCB946B046F8BD2A69031B9146002A26
:10030000D9D19845E6DDD8E70122632BE7DC00224E
:10031000E5E7C04680230022DB055A639A63DA636F
:100320001A64022808D0032805D0012809D1F53223
:10033000FF329A631A647047F532FF325A63DA6308
:10034000F9E7962292005A631A64F4E7F0B5DE46A4
:1003500057464E46454600230121E0B5E14AA5B087
:1003600002921370E04A1393136014931693179339
:1003700019931A931C931D931F93209322932393F5
:10038000DA4B0E921A680A431A60042219680A426C
:10039000FCD0DA68D6490A40DA608822D968D203EC
:1003A0000A43DA608022196852040A431A608022E4
:1003B000CE4B920419681142FCD00120CD490A6845
:1003C00002430A600321DA680A43DA600C22C74953
:1003D000CB6813400C2BFBD10120CB6AC64C0343E6
:1003E000CB6280234A6BDB0113434B63A023DB0505
:1003F0001A6822401A6080221C6812032243F024EB
:100400001A605A6AA2435A625A6AB03C22435A623C
:10041000BA4AD634D4600E3CFF3C1460CA6AF63443
:100420000243CA628A6B02438A631A68A2431A6053
:100430001A68553C22431A601A6A120C12041A6296
:100440001C6AAF4A22431A6280221F24D20594629A
:10045000AC4CD462002454639463D4631464AA4CF7
:100460009461D461A94C1462812450611460CC6AF7
:100470000443CC6280244D6BA4002C434C63FC21CC
:100480001C68890121431960A14B19690A431A614B
:100490009A68104207D0022299680A439A600122A2
:1004A00099680A42FCD18023994A5B0591680B4305
:1004B0009360984B984A5A6000229A6005321A60FD
:1004C0008022520219681142FCD000221A60802258
:1004D0008F4B120699680A439A609A68002AFCDBDF
:1004E00005225A6100220121DA609A680A439A6063
:1004F000012387491E000A6816401342FAD0802360
:100500000022DB055A639A63DA631A64824BFA208D
:1005100080219C460027002505247E4A4000490290
:10052000634653609560146013680B42FCD0013839
:1005300017600028F4D17948FFF7FEFD7848FFF7EF
:10054000FBFD14239B46774B6C4C03930433984676
:10055000754B6F4D04935F1D5B460596019380229A
:10056000E3691A42FCD04C238022A362E3691A4259
:10057000FCD03D23042100200422A3622D3BAB626A
:10058000AB681343AB602B681A42FCD02B6C01396B
:100590001B051B0DC0180029F2D10323C2171340FD
:1005A000181880100431FFF7D9FD2020802203990C
:1005B000E3691A42FCD0A062013108784145F7D1C5
:1005C0002023042100200422AB62AB681343AB60FC
:1005D0002B681A42FCD02B6C01391B051B0DC0186F
:1005E0000029F2D10323C2171340181880100431D8
:1005F000FFF7B4FD202080220499E3691A42FCD061
:10060000A06201310878B942F7D1402304210020CB
:100610000422AB62AB681343AB602B681A42FCD078
:100620002B6C01391B051B0DC0180029F2D10323C7
:10063000C2171340181880100431FFF78FFD802275
:10064000E3691A42FCD00D238022A362E3691A42B7
:10065000FCD00A23A362304B80219B4600236420F8
:100660009A46994605262B4A49025B4653604B46FB
:100670009360166013680B42FCD053460138136038
:100680000028F2D1019B013B0193002B00D066E7CB
:100690002648059EFFF750FD40230193303B9B46C3
:1006A00004251B4C5B4604220021A362A3682B4354
:1006B000A36023681D42FCD0236C013A1B051B0D6F
:1006C000C918002AF2D10323CA1713405918C822A7
:1006D000891012A8FFF7D0FD202304220021A36275
:1006E00026E0C04604000020000000200010024068
:1006F000FFFF02FF00200240FFFFF3FF0038014030
:1007000022220000E70300006868000011110000C9
:100710000024014010E000E0FF7C0000AC10000865
:10072000C41000085C10000864100008EC100008F9
:10073000A3682B43A36023681D42FCD0236C013ABD
:100740001B051B0DC918002AF2D10323CA17134039
:100750005918C822891018A8FFF78EFD40230422DB
:100760000021A362A3682B43A36023681D42FCD031
:10077000236C013A1B051B0DC918002AF2D1032373
:10078000CA17134059186A4A89101EA8FFF774FD4A
:10079000684B80219A4600230220994698460527F7
:1007A000654A490253465360434693601760136895
:1007B0000B42FCD04B461360012801D03000F1E71A
:1007C000019B013B0193002B00D06BE75B48FFF7D7
:1007D000B3FC0023042599460593069308931093D0
:1007E000574B584C0F93584B079303339846574B2E
:1007F0000493DF1C564B0393DE1C564B0993564B58
:100800000A93564B0B93564B0C93564B0D93564BEA
:100810001193102304220021A362A3682B43A36039
:1008200023681D42FCD0236C013A1B051B0DC9181F
:10083000002AF2D10323CA1713405918C82289107D
:1008400012A8FFF719FD202304220021A362A36848
:100850002B43A36023681D42FCD0236C013A1B0587
:100860001B0DC918002AF2D10323CA1713405918C7
:10087000C822891018A8FFF7FFFC4023042200219A
:10088000A362A3682B43A36023681D42FCD0236CA2
:10089000013A1B051B0DC918002AF2D10323CA1700
:1008A0001340591889101EA8214AFFF7E5FC0521BD
:1008B000019800F0E3FA002958D04B46012B00D1F3
:1008C00076E1022B00D18FE1002B00D084E1169B52
:1008D0001C9A134300D092E180234A46DB055A63F9
:1008E0009A63DA631A640223029A13700023059351
:1008F000104B80219B4600239A46994605330A20D7
:100900009C460D4A49025B4653604B4693606346E2
:10091000136013680B42FCD0534601381360002863
:10092000F1D1019B01330193029B1B78994670E73B
:100930000F270000FF7C000010E000E0101100080D
:100940006C100008002401407410000878100008A2
:100950007C1000088010000888100008941000081F
:100960009C100008A4100008341100084C239C4679
:100970000F98C74A8031D3691942FCD063460130D1
:10098000936203789C46C34B9842F4D10421129899
:10099000FFF7E4FB202380219C460798BC4AD369DB
:1009A0001942FCD063460130936203789C4640456F
:1009B000F5D104211498FFF7D1FB202380219C4618
:1009C0000498B34AD3691942FCD06346013093625C
:1009D00003789C46B842F5D104211598FFF7BEFB79
:1009E000202380219C460398A94AD3691942FCD050
:1009F00063460130936203789C46B042F5D10121F1
:100A00001698FFF7ABFB202380219C460998A04A4B
:100A1000D3691942FCD063460130936203789C4647
:100A20009D4B9842F4D104211898FFF797FB20239F
:100A300080219C460798964AD3691942FCD06346A8
:100A40000130936203789C464045F5D104211A9801
:100A5000FFF784FB202380219C4604988C4AD369AD
:100A60001942FCD063460130936203789C46B84239
:100A7000F5D104211B98FFF771FB202380219C46B0
:100A80000398834AD3691942FCD0634601309362CC
:100A900003789C46B042F5D101211C98FFF75EFB1C
:100AA000202380219C460A98794AD3691942FCD0B8
:100AB00063460130936203789C46784B9842F4D1A8
:100AC00004211E98FFF74AFB202380219C460498AE
:100AD0006F4AD3691942FCD06346013093620378B0
:100AE0009C46B842F5D104212198FFF737FB20231B
:100AF00080219C460398664AD3691942FCD063461C
:100B00000130936203789C46B042F5D101212298CE
:100B1000FFF724FB202380219C460B985C4AD36975
:100B20001942FCD063460130936203789C465C4BCB
:100B30009842F4D101214846FFF710FB2023802181
:100B40009C460C98524AD3691942FCD06346013046
:100B5000936203789C46534B9842F4D10321069844
:100B6000FFF7FCFA202380219C460D98484AD36960
:100B70001942FCD063460130936203789C464A4B8D
:100B80009842F4D101210598FFF7E8FA8021404A04
:100B9000D3691942FCD00D23802193623C4AD3696A
:100BA0001942FCD00A2393624B46012B00D088E601
:100BB0000E9B1868229B002B04D0069B01330693E2
:100BC000C82B61DD032852D00023029A1370002342
:100BD0000593069308938BE680230022DB055A6376
:100BE0009A63DA631A6483E6169B1C9A134327D12F
:100BF0008022D20553639363D363136478E6229B08
:100C0000002B3ED0059B01330593022B1BDD089B77
:100C1000002B18D1109A0320072A04DC11999300A5
:100C2000C858531C10930E9B029A1860012313702E
:100C3000FFF770FB0023059306930133089357E6F3
:100C40000023029A13701B9B1599C91A0B003133AC
:100C5000622B08D99620962380009B00401AC91861
:100C6000FFF7CEFA44E6962189000800F8E7029BD8
:100C7000002218708023DB055A639A63DA631A64D2
:100C8000A5E705930893DEE7FFF744FB30E6C0468F
:100C9000003801407010000887100008901000080C
:100CA0009A100008A0100008A8100008FEE7C0462F
:100CB000FEE7C0460121294A13680B431360033144
:100CC00013681942FCD001230C21D360234AD36856
:100CD0000B40042BFBD10220214B19680143196002
:100CE00019680138014319608023916B5B050B4340
:100CF0009363802310211B4A1B0113605368194220
:100D0000FCD1164B1849DA680A40DA608822D968A3
:100D1000D2030A43DA60DA681449DA60DA68DA6022
:100D2000DA68DA601A680A401A6080221968520488
:100D30000A4380211A6089041A680A42FCD0032100
:100D4000DA688A43DA60DA680A43DA600C22034917
:100D5000CB6813400C2BFBD17047C04600100240FB
:100D60000020024000700040FFFF02FFFFFFFFFE77
:100D7000002243088B4274D303098B425FD3030ADA
:100D80008B4244D3030B8B4228D3030C8B420DD3ED
:100D9000FF22090212BA030C8B4202D3121209027B
:100DA00065D0030B8B4219D300E0090AC30B8B42B9
:100DB00001D3CB03C01A5241830B8B4201D38B0367
:100DC000C01A5241430B8B4201D34B03C01A52410C
:100DD000030B8B4201D30B03C01A5241C30A8B424F
:100DE00001D3CB02C01A5241830A8B4201D38B023A
:100DF000C01A5241430A8B4201D34B02C01A5241DE
:100E0000030A8B4201D30B02C01A5241CDD2C3094F
:100E10008B4201D3CB01C01A524183098B4201D3CB
:100E20008B01C01A524143098B4201D34B01C01AB6
:100E3000524103098B4201D30B01C01A5241C3082E
:100E40008B4201D3CB00C01A524183088B4201D39D
:100E50008B00C01A524143088B4201D34B00C01A89
:100E60005241411A00D20146524110467047FFE7F5
:100E700001B5002000F0F0F802BDC0460029F7D00F
:100E800076E7704703460B437FD4002243088B422A
:100E900074D303098B425FD3030A8B4244D3030B01
:100EA0008B4228D3030C8B420DD3FF22090212BAC6
:100EB000030C8B4202D31212090265D0030B8B4242
:100EC00019D300E0090AC30B8B4201D3CB03C01A2C
:100ED0005241830B8B4201D38B03C01A5241430B07
:100EE0008B4201D34B03C01A5241030B8B4201D3F7
:100EF0000B03C01A5241C30A8B4201D3CB02C01A62
:100F00005241830A8B4201D38B02C01A5241430AD9
:100F10008B4201D34B02C01A5241030A8B4201D3C8
:100F20000B02C01A5241CDD2C3098B4201D3CB016F
:100F3000C01A524183098B4201D38B01C01A52411E
:100F400043098B4201D34B01C01A524103098B4222
:100F500001D30B01C01A5241C3088B4201D3CB000D
:100F6000C01A524183088B4201D38B00C01A5241F0
:100F700043088B4201D34B00C01A5241411A00D2A0
:100F800001465241104670475DE0CA0F00D0494209
:100F9000031000D34042534000229C4603098B4279
:100FA0002DD3030A8B4212D3FC22890112BA030A01
:100FB0008B420CD3890192118B4208D38901921183
:100FC0008B4204D389013AD0921100E08909C30908
:100FD0008B4201D3CB01C01A524183098B4201D30A
:100FE0008B01C01A524143098B4201D34B01C01AF5
:100FF000524103098B4201D30B01C01A5241C3086D
:101000008B4201D3CB00C01A524183088B4201D3DB
:101010008B00C01A5241D9D243088B4201D34B00F6
:10102000C01A5241411A00D20146634652415B1038
:10103000104601D34042002B00D549427047634619
:101040005B1000D3404201B5002000F005F802BD5E
:101050000029F8D016E770477047C0462020523D5F
:1010600000000000202049583D0000004C20723D47
:101070000000000020623D0020733D0020643D0020
:10108000207C205220723D00207C20495820723D57
:1010900000000000207C2073743D00002078743D27
:1010A000000000002078733D00000000526F626F66
:1010B00074207374617274696E672075702E2E2EA1
:1010C0000D0A00002D2D2D20524157204144432070
:1010D00044554D5020286E6F2066696C74657269A6
:1010E0006E6729202D2D2D0D0A0000002D2D2D209D
:1010F000454E442044554D502C20737461727469E0
:101100006E67207761726D7570202D2D2D0D0A0090
:101110005761726D757020646F6E652E20456E7418
:101120006572696E67206D61696E206C6F6F702EDD
:101130000D0A000000000000010000000100000096
:10114000000000000200000001000000020000009A
:101150000300000001000000020000000100000088
:10116000020000000000000000000000030000007A
:101170000300000002000000000000000200000068
:10118000010000000200000001000000000000005B
:041190000300000058
:04000005080000B936
:00000001FF
