:020000040800F2
:1000000000200020B90000080512000809120008AD
:1000100000000000000000000000000000000000E0
:1000200000000000000000000000000005120008B1
:100030000000000000000000051200080512000882
:100040000512000805120008051200080512000834
:100050000512000805120008051200080512000824
:100060000000000005120008051200080512000833
:1000700005120008051200080000000069040008CD
:100080000000000005120008000000000000000051
:100090000512000800000000051200080512000803
:1000A00005120008051200080512000805120008D4
:1000B000051200080512000801F0A8F8184B194AAB
:1000C00093420ED2013AD41A0022A408601C164DA5
:1000D0008000A958995004328242FAD1A400043316
:1000E000E318124A934209D20321013AD21A8A43F1
:1000F000191D5218002102C39342FCD10C4D0D4B27
:100100009D4209D20024013B5E1BB608013608CD92
:1001100001349847B442FAD100F006FAFEE7C0462F
:1001200000000020000000200C180008280000201B
:100130000C1800080C18000810B50478002C09D021
:100140008021054AD3691942FCD094624478013079
:10015000002CF7D110BDC04600380140F0B5C646AE
:1001600000B50D0084B0002815DB061E1CD130231D
:1001700001AE337001246B46DF1CAC422CDB8021C6
:100180001E4A3F193C78D3691942FCD09462BE42A2
:1001900030D0013FF6E78021184AD3691942FCD0DC
:1001A0002D2346429362013D6B460024DF1C01343F
:1001B0003B19984630000A2101F00CF943463031D2
:1001C000197030000A2101F07FF833000600092B76
:1001D000EDD801AEAC42D2DA80202021074AD369A3
:1001E0001842FCD0013D9162A542F8D18021034A1A
:1001F0003F19C7E704B080BCB846F0BD00380140E5
:1002000000220F4B01201A605A609A60DA60A02326
:10021000DB0559690143596159690130014359614D
:1002200059690230014359615969043001435961E8
:10023000044B1A60044B1A60044B1A607047C046A6
:100240000C00002024000020200000201C000020C2
:10025000F0B503244646904642684F469C46994670
:1002600053009B185B18DA17D6461440E4180F2386
:10027000C0B546690F00B3429B4108210500806864
:100280001940A4100731A04226DA2A69231A92469F
:10029000002A26D0634529DA48430131001901F0CC
:1002A0009DF8A860031B844200DD231A5246002AF1
:1002B0001CD14046D917C20F83424A41D2B22F60A7
:1002C0006C60EB602A61731C01D001366E61E0BC8A
:1002D000BA46B146A846F0BD2A69031B9246002AD9
:1002E00002D14345E5DAD7E76345D5DB4846D91760
:1002F000C20F83424A41D2B2E1E7C04610B502289C
:1003000016D0032811D0194B012821D1D221184A27
:1003100049001A600022174B1960174B1A605A6087
:100320009A60DA605960996010BDFFF769FFFBE7DA
:10033000D2210E4B490019600D4A0E4B1A60002263
:100340000D4B1A605A609A60DA601960D960EBE769
:10035000D222002152001A60064B1A60064B196027
:1003600059609960D9601A609A60DDE72400002026
:100370005CFEFFFF200000200C000020401A02005D
:100380004423223293429B41184A1840136810B507
:10039000C31A5B001B1810601A00513218DB512B76
:1003A00014DCD22100204900114AC91AA533FF33B9
:1003B00010608C4650609060D06018000D4C236037
:1003C0000D4B196063461360906010BD5123E8E740
:1003D0000023074A5420136053609360D360F623D0
:1003E000FF30FF339C4619000300E7E71C000020A4
:1003F0000C00002020000020240000200022164BCA
:1004000010B51A60002804D0002914D0FFF7F8FEB8
:1004100010BD0029FAD0C8218C22104B4900196068
:100420000F4B52001A600F4B186058609860D860EC
:1004300019609A60ECE78C20084B400018609132FC
:10044000074BFF321A60074B196059609960D960F9
:1004500018609A60DCE7C0461C00002024000020E1
:10046000200000200C00002080220121D205136909
:1004700010B58B4313612A4A13689C46294B1868B0
:10048000844544D9A020C00584464069884361461C
:10049000486150681968884232D9A0200224C005FA
:1004A0004169A143416190681968884221D9A0201F
:1004B0000424C0054169A1434161D1681A68914291
:1004C00010D9A0210820C9054A6982434A611A68E7
:1004D00001321A60FA2219689200914201D3002277
:1004E0001A6010BDA0210820C9054A6902434A616B
:1004F000EDE7A0200424C005416921434161DCE708
:10050000A0200224C005416921434161CBE7A0201E
:10051000C00584464069014360464161B9E7C04671
:100520000C00002008000020F0B5DE4657464E467D
:10053000454602220023E0B5E249BDB003910A70AE
:100540000121E14A2B9313600D92E04A2C93136032
:100550001A92DF4A2E9313601B92DE4A2F93136088
:100560003193329334933593379338933A933B9343
:10057000D94B1A680A431A60042219680A42FCD04F
:10058000DA68D6490A40DA608822D968D2030A4379
:10059000DA608022196852040A431A608022CE4B26
:1005A000920419681142FCD00120CD490A68024327
:1005B0000A600321DA680A43DA60C74A0931D3685E
:1005C0000B400C2BFBD10120D36AC64C0343D362F2
:1005D0008023516BDB010B435363A023DB051968B8
:1005E00055252140196080211C6809032143F0240E
:1005F0001960596AA1435962596AB03C2143596252
:10060000B949D634CC600E3CFF3C0C60D16AF6345C
:100610000143D162916B014391631968A143196051
:100620001968294319605968463DA943596099687A
:1006300021439960D968A1430024D96059692943AD
:100640005961AA4940250C604C608C60CC60A84977
:10065000FF350C608021C9058C62CD620C6180344D
:10066000C8600C608024A34D48612E682402344386
:100670002C600C6804430C6062B6D46A0443D462F4
:100680008024556BA4002C435463FC221C68920107
:1006900022431A60984B1A69114319619A681042F3
:1006A00007D0022299680A439A60012299680A4297
:1006B000FCD18023904A5B0591680B4393608F4B7C
:1006C0008F4A5A6000229A6005321A6080225202D4
:1006D00019681142FCD000221A608022864B120653
:1006E00099680A439A609A68002AFCDB05225A61DD
:1006F00000220121DA609A680A439A6001237E4948
:100700001E000A6816401342FAD0FFF779FD7C4BB1
:10071000FA2080219C46002700250524774A4000C6
:100720004902634653609560146013680B42FCD025
:10073000013817600028F4D17248FFF7FDFC7248B9
:10074000FFF7FAFC01210120FFF708FD6F48FFF7D2
:10075000F3FC6F48FFF7F0FC14239B466D4B624C93
:100760000293043398466C4B634D04935F1D5B46C4
:10077000059601938022E3691A42FCD04C23802223
:10078000A362E3691A42FCD03D2304210020042225
:10079000A3622D3BAB62AB681343AB602B681A427C
:1007A000FCD02B6C01391B051B0DC0180029F2D1A0
:1007B0000323C2171340181880100431FFF7CEFC32
:1007C000202080220299E3691A42FCD0A062013104
:1007D00008784145F7D12023042100200422AB6290
:1007E000AB681343AB602B681A42FCD02B6C013909
:1007F0001B051B0DC0180029F2D10323C21713409B
:10080000181880100431FFF7A9FC202080220499D9
:10081000E3691A42FCD0A06201310878B942F7D1ED
:100820004023042100200422AB62AB681343AB6079
:100830002B681A42FCD02B6C01391B051B0DC0180C
:100840000029F2D10323C217134018188010043175
:10085000FFF784FC8022E3691A42FCD00D2380223A
:10086000A362E3691A42FCD00A23A362244B8021CD
:100870009B46002364209A46994605261F4A490252
:100880005B4653604B469360166013680B42FCD086
:100890005346013813600028F2D1019B013B0193BC
:1008A000002B00D066E71D48059EFFF745FC40235E
:1008B0000193303B9B4604250F4C5B4604220021EC
:1008C000A3622DE00400002000000020240000208E
:1008D000200000201C00002000100240FFFF02FF4B
:1008E00000200240FFFFF3FF003801400C00002011
:1008F0000800002000E100E00024014010E000E0DA
:10090000FF7C0000D8160008F01600080017000849
:1009100004170008B4150008BC1500082C170008BF
:10092000A3682B43A36023681D42FCD0236C013ACB
:100930001B051B0DC918002AF2D10323CA17134047
:100940005918C822642389102AA8FFF781FC2023A4
:1009500004220021A362A3682B43A36023681D42E5
:10096000FCD0236C013A1B051B0DC918002AF2D1DB
:100970000323CA1713405918C8226423891030A8CA
:10098000FFF766FC402304220021A362A3682B43E7
:10099000A36023681D42FCD0236C013A1B051B0D8C
:1009A000C918002AF2D10323CA17134059188C2200
:1009B0005A23891036A8FFF74BFC814B80219A46B9
:1009C000002302209946984605277E4A490253464D
:1009D000536043469360176013680B42FCD04B464C
:1009E0001360012801D03000F1E7019B013B019326
:1009F000002B00D061E77448FFF79EFB00230993AA
:100A00000293059304930B930E93704B04251C9350
:100A10006F4B704C0C93704B0693DF1C6F4B07931E
:100A200003339A466E4B0F936E4B11936E4B139399
:100A30006E4B20936E4B1E936E4B16936E4B219311
:100A40006E4B1F936E4B19936E4B23936E4B2793F4
:100A50006E4B26936E4B29936E4B28936E4B2593CA
:100A60006E4B24936E4B1D936E4B10936E4B1293F3
:100A70006E4B14936E4B15936E4B17936E4B1893EE
:100A80006E4B2293102304220021A362A3682B4300
:100A9000A36023681D42FCD0236C013A1B051B0D8B
:100AA000C918002AF2D10323CA1713405918C822C3
:100AB000642389102AA8FFF7CBFB202304220021FE
:100AC000A362A3682B43A36023681D42FCD0236C60
:100AD000013A1B051B0DC918002AF2D10323CA17BE
:100AE00013405918C8226423891030A8FFF7B0FBBF
:100AF000402304260022A362A3682B43A36023683B
:100B00001D42FCD0236C013E1B051B0DD218002E8C
:100B1000F2D10321D317194089185A238C22891046
:100B200036A8FFF795FB3A9B9946002B44D1029BD0
:100B3000022B07DC01330293033B5A1E93410B9AAD
:100B40001A400B92039B05211B780198984600F0F0
:100B500041FC002974D0019B013301934346012BD2
:100B600000D181E2022B00D194E2002B00D08EE272
:100B70002E983499002800D0A4E2002900D1E4E2A4
:100B8000FFF73CFC002305930D4B80219946002381
:100B90000A2098469C4605260A4A49024B4653605D
:100BA00063469360166013680B42FCD043460138DD
:100BB00013600028F2D165E700230293C2E7C04624
:100BC000FF7C000010E000E050170008C41500088A
:100BD000CC15000800240140D0150008D4150008E9
:100BE000D8150008E0150008EC150008A01700084B
:100BF000F4150008FC1500089417000804160008F6
:100C000010160008181600085416000848160008A8
:100C1000981600088C1600083016000824160008E4
:100C2000A0160008A8160008B0160008B81600089C
:100C3000C0160008C8160008D0160008AC17000837
:100C40004C239C461C98CD4A8031D3691942FCD074
:100C500063460130936203789C46C94B9842F4D1B5
:100C600004212A98FFF77AFA202380219C460C98C9
:100C7000C24AD3691942FCD06346013093620378BB
:100C80009C46C04B9842F4D104212C98FFF766FA99
:100C9000202380219C460698B84AD3691942FCD08B
:100CA00063460130936203789C46B842F5D1042133
:100CB0002D98FFF753FA202380219C460798AF4ACE
:100CC000D3691942FCD063460130936203789C4695
:100CD0005045F5D101212E98FFF740FA20238021BD
:100CE0009C460F98A54AD3691942FCD0634601304F
:100CF000936203789C46A44B9842F4D10421309827
:100D0000FFF72CFA202380219C460C989B4AD3693C
:100D10001942FCD063460130936203789C46994B9C
:100D20009842F4D104213298FFF718FA2023802149
:100D30009C460698914AD3691942FCD0634601301B
:100D4000936203789C46B842F5D104213398FFF7AB
:100D500005FA202380219C460798884AD3691942C6
:100D6000FCD063460130936203789C465045F5D130
:100D700001213498FFF7F2F9202380219C46119835
:100D80007E4AD3691942FCD06346013093620378EE
:100D90009C467E4B9842F4D104213698FFF7DEF949
:100DA000202380219C460698744AD3691942FCD0BE
:100DB00063460130936203789C46B842F5D1042122
:100DC0003998FFF7CBF9202380219C4607986B4A7E
:100DD000D3691942FCD063460130936203789C4684
:100DE0005045F5D101214846FFF7B8F9202380216D
:100DF0009C461398614AD3691942FCD0634601307E
:100E0000936203789C46624B9842F4D14346022B8E
:100E100000D953E1209A9B00D35818789C460028AB
:100E20000BD08021554AD3691942FCD001239C4440
:100E30006346906218780028F5D1202380219C46D3
:100E400016984E4AD3691942FCD06346013093622A
:100E500003789C464F4B9842F4D10D9B1B68013B95
:100E6000022B00D926E1219A9B00D35818789C4682
:100E700000280BD08021414AD3691942FCD00123BC
:100E80009C446346906218780028F5D12023802185
:100E90009C461998394AD3691942FCD063460130FF
:100EA000936203789C463C4B9842F4D11A9B1A6893
:100EB0001B9B0A921968130008910B4300D11EE195
:100EC000002A00DC1FE1002900DC2DE18A4200D16C
:100ED00077E156208A4200DC4AE1239B9B46802131
:100EE000264AD3691942FCD001239B445B46906299
:100EF00018780028F5D11D9B80219C461F4A203080
:100F0000D3691942FCD001239C446346906218784F
:100F1000224B9C45F4D104210A98FFF71FF92023A6
:100F200080219C461098154AD3691942FCD063462B
:100F30000130936203789C46194B9842F4D1042106
:100F40000898FFF70BF9202380219C4612980B4A42
:100F5000D3691942FCD063460130936203789C4602
:100F6000104B9842F4D103210498FFF7F7F820239F
:100F700080219C461498014A16E0C0460038014082
:100F8000C8150008CF150008DF150008E81500088F
:100F9000F21500080116000815160008A41600082E
:100FA000AC160008B4160008D3691942FCD0634699
:100FB0000130936203789C46884B9842F4D101211A
:100FC0000598FFF7CBF8202380219C461598844A8A
:100FD000D3691942FCD063460130936203789C4682
:100FE000804B9842F4D101210298FFF7B7F82023F3
:100FF00080219C4617987A4AD3691942FCD06346EF
:101000000130936203789C46774B9842F4D10121DA
:101010000E98FFF7A3F8202380219C461898704A69
:10102000D3691942FCD063460130936203789C4631
:101030006E4B9842F4D102210998FFF78FF8802176
:10104000674AD3691942FCD00D2380219362644A18
:10105000D3691942FCD00A239362019B01330193A7
:101060004346012B00D07DE5049B029A0133049393
:10107000022A3CDD072B3DDD0D9B1B68032B00D1B5
:1010800080E00023039A0593137004937CE5FFF737
:10109000B7F879E52E983499002807D0002905D0B3
:1010A000099B022B4DD85E1C022B48D0FFF7A6F9F6
:1010B000099669E51F9B53209C46DBE61E9B532047
:1010C0009C46AEE6002900D15AE54B46002B46D09F
:1010D0000B9B002B42D1059B022B5BDC013305935C
:1010E000032B57D033992D98FFF748F94CE5049B13
:1010F000C82BC1DC0D9B1868FFF700F944E51E9B67
:1011000053209B46EBE60A9B002B2AD0089A002A24
:1011100031DB259B41209B46089B002B00D1DEE65E
:10112000334B13309B46DAE6249B41209B46089BB9
:10113000002B00D1D3E6279B13309B46CFE601332B
:1011400009930023039A1370CCE7FFF759F80223A1
:10115000039A137000230993059315E50023059363
:10116000C0E7089B5020002B2FDD269B9B46B6E650
:10117000289B9B46B3E6522093422CD028DA1D4B85
:101180009B46ACE6039A1370FFF73AF800230593E9
:101190000493F9E40E9A0320072A04DC22999300B1
:1011A000C858531C0E930D9B039A186001231370AB
:1011B000FFF7A4F8002302930593049301330B93E4
:1011C000E2E4299B46209B4689E60B4B9B4686E63C
:1011D0000A4B9B4683E60A4B9B4680E6BC160008FA
:1011E00000380140C4160008CC160008D4160008C8
:1011F00060160008781600083C1600086C160008F7
:1012000084160008FEE7C046FEE7C0460121294AD1
:1012100013680B431360033113681942FCD0012398
:101220000C21D360234AD3680B40042BFBD102204E
:10123000214B19680143196019680138014319608D
:101240008023916B5B050B439363802310211B4A22
:101250001B01136053681942FCD1164B1849DA6818
:101260000A40DA608822D968D2030A43DA60DA6871
:101270001449DA60DA68DA60DA68DA601A680A4013
:101280001A608022196852040A4380211A60890476
:101290001A680A42FCD00321DA688A43DA60DA6805
:1012A0000A43DA600C220349CB6813400C2BFBD1B4
:1012B0007047C0460010024000200240007000400D
:1012C000FFFF02FFFFFFFFFE002243088B4274D3A3
:1012D00003098B425FD3030A8B4244D3030B8B4237
:1012E00028D3030C8B420DD3FF22090212BA030C40
:1012F0008B4202D31212090265D0030B8B4219D321
:1013000000E0090AC30B8B4201D3CB03C01A524140
:10131000830B8B4201D38B03C01A5241430B8B4288
:1013200001D34B03C01A5241030B8B4201D30B0371
:10133000C01A5241C30A8B4201D3CB02C01A524198
:10134000830A8B4201D38B02C01A5241430A8B425B
:1013500001D34B02C01A5241030A8B4201D30B0244
:10136000C01A5241CDD2C3098B4201D3CB01C01A5E
:10137000524183098B4201D38B01C01A5241430968
:101380008B4201D34B01C01A524103098B4201D356
:101390000B01C01A5241C3088B4201D3CB00C01AC3
:1013A000524183088B4201D38B00C01A524143083B
:1013B0008B4201D34B00C01A5241411A00D2014660
:1013C000524110467047FFE701B5002000F0F0F8E9
:1013D00002BDC0460029F7D076E7704703460B43AD
:1013E0007FD4002243088B4274D303098B425FD31E
:1013F000030A8B4244D3030B8B4228D3030C8B424A
:101400000DD3FF22090212BA030C8B4202D312122F
:10141000090265D0030B8B4219D300E0090AC30B04
:101420008B4201D3CB03C01A5241830B8B4201D3B1
:101430008B03C01A5241430B8B4201D34B03C01A9A
:101440005241030B8B4201D30B03C01A5241C30A12
:101450008B4201D3CB02C01A5241830A8B4201D383
:101460008B02C01A5241430A8B4201D34B02C01A6D
:101470005241030A8B4201D30B02C01A5241CDD212
:10148000C3098B4201D3CB01C01A524183098B425D
:1014900001D38B01C01A524143098B4201D34B0146
:1014A000C01A524103098B4201D30B01C01A5241A9
:1014B000C3088B4201D3CB00C01A524183088B4230
:1014C00001D38B00C01A524143088B4201D34B0019
:1014D000C01A5241411A00D201465241104670478B
:1014E0005DE0CA0F00D04942031000D34042534090
:1014F00000229C4603098B422DD3030A8B4212D350
:10150000FC22890112BA030A8B420CD38901921181
:101510008B4208D3890192118B4204D389013AD0BE
:10152000921100E08909C3098B4201D3CB01C01A93
:10153000524183098B4201D38B01C01A52414309A6
:101540008B4201D34B01C01A524103098B4201D394
:101550000B01C01A5241C3088B4201D3CB00C01A01
:10156000524183088B4201D38B00C01A5241D9D219
:1015700043088B4201D34B00C01A5241411A00D29A
:101580000146634652415B10104601D34042002B96
:1015900000D54942704763465B1000D3404201B515
:1015A000002000F005F802BD0029F8D016E77047CA
:1015B0007047C0462020523D0000000020204958BE
:1015C0003D0000004C20723D0000000020623D0004
:1015D00020733D0020643D00207C205220723D009D
:1015E000207C20495820723D00000000207C2073A0
:1015F000743D000053544F5000000000206163749C
:101600003D00000053545241494748540000000037
:10161000206469723D000000564545525F524947BB
:10162000485400004152435F52494748540000006B
:101630004152435F4C454654000000005049564F0C
:10164000545F5249474854005049564F545F4C45E7
:10165000465400005455524E5F52494748540000CA
:101660005455524E5F4C4546540000005245565F5B
:101670004C454654000000005245565F52494748C9
:1016800054000000524556455253450056454552B8
:101690005F4C454654000000464F525741524400AB
:1016A000206C633D000000002072633D00000000DC
:1016B0002078743D000000002078733D0000000099
:1016C0002078723D000000002069633D00000000AA
:1016D000206C613D00000000526F626F74207374D3
:1016E000617274696E672075702E2E2E0D0A0000CF
:1016F00053656C656374656420706174683D0000B7
:101700000D0A00002D2D2D20524157204144432029
:1017100044554D5020286E6F2066696C746572695F
:101720006E6729202D2D2D0D0A0000002D2D2D2056
:10173000454E442044554D502C2073746172746999
:101740006E67207761726D7570202D2D2D0D0A004A
:101750005761726D757020646F6E652E20456E74D2
:101760006572696E67206D61696E206C6F6F702E97
:101770000D0A0000464F4C4C4F570000494E54454F
:101780005253454354494F4E000000004C4F5354B0
:10179000000000003416000828160008F4150008A0
:1017A000741700087C1700088C1700080000000060
:1017B0000100000001000000000000000200000025
:1017C0000100000002000000030000000100000012
:1017D0000200000001000000020000000000000004
:1017E00000000000030000000300000002000000F1
:1017F00000000000020000000100000002000000E4
:0C180000010000000000000003000000D8
:04000005080000B936
:00000001FF
