:020000040800F2
:1000000000200020B90000085D0F0008610F000803
:1000100000000000000000000000000000000000E0
:100020000000000000000000000000005D0F00085C
:1000300000000000000000005D0F00085D0F0008D8
:100040005D0F00085D0F00085D0F00085D0F0008E0
:100050005D0F00085D0F00085D0F00085D0F0008D0
:10006000000000005D0F00085D0F00085D0F000834
:100070005D0F00085D0F0008000000008503000808
:10008000000000005D0F00080000000000000000FC
:100090005D0F0008000000005D0F00085D0F000804
:1000A0005D0F00085D0F00085D0F00085D0F000880
:1000B0005D0F00085D0F000800F054FF184B194A4F
:1000C00093420ED2013AD41A0022A408601C164DA5
:1000D0008000A958995004328242FAD1A400043316
:1000E000E318124A934209D20321013AD21A8A43F1
:1000F000191D5218002102C39342FCD10C4D0D4B27
:100100009D4209D20024013B5E1BB608013608CD92
:1001100001349847B442FAD100F0E2FAFEE7C04653
:10012000000000200400002090140008240000209B
:10013000901400089014000810B50478002C09D021
:100140008021054AD3691942FCD094624478013079
:10015000002CF7D110BDC04600380140F0B5C646AE
:1001600000B50D0084B0002815DB061E1CD130231D
:1001700001AE337001246B46DF1CAC422CDB8021C6
:100180001E4A3F193C78D3691942FCD09462BE42A2
:1001900030D0013FF6E78021184AD3691942FCD0DC
:1001A0002D2346429362013D6B460024DF1C01343F
:1001B0003B19984630000A2100F0B8FF4346303121
:1001C000197030000A2100F02BFF33000600092BC4
:1001D000EDD801AEAC42D2DA80202021074AD369A3
:1001E0001842FCD0013D9162A542F8D18021034A1A
:1001F0003F19C7E704B080BCB846F0BD00380140E5
:1002000000220E4B01201A605A609A60DA60A02327
:10021000DB0559690143596159690130014359614D
:1002200059690230014359615969043001435961E8
:10023000034B1A60034B1A607047C0460C00002045
:10024000200000201C000020F0B5C646032400B5A5
:100250001960069B90461B68099E5D00ED186D189D
:10026000079BEF173C401A686419A410944230DAD7
:100270003168131B002930D1984510DC01229845C4
:1002800007DC06990C6008990B60326080BCB846A8
:10029000F0BD80210022C9018D427A41F1E780231F
:1002A000DB019D4220DA0F281BD910210F2050437B
:1002B000001900F03FFF079B18603268031B84425F
:1002C00000DB231A002AD9D00122632BD9DC0022BB
:1002D000D7E73168A31A0029CED0632BF4DC0F28AE
:1002E000E3D808210720E2E7131B9442C6DBA31AD8
:1002F000C4E7C04602281ED0032811D01D4B012898
:1003000029D196211C4A49001A6000221B4B196012
:100310001B4B1A605A609A60DA601960D9607047A6
:100320000023144A1360154A1360154A1360536082
:100330009360D360F3E796210E4B490019600E4A93
:100340000E4B1A6000220E4B1A605A609A60DA60F7
:1003500059609960E3E7D222002152001A60074BEE
:100360001A60074B196059609960D9605A60DA6069
:10037000D5E7C04620000020D4FEFFFF1C0000206F
:100380000C00002080220121D205136910B58B4397
:1003900013612A4A13689C46294B1868844544D93E
:1003A000A020C00584464069884361464861506882
:1003B0001968884232D9A0200224C0054169A143AE
:1003C000416190681968884221D9A0200424C005A1
:1003D0004169A1434161D1681A68914210D9A021B5
:1003E0000820C9054A6982434A611A6801321A60C5
:1003F000FA2219689200914201D300221A6010BDBE
:10040000A0210820C9054A6902434A61EDE7A020FE
:100410000424C005416921434161DCE7A020022496
:10042000C005416921434161CBE7A020C005844656
:100430004069014360464161B9E7C0460C000020B5
:1004400008000020F0B51E000300040085B0303322
:10045000C56B03930C3B02930C3B01930C3B1700C1
:100460000093C82203002800FFF7EEFE220034327A
:1004700003920C3A02920C3A01920C3A390028008D
:10048000231D0092C822FFF7DFFE2200230038322E
:1004900003920C3A02920C3A01920C3A0833009201
:1004A00031002800044AFFF7CFFE6B1C01D0013554
:1004B000E56305B0F0BDC0460F270000F8B5CE4695
:1004C000474680B57E4C82682378022B3BD0032BB5
:1004D0001CD0012B43D1642A4FDC00238B600368BE
:1004E00042689B1A502B00DDB2E0503300DBA0E0E5
:1004F000D2210022734B49001960734B1A60734B71
:100500001A605A609A60DA60596032E002684168A5
:10051000531A502B00DD6FE0503300DB7AE0D2201D
:10052000684B4000186084460020674B1860674B9A
:10053000186058609860D86060465860C82A0BDC24
:10054000C82909DC15E0624B1878642A51DC0023C5
:100550008B60032800D189E00123237009E0002388
:10056000584A1360584A1360584A136053609360A6
:10057000D360C0BCB946B046F8BD8A68002AAED187
:100580004A688B60072A00DD96E0531C08784B60B0
:10059000504BC0001B189B5C1D00013BDEB24C4B56
:1005A000484A1D70002317001360474AC820136093
:1005B0009046464A8021136053609360D3600533B0
:1005C0009C469146444A40004902444B53600023F4
:1005D00093606346136013680B42FCD0002301381C
:1005E00013600028F1D1012E43D9032DB4D120701E
:1005F000BFE7FFF77FFEBCE70020D225314B6D003F
:100600001860314B1D60314B186058609860D8609D
:10061000DD6093E7D22000252A4B400018602A4B6A
:1006200018602A4B1D605D609D60DD605860D86079
:1006300084E7D2220021234B52001A60224B1A6019
:10064000224B196059609960D9605A60DA6090E76E
:100650000022D2211B4B49001A601B4B19601B4B17
:100660001A605A609A60DA60D96082E7154A23708E
:1006700077E72800FFF73EFE0523AF2080219C4648
:10068000154A80004902154B53600023936063466E
:10069000136013680B42FCD000230138136000285C
:1006A000F1D1434618604B46186058609860D86096
:1006B0000123386023705CE7022603256FE7C046FC
:1006C00000000020200000201C0000200C00002062
:1006D000040000207814000810E000E0FF7C000017
:1006E000F0B5DE4657464E46454600210020E0B5AF
:1006F0000023ABB0269027910121DC4A1D931360A3
:100700000B92DB4A1E9313601F9320932193229335
:1007100028932993D74B11921A680A431A6004222E
:1007200019680A42FCD0DA68D3490A40DA608822A4
:10073000D968D2030A43DA608022196852040A4356
:100740001A608022CB4B920419681142FCD0012020
:10075000CA490A6802430A600321DA680A43DA6078
:10076000C44A0931D3680B400C2BFBD10120D36A5A
:10077000C34C0343D3628023516BDB010B435363B0
:10078000A023DB05196855252140196080211C68CC
:1007900009032143F0241960596AA1435962596A37
:1007A000B03C21435962B749D634CC600E3CFF3C83
:1007B0000C60D16AF6340143D162916B01439163BD
:1007C0001968A14319601968294319605968463DA1
:1007D000A9435960996821439960D968A1430024CD
:1007E000D960596929435961A74940250C604C607B
:1007F0008C60CC60A549FF350C608021C9058C62F6
:10080000CD620C618034C8600C608024A04D4861CA
:100810002E68240234432C600C6804430C6062B6DA
:10082000D46A0443D4628024556BA4002C435463DF
:10083000FC221C68920122431A60964B1A691143EC
:1008400019619A68104207D0022299680A439A6097
:10085000012299680A42FCD180238E4A5B05916887
:100860000B4393608C4B8D4A5A6000229A6005328C
:100870001A608022520219681142FCD000221A60CC
:100880008022844B120699680A439A609A68002A6B
:10089000FCDB05225A61002201210124DA609A68FA
:1008A0000A439A607B4A260013681E401C42FAD015
:1008B000FFF7A6FC7A4B7B4A1C700023137016AA24
:1008C000137118931993754BFA2080219C460027C9
:1008D00000250524704A4000490263465360956034
:1008E000146013680B42FCD0013817600028F4D163
:1008F0006D48FFF721FC6D48FFF71EFC14239B4653
:100900006B4B604C0393043398466A4B614D0293E2
:100910005F1D5B46049601938022E3691A42FCD076
:100920004C238022A362E3691A42FCD03D230421B8
:1009300000200422A3621D3BAB62AB681343AB6093
:100940002B681A42FCD02B6C01391B051B0DC018FB
:100950000029F2D10323C217134018188010043164
:10096000FFF7FCFB202080220399E3691A42FCD0A8
:10097000A062013108784145F7D1102304210020FD
:100980000422AB62AB681343AB602B681A42FCD005
:100990002B6C01391B051B0DC0180029F2D1032354
:1009A000C2171340181880100431FFF7D7FB20201E
:1009B00080220299E3691A42FCD0A06201310878D2
:1009C000B942F7D14023042100200422AB62AB6876
:1009D0001343AB602B681A42FCD02B6C01391B050A
:1009E0001B0DC0180029F2D10323C2171340181899
:1009F00080100431FFF7B2FB8022E3691A42FCD079
:100A00000D238022A362E3691A42FCD00A23A36269
:100A1000224B80219B46002364209A469946052656
:100A20001D4A49025B4653604B469360166013684B
:100A30000B42FCD05346013813600028F2D1019BD1
:100A4000013B0193002B00D066E71B48049EFFF793
:100A500073FB402304259B460E4C202304220020D8
:100A6000A362A3682B43A36028E0C04620000020B7
:100A70001C00002000100240FFFF02FF0020024087
:100A8000FFFFF3FF003801400C00002008000020A9
:100A900000E100E00024014010E000E0FF7C0000E5
:100AA0000000002004000020F013000808140008D3
:100AB0000C130008141300083014000823681D42AA
:100AC000FCD0236C013A1B051B0DC018002AC8D1AD
:100AD0000321C31719401023091800208910A362AD
:100AE0000432A3682B43A36023681D42FCD0236C0F
:100AF000013A1B051B0DC018002AF2D1C31703329F
:100B00001A4040231218002704209210A362A36801
:100B10002B43A36023681D42FCD0236C01381B05C6
:100B20001B0DFF180028F2D10323F8170340DB192F
:100B30009B101AA8FFF786FCD04B80219A46002311
:100B40000220994698460527CD4A490253465360EC
:100B500043469360176013680B42FCD04B4613600A
:100B6000012801D03000F1E701235B429B445B4642
:100B7000002B00D071E7C348FFF7DEFAC24B042513
:100B80000493C24BC24C0293DF1CC24B0393C24B73
:100B90000593C24B0693C24B0793C24B1293C24BB1
:100BA0000C93C24B1593C24B1493C24B0E93C24B82
:100BB0001093C24B0D93C24B0F93C24B1393C24B76
:100BC0000893C24B0993C24B0A935B460193119B56
:100BD0009846202304220020A362A3682B43A3602D
:100BE00023681D42FCD0236C013A1B051B0DC01865
:100BF000002AF2D10321C31719401023091800203D
:100C00008910A3620432A3682B43A36023681D42AA
:100C1000FCD0236C013A1B051B0DC018002AF2D131
:100C2000C31703321A4040231218002604209210E2
:100C3000A362A3682B43A36023681D42FCD0236CEE
:100C400001381B051B0DF6180028F2D10323F017FD
:100C500003409B191AA89B10FFF7F4FB052101988C
:100C600000F064FA00291ED0019B17A901331AA8CD
:100C70000193FFF723FC814B80219B4600230A2030
:100C80009A46994605267E4A49025B4653604B4682
:100C90009360166013680B42FCD053460138136012
:100CA0000028F2D195E74C2604988A4A8031D3690E
:100CB0001942FCD0884B9662013006789842F6D1F2
:100CC00004211A98FFF74AFA202680210298814AC7
:100CD000D3691942FCD0966201300678B842F7D148
:100CE00004212398FFF73AFA202680210398794AB5
:100CF000D3691942FCD0794B96620130067898424C
:100D0000F6D101212698FFF729FA2026802105989F
:100D1000704AD3691942FCD0714B96620130067853
:100D20009842F6D104211B98FFF718FA202680215B
:100D30000298684AD3691942FCD09662013006785D
:100D4000B842F7D104212498FFF708FA2026802121
:100D50000398604AD3691942FCD0604B9662013017
:100D600006789842F6D101212798FFF7F7F9202657
:100D700080210698574AD3691942FCD0594B966294
:100D8000013006789842F6D104211C98FFF7E6F965
:100D90002026802107984F4AD3691942FCD0524B34
:100DA0009662013006789842F6D10B9B1B689C46F0
:100DB00043461B68994663464A4613435AD06346E6
:100DC000002B00DC98E0002A00DC9DE0CC4500D13F
:100DD000B1E05620CC4500DDA3E00C9E80213D4AC9
:100DE000D3691942FCD09062707801360028F7D19F
:100DF000202680210898374AD3691942FCD03B4B02
:100E00009662013006789842F6D104216046FFF7D9
:100E1000A5F92026802109982E4AD3691942FCD0D1
:100E2000334B9662013006789842F6D10421484649
:100E3000FFF794F9202680210A98264AD36919429F
:100E4000FCD02C4B9662013006789842F6D10121F5
:100E50001898FFF783F980211E4AD3691942FCD004
:100E60000D23802193621B4AD3691942FCD00A23C7
:100E70009362F9E653200E9EB0E7C046FF7C000067
:100E800010E000E0541400081C13000824130008AC
:100E900000240140281300082C1300083413000814
:100EA0004013000868130008C413000898130008D2
:100EB00080130008481300085C130008D0130008D2
:100EC0005013000874130008D8130008E01300083A
:100ED000E813000800380140201300082B13000815
:100EE000331300083C13000847130008DC13000804
:100EF000E4130008EC130008002B0DD0002A12DBCD
:100F00001CD14120159E69E74120109E002A00D186
:100F100064E7129E133061E75020002A09DD149E19
:100F20005CE70F9E5AE75220CC450CD009DA074EF9
:100F300054E7139E52E746200D9E4FE75420044E7F
:100F40004CE7044E4AE7044E48E7C046B013000899
:100F50008C130008A4130008BC130008FEE7C04669
:100F6000FEE7C0460121294A13680B431360033191
:100F700013681942FCD001230C21D360234AD368A3
:100F80000B40042BFBD10220214B1968014319604F
:100F900019680138014319608023916B5B050B438D
:100FA0009363802310211B4A1B011360536819426D
:100FB000FCD1164B1849DA680A40DA608822D968F1
:100FC000D2030A43DA60DA681449DA60DA68DA6070
:100FD000DA68DA601A680A401A60802219685204D6
:100FE0000A4380211A6089041A680A42FCD003214E
:100FF000DA688A43DA60DA680A43DA600C22034965
:10100000CB6813400C2BFBD17047C0460010024048
:101010000020024000700040FFFF02FFFFFFFFFEC4
:10102000002243088B4274D303098B425FD3030A27
:101030008B4244D3030B8B4228D3030C8B420DD33A
:10104000FF22090212BA030C8B4202D312120902C8
:1010500065D0030B8B4219D300E0090AC30B8B4206
:1010600001D3CB03C01A5241830B8B4201D38B03B4
:10107000C01A5241430B8B4201D34B03C01A524159
:10108000030B8B4201D30B03C01A5241C30A8B429C
:1010900001D3CB02C01A5241830A8B4201D38B0287
:1010A000C01A5241430A8B4201D34B02C01A52412B
:1010B000030A8B4201D30B02C01A5241CDD2C3099D
:1010C0008B4201D3CB01C01A524183098B4201D319
:1010D0008B01C01A524143098B4201D34B01C01A04
:1010E000524103098B4201D30B01C01A5241C3087C
:1010F0008B4201D3CB00C01A524183088B4201D3EB
:101100008B00C01A524143088B4201D34B00C01AD6
:101110005241411A00D20146524110467047FFE742
:1011200001B5002000F0F0F802BDC0460029F7D05C
:1011300076E7704703460B437FD4002243088B4277
:1011400074D303098B425FD3030A8B4244D3030B4E
:101150008B4228D3030C8B420DD3FF22090212BA13
:10116000030C8B4202D31212090265D0030B8B428F
:1011700019D300E0090AC30B8B4201D3CB03C01A79
:101180005241830B8B4201D38B03C01A5241430B54
:101190008B4201D34B03C01A5241030B8B4201D344
:1011A0000B03C01A5241C30A8B4201D3CB02C01AAF
:1011B0005241830A8B4201D38B02C01A5241430A27
:1011C0008B4201D34B02C01A5241030A8B4201D316
:1011D0000B02C01A5241CDD2C3098B4201D3CB01BD
:1011E000C01A524183098B4201D38B01C01A52416C
:1011F00043098B4201D34B01C01A524103098B4270
:1012000001D30B01C01A5241C3088B4201D3CB005A
:10121000C01A524183088B4201D38B00C01A52413D
:1012200043088B4201D34B00C01A5241411A00D2ED
:1012300001465241104670475DE0CA0F00D0494256
:10124000031000D34042534000229C4603098B42C6
:101250002DD3030A8B4212D3FC22890112BA030A4E
:101260008B420CD3890192118B4208D389019211D0
:101270008B4204D389013AD0921100E08909C30955
:101280008B4201D3CB01C01A524183098B4201D357
:101290008B01C01A524143098B4201D34B01C01A42
:1012A000524103098B4201D30B01C01A5241C308BA
:1012B0008B4201D3CB00C01A524183088B4201D329
:1012C0008B00C01A5241D9D243088B4201D34B0044
:1012D000C01A5241411A00D20146634652415B1086
:1012E000104601D34042002B00D549427047634667
:1012F0005B1000D3404201B5002000F005F802BDAC
:101300000029F8D016E770477047C0462020523DAC
:1013100000000000202049583D0000004C20723D94
:101320000000000020733D0020643D00207C20521E
:1013300020723D00207C20495820723D00000000B2
:10134000207C206469723D0053544F50000000001F
:10135000564545525F524947485400004152435F49
:1013600052494748540000005455524E5F52494775
:10137000485400005049564F545F52494748540062
:101380005049564F545F4C45465400005455524EF8
:101390005F4C4546540000004152435F4C45465463
:1013A000000000005245565F4C45465400000000C6
:1013B0005245565F52494748540000005245564531
:1013C00052534500564545525F4C45465400000077
:1013D000464F525741524400206C633D00000000CC
:1013E0002072633D000000002069783D000000008D
:1013F000526F626F74207374617274696E672075C6
:10140000702E2E2E0D0A00002D2D2D20524157201A
:101410004144432044554D5020286E6F2066696C2E
:10142000746572696E6729202D2D2D0D0A0000004C
:101430002D2D2D20454E442044554D502C207374A5
:10144000617274696E67207761726D7570202D2DE1
:101450002D0D0A005761726D757020646F6E652ED8
:1014600020456E746572696E67206D61696E206CCF
:101470006F6F702E0D0A00000102010303030303C6
:101480000102010200000303020002010201000345
:041490000100000057
:04000005080000B936
:00000001FF
