:020000040800F2
:1000000000200020B90000089502000899020008AD
:1000100000000000000000000000000000000000E0
:100020000000000000000000000000009502000831
:100030000000000000000000950200089502000882
:100040009502000895020008950200089502000834
:100050009502000895020008950200089502000824
:1000600000000000950200089502000895020008B3
:1000700095020008950200080000000095020008A3
:1000800000000000950200080000000000000000D1
:100090009502000800000000950200089502000883
:1000A00095020008950200089502000895020008D4
:1000B000950200089502000800F0F0F8184B194A64
:1000C00093420ED2013AD41A0022A408601C164DA5
:1000D0008000A958995004328242FAD1A400043316
:1000E000E318124A934209D20321013AD21A8A43F1
:1000F000191D5218002102C39342FCD10C4D0D4B27
:100100009D4209D20024013B5E1BB608013608CD92
:1001100001349847B442FAD100F00EF8FEE7C04629
:10012000000000200000002058030008000000200C
:1001300058030008580300080121F0B54746CE4691
:100140004D4880B5C36AFF240B43C362A023AA2590
:10015000DB051A688027A2431A601A68FF052A4344
:100160001A605A689B3DAA435A609A680026224347
:100170009A60DA68414DA243DA601A6A120C1204DE
:100180001A621C6A3E4A22431A62836B68240B433C
:1001900083631F23BB623B4BFB620023BB61FB619C
:1001A000BA692243BA61D022B869D2011043B8615A
:1001B000F8692043F861F869633C0243FA61386AE0
:1001C000314A024380203A623A6802433A607B63D4
:1001D000BB63FB633B647B6900200B437B613B6833
:1001E0000B433B6096239B009C46284B62467A63F8
:1001F000B863FA63264A80219046386449025D60FC
:1002000098601C601A680A42FCD001225242904455
:1002100042461E60002AF2D17A636246BA634246C1
:10022000FA6362463A641A4A8021904649025D6048
:1002300098601C601A680A42FCD001225242904425
:1002400042461E60002AF2D17A63BA63FA633A64C6
:10025000FA228021D200904649025D6098601C60BD
:100260001A680A42FCD001225242904442461E6063
:10027000002AF2D1BAE7C04600100240FF7C00001D
:1002800022220000E70300001111000010E000E04E
:10029000B80B0000FEE7C046FEE7C0460121294A30
:1002A00013680B431360033113681942FCD0012318
:1002B0000C21D360234AD3680B40042BFBD10220CE
:1002C000214B19680143196019680138014319600D
:1002D0008023916B5B050B439363802310211B4AA2
:1002E0001B01136053681942FCD1164B1849DA6898
:1002F0000A40DA608822D968D2030A43DA60DA68F1
:100300001449DA60DA68DA60DA68DA601A680A4092
:100310001A608022196852040A4380211A608904F5
:100320001A680A42FCD00321DA688A43DA60DA6884
:100330000A43DA600C220349CB6813400C2BFBD133
:100340007047C0460010024000200240007000408C
:08035000FFFF02FFFFFFFFFEAB
:04000005080000B936
:00000001FF
