:020000040800F2
:1000000000200020B90000081D030008210300089B
:1000100000000000000000000000000000000000E0
:100020000000000000000000000000001D030008A8
:1000300000000000000000001D0300081D03000870
:100040001D0300081D0300081D0300081D03000810
:100050001D0300081D0300081D0300081D03000800
:10006000000000001D0300081D0300081D03000818
:100070001D0300081D030008000000001D03000808
:10008000000000001D030008000000000000000048
:100090001D030008000000001D0300081D030008E8
:1000A0001D0300081D0300081D0300081D030008B0
:1000B0001D0300081D03000800F034F9184B194A0D
:1000C00093420ED2013AD41A0022A408601C164DA5
:1000D0008000A958995004328242FAD1A400043316
:1000E000E318124A934209D20321013AD21A8A43F1
:1000F000191D5218002102C39342FCD10C4D0D4B27
:100100009D4209D20024013B5E1BB608013608CD92
:1001100001349847B442FAD100F00EF8FEE7C04629
:100120000000002000000020E00300080000002084
:10013000E0030008E00300080121F0B5CE46474681
:100140006F4880B5C36AFF240B43C362A023AA256E
:10015000DB051A688026A2431A601A68F6052A434E
:100160001A605A689B3DAA435A609A680025224348
:100170009A60DA68A243DA601A6A120C12041A62F0
:100180001C6A604A22431A62836B68240B438363B0
:100190001F23B3625C4BF3620023B361F361B26966
:1001A0002243B261D022B069D2011043B061F0693C
:1001B0002043F061F069554C0243F261306A544AC1
:1001C0000243802032623268024332607363B36359
:1001D000F363336473697B380B43736133680B4398
:1001E0003360962300219B009C464A4B6246726313
:1001F000494A80279046B1637F02F16331645C60B5
:10020000996018601A683A42FCD001225242904428
:1002100042461D60002AF2D17263B263F263326417
:10022000FA228027920090467F025C6099601860F5
:100230001A683A42FCD001225242904442461D6064
:10024000002AF2D17263B2636246F26342463264BC
:10025000314A802790467F025C60996018601A6876
:100260003A42FCD001225242904442461D60002A8C
:10027000F2D17263B263F2633264FA228027920091
:1002800090467F025C60996018601A683A42FCD020
:1002900001225242904442461D60002AF2D1624639
:1002A00072634246B2636246F263424632641A4A5D
:1002B000802790467F025C60996018601A683A4215
:1002C000FCD001225242904442461D60002AF2D1E5
:1002D0007263B263F2633264FA228027D2009046DE
:1002E0007F025C60996018601A683A42FCD0012273
:1002F0005242904442461D60002AF2D176E7C04641
:100300000010024022220000E7030000FF7C0000F2
:100310001111000010E000E0B80B0000FEE7C0463D
:10032000FEE7C0460121294A13680B4313600331DD
:1003300013681942FCD001230C21D360234AD368EF
:100340000B40042BFBD10220214B1968014319609B
:1003500019680138014319608023916B5B050B43D9
:100360009363802310211B4A1B01136053681942B9
:10037000FCD1164B1849DA680A40DA608822D9683D
:10038000D2030A43DA60DA681449DA60DA68DA60BC
:10039000DA68DA601A680A401A6080221968520422
:1003A0000A4380211A6089041A680A42FCD003219A
:1003B000DA688A43DA60DA680A43DA600C220349B1
:1003C000CB6813400C2BFBD17047C0460010024095
:1003D0000020024000700040FFFF02FFFFFFFFFE11
:04000005080000B936
:00000001FF
