:020000040800F2
:1000000000200020B9000008FD02000801030008DC
:1000100000000000000000000000000000000000E0
:10002000000000000000000000000000FD020008C9
:100030000000000000000000FD020008FD020008B2
:10004000FD020008FD020008FD020008FD02000894
:10005000FD020008FD020008FD020008FD02000884
:1000600000000000FD020008FD020008FD0200087B
:10007000FD020008FD020008000000003901000830
:1000800000000000FD020008000000000000000069
:10009000FD02000800000000FD020008FD0200084B
:1000A000FD020008FD020008FD020008FD02000834
:1000B000FD020008FD02000800F024F9184B194A5F
:1000C00093420ED2013AD41A0022A408601C164DA5
:1000D0008000A958995004328242FAD1A400043316
:1000E000E318124A934209D20321013AD21A8A43F1
:1000F000191D5218002102C39342FCD10C4D0D4B27
:100100009D4209D20024013B5E1BB608013608CD92
:1001100001349847B442FAD100F06EF8FEE7C046C9
:100120000000002000000020C00300081400002090
:10013000C0030008C003000880220121D205136912
:1001400010B58B4313612A4A13689C46294B1868E3
:10015000844544D9A020C0058446406901436046D7
:10016000416150681968884232D9A0200224C00534
:1001700041692143416190681968884221D9A020D2
:100180000424C005416921434161D1681A68914244
:1001900010D9A0210820C9054A6902434A611A689A
:1001A00001321A60FA2219689200914201D30022AA
:1001B0001A6010BDA0210820C9054A6982434A611E
:1001C000EDE7A0200424C0054169A1434161DCE7BB
:1001D000A0200224C0054169A1434161CBE7A020D2
:1001E000C00584464069884361464861B9E7C04616
:1001F000040000200000002001213A4AF0B5D36A33
:10020000FF240B43D362A0235525DB051868364F26
:10021000A04318601868284318605868463DA843F2
:100220005860986820439860D868A043D86058699F
:10023000A8435861936B40200B43936380230022B3
:10024000DB05FF309A62D862BF38D96018603A6027
:100250007A60BA60FA601A618022244859610468A1
:100260001202224302601A680A431A6062B6962399
:10027000802200209B009C461D4E1E4B0A3D5202D0
:1002800061461D4C39607860B860F9605E609860C6
:100290001D6019681142FCD0013C1860002CF5D19A
:1002A00061463C607960B960FC60134C5E609860A8
:1002B0001D6019681142FCD0013C1860002CF5D17A
:1002C0003C607C60BC60FC60FA24E4005E60986086
:1002D0001D6019681142FCD0013C1860002CF5D15A
:1002E000CEE7C046001002400400002000E100E01C
:1002F000FF7C000010E000E0B80B0000FEE7C04605
:10030000FEE7C0460121294A13680B4313600331FD
:1003100013681942FCD001230C21D360234AD3680F
:100320000B40042BFBD10220214B196801431960BB
:1003300019680138014319608023916B5B050B43F9
:100340009363802310211B4A1B01136053681942D9
:10035000FCD1164B1849DA680A40DA608822D9685D
:10036000D2030A43DA60DA681449DA60DA68DA60DC
:10037000DA68DA601A680A401A6080221968520442
:100380000A4380211A6089041A680A42FCD00321BA
:10039000DA688A43DA60DA680A43DA600C220349D1
:1003A000CB6813400C2BFBD17047C04600100240B5
:1003B0000020024000700040FFFF02FFFFFFFFFE31
:04000005080000B936
:00000001FF
