:020000040800F2
:1000000000200020B90000084D0D0008510D000827
:1000100000000000000000000000000000000000E0
:100020000000000000000000000000004D0D00086E
:1000300000000000000000004D0D00084D0D0008FC
:100040004D0D00084D0D00084D0D00084D0D000828
:100050004D0D00084D0D00084D0D00084D0D000818
:10006000000000004D0D00084D0D00084D0D00086A
:100070004D0D00084D0D000800000000450300086C
:10008000000000004D0D000800000000000000000E
:100090004D0D0008000000004D0D00084D0D00083A
:1000A0004D0D00084D0D00084D0D00084D0D0008C8
:1000B0004D0D00084D0D000800F04CFE184A194B7C
:1000C0009A422AD2013B991A002389080131164825
:1000D0008900C458D45004338B42FAD1D318134A40
:1000E000934209D20321013AD21A8A43191D5218A8
:1000F000002102C39342FCD10D4D0E4EB54209D2F0
:100100000024013E761BB60808CD98472300013431
:10011000B342F9D100F076F9FEE71300DFE7C046FD
:100120000000002004000020542400081C000020CF
:10013000542400085424000810B50478002C09D079
:100140008021054AD3691942FCD094624478013079
:10015000002CF7D110BDC04600380140F0B50D00AD
:1001600085B000281DDB061E24D13023012401AEFA
:100170003370802020211C4AD3691842FCD0013DF5
:100180009162AC42F8DB8021601E174A3018047877
:10019000D3691942FCD09462431E864221D01800D4
:1001A000F5E78021104AD3691942FCD02D2346423D
:1001B0009362013D00246B46300003330A21013471
:1001C0001F1901F0B3FC3031397030000A2101F001
:1001D00027FC37000600092FEDD801AEAC42C8DB82
:1001E000D1E705B0F0BDC0460038014000220C4BFD
:1001F00001211A605A609A60DA60A023DB055A690F
:100200000A435A615A6901310A435A615A690231F3
:100210000A435A615A6904310A435A617047C04619
:1002200004000020002370B5364D0C002B606B607D
:10023000AB60EB60002840DB16D1002C28DB002CE3
:1002400011D0FA239B009C424ED86101091B890002
:100250000C19FA21E4002000890001F0E1FB2A4B8F
:100260009C4249D0E86070BDFA239B00984239D87F
:10027000FA214601361AB6003618F6003000890019
:1002800001F0CEFB204B9E4239D06860002CD6DABC
:10029000FA2361429B00994200D919004B015B1A75
:1002A0009C006418FA21E4002000890001F0B8FBEA
:1002B000154B9C421DD0A860D5E7FA2340429B0015
:1002C000984200D91800FA214601361AB6003618AD
:1002D000F6003000890001F0A3FB0B4B9E4205D0D5
:1002E0002860AAE71800C3E71C00AEE707482860AB
:1002F000A3E70648A860B6E70448E860B3E7034808
:100300006860C3E70400002040420F00E7030000DC
:100310000300F0B50138002B0FD080210026002506
:100320000524064A064F4902576095601460136819
:100330000B42FCD016600138F6D2F0BD10E000E0B0
:10034000FF7C000080220121D205136910B58B4388
:100350001361274A274B14681868844242D9A024A5
:10036000E40560698843606150681968884232D941
:10037000A0200224C0054169A14341619068196829
:10038000884221D9A0200424C0054169A1434161CC
:10039000D1681A68914210D9A0210820C9054A697C
:1003A00082434A611A6801321A60FA22196892007F
:1003B000914201D300221A6010BDA0210820C90576
:1003C0004A6902434A61EDE7A0200424C00541695F
:1003D00021434161DCE7A0200224C005416921439B
:1003E0004161CBE7A024E405606901436161BBE79B
:1003F000040000201400002010B503C8FFF712FF0E
:1004000010BDC046F0B5DE4657464E464546E0B5FF
:100410009FB00EA800F09CFD0121E04B1A680A4332
:100420001A60042219680A42FCD0DA68DC490A40E2
:10043000DA608822D968D2030A43DA608022196818
:1004400052040A431A608022D44B92041968114264
:10045000FCD00120D3490A6802430A600321DA680C
:100460000A43DA60CD4A0931D3680B400C2BFBD12B
:1004700001200225D36ACC4C0343D362D36AFF2602
:100480002B43D3628023516BDB010B435363A023C7
:10049000DB0519680F272140196080211C680903BA
:1004A0002143F0241960596AA1435962596AB03C4A
:1004B00021435962BD49D634CC600E3CFF3C0C60F0
:1004C000D16A4C340143D162916B01439163196845
:1004D000B14319601968214319605C68BC435C60D2
:1004E0009C6834439C60DC68B443DC600024596938
:1004F000402639435961AE49FF360C604C608C6030
:10050000CC60AC490C608021C9058C62CE620C6164
:100510008034C8600C608024A74E4861376824028C
:100520003C4334600C6804430C6062B6D46A0443F4
:10053000D4628024566BA40034435463FC221C68AC
:10054000920122431A609D4B1A69114319619A68FE
:10055000104206D09A68154301229D6099680A42AC
:10056000FCD18023954A5B0591680B439360944AC4
:10057000944B80215360002393600533136049023C
:1005800013680B42FCD00023136080228B4B1206B1
:1005900099680A439A609A68002AFCDB05225A612E
:1005A000002201210124DA609A680A439A60834B91
:1005B0001A681442FCD0FFF719FE2021774A07A8D9
:1005C000536B00260B4353631F227F4B00219A621B
:1005D0007E4A0025DA621A687A4FA2431A6000F058
:1005E00005FD0AA800F0AEFE80210190FA20052446
:1005F000734A4000490257609560146013680B42CB
:10060000FCD0013816600028F5D17148FFF794FD41
:10061000019B7048002B00D16F48FFF78DFD6F489C
:10062000FFF78AFD142302936D4B644C99466D4B82
:1006300098466D4B9B465E464C2080215B4AD369B1
:100640001942FCD09062707801360028F7D120233F
:1006500004210422A362A3681343A36023681A42FF
:10066000FCD0236C01391B051B0DC0180029F2D1E9
:1006700080100431FFF772FD202080215B4E4B4A31
:10068000D3691942FCD09062707801360028F7D106
:10069000102304210422A362A3681343A3602368E8
:1006A0001A42FCD0236C01391B051B0DC018002910
:1006B000F2D180100431FFF751FD4E4620208021F9
:1006C0003A4AD3691942FCD090627078013600280A
:1006D000F7D1402304210422A362A3681343A3603B
:1006E00023681A42FCD0236C01391B051B0DC0186E
:1006F0000029F2D180100431FFF730FD46460D206D
:1007000080212A4AD3691942FCD090627078013660
:100710000028F7D12B4B80219A460025002705267B
:10072000274A643049025346536097601660136845
:100730000B42FCD0013815600028F4D1029B013B2C
:100740000293002B00D076E7A022D2051368284937
:1007500028480B4003211360274A402613680425CC
:100760008B431360FFF7E8FC20239846134C434665
:1007700004220021A362A3682B43A36023681D42C7
:10078000FCD0236C013A1B051B0DC918002AF2D1BD
:10079000102304208910A36230E0C04600100240FC
:1007A000FFFF02FF00200240FFFFF3FF003801407F
:1007B000040000201400002000E100E000240140BB
:1007C00010E000E0FF7C000000140140FFFF00008B
:1007D000B42300085423000864230008CC23000835
:1007E00084230008C8230008782300087C2300081D
:1007F000FF3FFFFFF423000800040050A3682B43D1
:10080000A36023681D42FCD0236C01381B051B0D1F
:10081000D2180028F2D140230427A36200239210AB
:10082000A0682843A06020680542FCD0206C013FEE
:100830000005000D1B18002FF2D19B100EA800F030
:1008400099FBCF4ACF4B8021536005239760490223
:10085000136013680B42FCD00023CA491360516037
:100860008021936005331360C54A490213680B4227
:10087000FCD00023013E1360002E00D077E7C24871
:10088000FFF75AFC002399469846059304930623E4
:1008900003930023002400251F00BC4B1B69DB07CA
:1008A00017D5A023DB051B691B0612D5012D00D12E
:1008B0009EE0019B0134002B02D0312C00D9DEE0F8
:1008C000002F00D1D7E0FFF791FCB04B1B69DB078D
:1008D000E7D400220121AE4BA0265A621A6880207C
:1008E0000A431A600122A949F6050B691A42FCD095
:1008F00033691842F9D0A64B1968914319605B6AB5
:100900009B46FA23DB009B45D0DDA24B9B4500DDD7
:10091000C3E0584601F0B2FC049901F0E1FA9E49A7
:10092000804601F023FA002806D140469B4901F099
:1009300009FA002800D112E100239A4600239846C4
:10094000039B002B0ADD039B5846013B0393944B0A
:100950009B4500DDDCE101F091FC0490484601F08C
:100960006DFC0290002D00D1DDE00A2080218D4E2B
:100970008D4AD3691942FCD0906270780136002804
:10098000F7D105215046FFF7E9FB20208021874E53
:10099000854AD3691942FCD09062707801360028EC
:1009A000F7D105210298FFF7D9FB20208021804E46
:1009B0007D4AD3691942FCD09062707801360028D4
:1009C000F7D107215846FFF7C9FB20208021794E37
:1009D000754AD3691942FCD09062707801360028BC
:1009E000F7D102212800FFF7B9FB012D00D060E705
:1009F00020230426002104206F4A93629368034356
:100A0000936013681842FCD0136C013E1B051B0D4C
:100A1000C918002EF2D18B109C461023002193623E
:100A200004226548043683683343836003681E42AA
:100A3000FCD0036C013A1B051B0DC918002AF2D12A
:100A40008B109A46402304215B4E83623C3BB06886
:100A50001843B06030680342FCD0306C01390005A7
:100A6000000D12180029F2D19310614652460EA8CB
:100A700000F080FA1DE7012D7DD02F000DE706ABB9
:100A8000981C00F05BFF002805D00027C72206ABAA
:100A90005B889A427F41002412E7484B9B4500DD6A
:100AA00098E0584601F0EAFB0599824601F018FAF1
:100AB0003949814601F05AF9002821D14846374981
:100AC00001F040F900281BD148463D4901F04EF99C
:100AD000002800D0F0E048463A4901F033F90028F8
:100AE00000D00BE14846384901F02CF9002800D12C
:100AF00009E14846354901F039F9002800D102E101
:100B00000023029300239946039B002B04DD039BE3
:100B1000013B039353460593404601F08FFB824609
:100B2000002D00D021E75346FA21D800C01A000159
:100B3000C01AC300C018C90000F0FCFFFA21029BD4
:100B40000600D800C01A0001C01AC300C0188900EE
:100B500000F0F0FF811B3018FFF764FB05E740460B
:100B6000174901F003F900284DD0FA239B009A465B
:100B7000174B9846E4E607A90EA800F045FA8CE664
:100B800010E000E0FF7C0000182400080004005082
:100B900000140140581B000000808944008089C473
:100BA000701700008C2300080038014094230008CF
:100BB0009C230008A42300080024014050460000A4
:100BC00000806D4400806DC40000A0420000A0C2FF
:100BD00000007A44524B9B452BDD524B9B4548DD30
:100BE000514B9B456EDD404601F028FB8246039B3E
:100BF000002B00DCB2E6039B4846013B039301F067
:100C00001DFB0290AEE64046484901F09BF80028E3
:100C100004D0474B9A46474B984691E64046464992
:100C200001F090F8002840D1404601F007FB8246D1
:100C300086E60023802164209A469C4605263F4A8A
:100C400049023F4B536063469360166013680B4242
:100C5000FCD05346013813600028F2D1404601F021
:100C6000EDFA8246484601F0E9FA02230290039326
:100C700078E6334B80219A46002364209C46002668
:100C800005252E4A49025346536096601560136845
:100C90000B42FCD06346013813600028F3D1404674
:100CA00001F0CCFA01258246A1E74046254901F032
:100CB0005DF80028B8D03FE6FA239B000293224B50
:100CC000994621E71E4B80219A46002364209C46CA
:100CD00000260525194A490253465360966015605F
:100CE00013680B42FCD06346013813600028F3D12F
:100CF000404601F0A3FA0025824678E70C4B0293A8
:100D00000C4B994600E7484601F098FA0290FBE642
:100D100001F0B4FA0590484601F090FA0290FBE623
:100D20001879000088900000E0AB000000806DC4DE
:100D300018FCFFFF00007AC40000A04210E000E0B1
:100D4000FF7C00000000A0C200007A44FEE7C0461D
:100D5000FEE7C0460121294A13680B4313600331A3
:100D600013681942FCD001230C21D360234AD368B5
:100D70000B40042BFBD10220214B19680143196061
:100D800019680138014319608023916B5B050B439F
:100D90009363802310211B4A1B011360536819427F
:100DA000FCD1164B1849DA680A40DA608822D96803
:100DB000D2030A43DA60DA681449DA60DA68DA6082
:100DC000DA68DA601A680A401A60802219685204E8
:100DD0000A4380211A6089041A680A42FCD0032061
:100DE000D9688143D960DA6804490243DA600C2289
:100DF000CB6813400C2BFBD17047C046001002405B
:100E00000020024000700040FFFF02FFFFFFFFFED6
:100E100000B583B002280CD003281CD0012811D0C3
:100E2000D22368465B0000930193FFF7E5FA03B015
:100E300000BD96239B0000930A4B68460193FFF781
:100E4000DBFAF4E7074B6846009396239B00019377
:100E5000FFF7D2FAEBE70023684600930193FFF710
:100E6000CBFAE4E7A8FDFFFFF8B54F46D6460324CA
:100E700080B51700089A1960136891465D00ED1857
:100E80006D18EB171C409A46099B64191B68A41047
:100E90000B9E191B9C4200DBE11A3268002A2FD1FD
:100EA000B94218DB191B9C4200DBE11A0123002A1E
:100EB00022D18F4208DC4A4614600A9A11603360DE
:100EC000C0BCBA46B146F8BD80235046DB019D4206
:100ED00050410300EFE78021C9018D42E2DA0F287B
:100EE00012D910210F205843001900F023FE099A4F
:100EF000030010603268D5E76329DCDC0023DAE701
:100F00006329CFDC0F28ECD808210720EBE7C04687
:100F100000B5411A83B0502910DCD2235B00009346
:100F2000503105DB68460193FFF766FA03B000BD58
:100F3000002368460193FFF75FFAF7E70023009369
:100F4000A533FF3368460193FFF756FAEEE7C04634
:100F50000023036043608360C36003614361836176
:100F6000C361036243628362C36203634363836357
:100F7000C363704770B51D000300040084B03033B4
:100F800003930C3B02930C3B01930C3B0093160024
:100F90000300C822C06BFFF767FF220034320392C0
:100FA0000C3A02920C3A01920C3A3100E06B231D8C
:100FB0000092C822FFF758FF220023003832039224
:100FC0000C3A02920C3A01920C3A08330092290032
:100FD000054AE06BFFF748FFE36B5A1C01D0013371
:100FE000E36304B070BDC0460F2700000122044B2C
:100FF00001701A700023034A4360137083607047C6
:10100000000000201800002070B5384D04002B7837
:10101000826882B0022B0BD0032B1DD0012B12D083
:101020000023684600930193FFF7E6F902B070BD14
:10103000642A1FDC00232E4A8B601278032A1ED0FC
:1010400001232B70F2E7642A11DD8A68002A1DD083
:1010500003CCFFF75DFFE9E741680068FFF758FF41
:101060002368C82BECDC6368C82BE9DCDEE70023CF
:101070008B60EDE71E4B1878FFF7CAFED6E768468F
:101080002B7000930193FFF7B7F9CFE78B604B68A4
:10109000072B28DC0A78581C4860D100154A5218E2
:1010A000D35C0024124E6846337000940194FFF71D
:1010B000A3F9C8204000FFF72BF93078431E012B1D
:1010C00003D90328BCD12C70B0E7FFF7A1FEE120C3
:1010D0008000FFF71DF9684600940194FFF78CF932
:1010E00001232B70A2E70323DBE7C04600000020AA
:1010F000180000203C24000870B51E4B1E4C022531
:10110000E361012323601D4B1D4E636080236268F1
:101110009B01134363601B4A04E0334225D1013A2B
:10112000002A22D0A3691D42F7D0A062154A0224EA
:101130001148134D04E02B4217D1013A002A14D074
:1011400083691C42F7D081620E4A20200A490C4C68
:1011500004E0234209D1013A002A06D08B691842E3
:10116000F7D0044B0120CB6103E00020024B014A81
:10117000DA6170BD301700000054004052000202D6
:101180001017000020A1070070B52C4B2C4C022535
:10119000E361012323602B4B2B4E63608023626845
:1011A0009B0113436360294A04E0334240D1013A72
:1011B000002A3DD0A3691D42F7D0A062234A202413
:1011C0001F48214D04E02B4232D1013A002A2FD092
:1011D00083691C42F7D0194B0424C36101230360C7
:1011E0001B4B194D4360802342689B0113434360AE
:1011F000164A134804E02B421AD1013A002A17D0AC
:1012000083691C42F7D0436A104A0B7010230C49C3
:10121000C3610D4C202004E0234209D1013A002A89
:1012200006D08B691842F7D0044B0120CB6103E054
:101230000020034B014ADA6170BDC0463017000040
:1012400000540040520001021017000020A10700C6
:101250005204010270B5354B354C0225E361012380
:101260002360344B344E6360802362689B011343D8
:101270006360324A04E0334252D1013A002A4FD02F
:10128000A3691D42F7D0A0622C4A202428482A4D89
:1012900004E02B4244D1013A002A41D083691C4228
:1012A000F7D0224B0424C36101230360244B224D59
:1012B0004360802342689B01134343601F4A1C48DC
:1012C00004E02B422CD1013A002A29D083691C4228
:1012D000F7D0466A04243602B6B2184A1448164DAE
:1012E0000E8004E02B421BD1013A002A18D08369FA
:1012F0001C42F7D0436A114A1E4310230E800E4C45
:10130000C3610B49202004E0234209D1013A002A9D
:1013100006D08B691842F7D0044B0120CB6103E063
:101320000020034B014ADA6170BDC046301700004F
:1013300000540040520001021017000020A10700D5
:1013400052040202F0B50022C646050000B5028034
:1013500042608260C2600120A024344BE405D96A57
:1013600080460143D9622168314880268446014085
:10137000802021602168C001084320606068B0437C
:101380006060C020A16800020843A0606046E16878
:1013900001400220E160A662D96A0143D96280213E
:1013A000986B890301439963224B234819680140D4
:1013B000196019688C46A0216746090239431960F3
:1013C000196A0902090A1962196A8C468821674656
:1013D00049053943C02719625968394359609968EA
:1013E0000140996099688C46A0216746C90139433C
:1013F0009960D9680140D960104B05201A60104AE5
:101400001A61104ADA61FEF783FF0A20A661FEF72F
:101410007FFF00F04DF8002805D0434601206B60A7
:1014200080BCB846F0BD0020FAE7C046001002407C
:10143000FF3FFFFF00040050FF0FFFFF005400407C
:10144000130F42703017000030B583B06B46DC1DBF
:101450000023050002212370012801D0012141252C
:101460000120FFF749FE002802D1002003B030BD63
:1014700029000020FFF740FE0028F6D0072502E0F3
:1014800023781D4206D121001320FFF77DFE00289E
:10149000F6D1EAE701210B20FFF72EFE0028E4D069
:1014A00000210020FFF728FE431E9841C0B2DDE76F
:1014B000F0B5C64600B582B06B460025DC1D2100A4
:1014C000C0202570FFF760FE00280AD02378EE2B9D
:1014D00006D1210089202570FFF756FE002804D18F
:1014E000002002B080BCB846F0BD012321788920DD
:1014F00019432170FFF700FE0028F1D00021882059
:10150000FFF7FAFD012106008020FFF7F5FD01211C
:101510000700FF20FFF7F0FD002107400020FFF744
:10152000EBFDFFB2FA4907409120FFF72DFE0121A4
:1015300007400020FFF7E0FD00210740FF20FFF7F4
:10154000DBFD002107408020FFF7D6FD731E9E4182
:1015500038403042C4D00121FF20FFF7CDFD0021EB
:1015600006000020FFF7C8FD00210700FF20FFF75D
:10157000C3FD002107400920FFF7BEFDFFB2384040
:10158000804600211020FFF7B7FD474600210740A5
:101590001120FFF7B1FD012107402420FFF7ACFD2A
:1015A000FF2107402520FFF7A7FD002107407520F8
:1015B000FFF7A2FD01210740FF20FFF79DFD384006
:1015C00080462C214E20FFF797FD4746002107401B
:1015D0004820FFF791FD202107403020FFF78CFDC8
:1015E00000210740FF20FFF787FD09210740302039
:1015F000FFF782FD3840804600215420FFF77CFD34
:101600004746042107403120FFF776FD03210740BC
:101610003220FFF771FD832107404020FFF76CFD6A
:10162000252107404620FFF767FD3840804600210E
:101630006020FFF761FD4746002107402720FFF7A4
:101640005BFD062107405020FFF756FD00210740B3
:101650005120FFF751FD962107405220FFF74CFD26
:101660003840804608215620FFF746FD4746302186
:1016700007405720FFF740FD002107406120FFF79A
:101680003BFD002107406220FFF736FD00210740A7
:101690006420FFF731FD3840804600216520FFF7C8
:1016A0002BFD4746A02107406620FFF725FD0121BD
:1016B0000740FF20FFF720FD322107402220FFF7DF
:1016C0001BFD142107404720FFF716FD38408046D8
:1016D000FF214920FFF710FD4746002107404A201F
:1016E000FFF70AFD00210740FF20FFF705FD0A2153
:1016F00007407A20FFF700FD002107407B20FFF71D
:10170000FBFC3840804621217820FFF7F5FC474656
:1017100001210740FF20FFF7EFFC34210740232081
:10172000FFF7EAFC002107404220FFF7E5FCFF211C
:1017300007404420FFF7E0FC384080462621452042
:10174000FFF7DAFC4746052107404620FFF7D4FCA7
:10175000402107404020FFF7CFFC062107400E2024
:10176000FFF7CAFC1A2107402020FFF7C5FC3840CC
:10177000804640214320FFF7BFFC47460021074039
:10178000FF20FFF7B9FC032107403420FFF7B4FC2A
:10179000442107403520FFF7AFFC01210740FF201F
:1017A000FFF7AAFC3840804604213120FFF7A4FC53
:1017B0004746092107404B20FFF79EFC05210740C3
:1017C0004C20FFF799FC042107404D20FFF794FCC3
:1017D00000210740FF20FFF78FFC384080460021A2
:1017E0004420FFF789FC4746202107404520FFF7AA
:1017F00083FC082107404720FFF77EFC2821074093
:101800004820FFF779FC002107406720FFF774FCB0
:101810003840804604217020FFF76EFC47460121C6
:1018200007407120FFF768FCFE2107407220FFF798
:1018300063FC002107407620FFF75EFC0021074093
:101840007720FFF759FC384080460121FF20FFF741
:1018500053FC4746012107400D20FFF74DFC0021B6
:101860000740FF20FFF748FC012107408020FFF7D9
:1018700043FCF82107400120FFF73EFC384080463A
:101880000121FF20FFF738FC4746012107408E2049
:10189000FFF732FC012107400020FFF72DFC00215B
:1018A0000740FF20FFF728FC002107408020FFF7BA
:1018B00023FC731E9E413840304200D110E60421C3
:1018C0000A202570FFF718FC002800D108E6210047
:1018D0008420FFF759FC002800D101E6102321786D
:1018E000842099432170FFF707FC002800D1F7E519
:1018F00001210B20FFF700FC002800D1F0E5E821D2
:101900000120FFF7F9FB002800D1E9E502E0C0461D
:10191000190000200020FFF797FD002800D1DFE527
:101920000120FFF791FD002800D1D9E5E821012031
:10193000FFF7E2FB431E9841C0B2D2E5F0B583B099
:101940006B466A469C1D0023012107008020D3714D
:101950002370FFF7D1FB01210500FF20FFF7CCFB2F
:10196000002106000020FFF7C7FB2A4B064019782C
:101970009120FFF7C1FBF6B2012106400020FFF7DE
:10198000BBFB00210640FF20FFF7B6FB002106400D
:101990008020FFF7B1FB6B1E9D413040284202D1F1
:1019A000002003B0F0BD01210020FFF7A5FB0028B7
:1019B000F6D0012502E023781D4206D02100002048
:1019C000FFF7E2FB0028F6D1EAE7072403E06B46C5
:1019D000DB791C4207D16B461320D91DFFF7D4FBDE
:1019E0000028F4D1DCE739001E20FFF733FC002883
:1019F000D6D001210B20FFF77FFB0028D0D0064A6C
:101A00003B88944663440120012BCAD8034B3B809A
:101A1000C7E7C0461900002002E0FFFFFE1F0000DC
:101A2000002243088B4274D303098B425FD3030A1D
:101A30008B4244D3030B8B4228D3030C8B420DD330
:101A4000FF22090212BA030C8B4202D312120902BE
:101A500065D0030B8B4219D300E0090AC30B8B42FC
:101A600001D3CB03C01A5241830B8B4201D38B03AA
:101A7000C01A5241430B8B4201D34B03C01A52414F
:101A8000030B8B4201D30B03C01A5241C30A8B4292
:101A900001D3CB02C01A5241830A8B4201D38B027D
:101AA000C01A5241430A8B4201D34B02C01A524121
:101AB000030A8B4201D30B02C01A5241CDD2C30993
:101AC0008B4201D3CB01C01A524183098B4201D30F
:101AD0008B01C01A524143098B4201D34B01C01AFA
:101AE000524103098B4201D30B01C01A5241C30872
:101AF0008B4201D3CB00C01A524183088B4201D3E1
:101B00008B00C01A524143088B4201D34B00C01ACC
:101B10005241411A00D20146524110467047FFE738
:101B200001B5002000F0F0F802BDC0460029F7D052
:101B300076E7704703460B437FD4002243088B426D
:101B400074D303098B425FD3030A8B4244D3030B44
:101B50008B4228D3030C8B420DD3FF22090212BA09
:101B6000030C8B4202D31212090265D0030B8B4285
:101B700019D300E0090AC30B8B4201D3CB03C01A6F
:101B80005241830B8B4201D38B03C01A5241430B4A
:101B90008B4201D34B03C01A5241030B8B4201D33A
:101BA0000B03C01A5241C30A8B4201D3CB02C01AA5
:101BB0005241830A8B4201D38B02C01A5241430A1D
:101BC0008B4201D34B02C01A5241030A8B4201D30C
:101BD0000B02C01A5241CDD2C3098B4201D3CB01B3
:101BE000C01A524183098B4201D38B01C01A524162
:101BF00043098B4201D34B01C01A524103098B4266
:101C000001D30B01C01A5241C3088B4201D3CB0050
:101C1000C01A524183088B4201D38B00C01A524133
:101C200043088B4201D34B00C01A5241411A00D2E3
:101C300001465241104670475DE0CA0F00D049424C
:101C4000031000D34042534000229C4603098B42BC
:101C50002DD3030A8B4212D3FC22890112BA030A44
:101C60008B420CD3890192118B4208D389019211C6
:101C70008B4204D389013AD0921100E08909C3094B
:101C80008B4201D3CB01C01A524183098B4201D34D
:101C90008B01C01A524143098B4201D34B01C01A38
:101CA000524103098B4201D30B01C01A5241C308B0
:101CB0008B4201D3CB00C01A524183088B4201D31F
:101CC0008B00C01A5241D9D243088B4201D34B003A
:101CD000C01A5241411A00D20146634652415B107C
:101CE000104601D34042002B00D54942704763465D
:101CF0005B1000D3404201B5002000F005F802BDA2
:101D00000029F8D016E770477047C046844608009F
:101D10006146FFE71FB500F09FF8002801D40021BD
:101D2000C8421FBD10B500F02BF84042013010BD75
:101D300010B500F091F8002801DB002010BD012053
:101D400010BDC04610B500F087F8002801DD002066
:101D500010BD012010BDC04610B500F037F80028B6
:101D600001DC002010BD012010BDC04610B500F000
:101D70002DF8002801DA002010BD012010BDC0465A
:101D800070B5420045024E024C00C30F6D0A01209F
:101D9000120E760A240EC90FFF2A06D0FF2C03D09C
:101DA000A24201D1B54206D070BD002DFCD1FF2C5E
:101DB000FAD1002EF8D18B4206D00120002AF3D1AF
:101DC0002800431E9841EFE70020EDE770B5420080
:101DD00045024E024C00C30F6D0A120E760A240E05
:101DE000C80FFF2A1BD0FF2C0ED0002A1BD1002CBD
:101DF00001D1002E1CD0002D0CD083421CD002211A
:101E0000581E0840013870BD002E22D1002AF4D19E
:101E1000002DF2D10028F6D101204042F3E7002D39
:101E200017D1FF2CF0D0002CE7D1002EE5D1E6E74A
:101E30000020002DE7D0E2E7A24205DCEADBB54254
:101E400002D8E7D30020DEE7434258414000013882
:101E5000D9E702204042D6E770B5420045024E0263
:101E60004C00C30F6D0A120E760A240EC80FFF2A0B
:101E70000BD0FF2C0DD0002A1FD1002C16D1002E24
:101E800014D10020002D10D009E0002D0CD1FF2C22
:101E900013D1002E08D1002A08D0834212D002218B
:101EA000581E0840013800E0022070BD002DF4D11A
:101EB0000028FAD101204042F7E7002CEDD1002E96
:101EC000EBD1ECE7A24205DCF2DBB54202D8EFD35E
:101ED0000020EAE74342584140000138E5E7C046A8
:101EE000F8B5CE46474643025B0A4E02DA009446F6
:101EF000720A914645004A0080B52D0E1F00C40F9E
:101F0000120EC90FB609FF2A5BD0012041408C4256
:101F100039D0A81A00285ADD002A6AD0FF2D00D136
:101F2000D9E08022D20416431B2800DCE9E001201E
:101F30006346181A430100D4B4E0800187093800D1
:101F400000F0EAF905388740854200DCCCE02D1A24
:101F5000B5483840430704D00F230340042B00D07A
:101F60000430430100D4A0E06A1CFE2D00D18DE0B6
:101F70008001470AD2B2D0053843E4072043C0BCF1
:101F8000B946B046F8BDA81A8046002845DD002AAB
:101F900070D0FF2D00D19EE08023DB041E4343461A
:101FA0001B2B00DCD2E00120604443017AD50135CF
:101FB000FF2D6BD001239D4A034040081040184379
:101FC000C8E7002E20D08C4223D02800FF380028FC
:101FD00039D0571B002D00D09DE06346002B00D167
:101FE000DBE07B1E012F00D10DE1FF2F71D01F0020
:101FF00098E0002E00D1A7E0421E012800D1E6E0C3
:10200000FF2868D010008FE701204140A14200D096
:102010007FE7FF2040428046A8444046002838D051
:10202000511B002D00D1AEE0FF2A00D1DFE080235C
:102030006046DB04184384461B2900DCD9E00120FC
:1020400015008019B1E7FE206A1C104271D1002DE5
:1020500000D0A6E06346002B00D1D9E00022002E7C
:1020600000D188E7981B430100D4E1E063460C00EF
:10207000F01A6FE7002E00D1B7E00200013A012804
:1020800000D19CE0FF2826D0904688E7FF22002759
:1020900071E7FE206A1C104264D0FF2AF6D01500BA
:1020A00066447008430700D056E7C308FF2D12D0DE
:1020B0005B025F0AEAB25EE76246002A00D196E060
:1020C000002E08D08022D203134204D0484610428A
:1020D00001D10C004B46002BD8D08027FF031F43B3
:1020E0007F02FF227F0A46E720233A00451B380083
:1020F0000135EA405D1BA840431E9841002510436E
:1021000028E720231B1A32009E40C2403000431EA5
:10211000984110430CE7FF2ADBD080236046DB04A4
:10212000184384461B2F56DD01200C001500301A81
:1021300000E763469F1B7B013DD4002F00D0FEE6E5
:1021400000240022002716E70500AFE732004346CF
:102150004146DA4020235B1A9E403000431E9841DE
:10216000104321E7002DA7D16346002B59D0002250
:10217000002E00D1FFE630006044430192D52A4B87
:10218000013518408EE76346002B47D04B1E0129CE
:1021900015D0FF292BD019004EE70C004B463D000F
:1021A00084E76246002A8BD1002E92D1802700243A
:1021B000FF22FF03DFE663460C00F71ABFE630009C
:1021C00060440125430100D46CE70225F2E6634632
:1021D0000125981BAEE6202364466046FC40DF1BC9
:1021E000B840431E984120439FE705005EE74B46F9
:1021F00071E7202365466046CD40591A8840431E4A
:10220000984128431CE763460C000125F01A91E62B
:10221000002E95D00C004F460022ACE64B460D0038
:1022200044E74F460022A6E6FFFFFFFBFFFFFF7DCE
:10223000002800D036E7002400279CE64102420037
:10224000C30F490A0020120E7E2A03DD9D2A02DDFB
:10225000094A98187047802000040143952A07DC3A
:102260009620821AD1404842002BF3D10800F1E7B2
:10227000963A9140F7E7C046FFFFFF7FF8B5002888
:1022800013D0C317C6185E40C40F300000F044F8E6
:102290009E2305001B1A962B0FDC082801DD083D44
:1022A000AE407602760AD8B202E000240020002672
:1022B000C0053043E4072043F8BD992B0CDD05220F
:1022C0003100121AD1400A00010030001B31884051
:1022D000411E884102431600052D12DC31000D4FCE
:1022E0003940720709D00F203040042805D004314E
:1022F0004A0102D59F2339405B1B89014E0AD8B29F
:10230000D6E76A1F96403100024F39407207F4D079
:10231000E9E7C046FFFFFFFB1C2101231B04984295
:1023200001D3000C10391B0A984201D3000A083966
:102330001B09984201D30009043902A2105C40181D
:102340007047C046040302020101010100000000C1
:1023500000000000546F4620696E6974204F4B0DD9
:102360000A000000546F4620696E69742046414996
:102370004C45440D0A0000004C3D00002020523D19
:1023800000000000202049583D0000000A0D207880
:102390003A200000202020793A2000002020206DE3
:1023A000733A00002020206175746F6D6F64653A88
:1023B00000000000526F626F742073746172746960
:1023C0006E672075702E2E2E0D0A00002D2D2D20EB
:1023D000524157204144432044554D5020286E6FB0
:1023E0002066696C746572696E6729202D2D2D0D2C
:1023F0000A0000002D2D2D20454E442044554D50FF
:102400002C207374617274696E67207761726D75C8
:1024100070202D2D2D0D0A005761726D757020648E
:102420006F6E652E20456E746572696E67206D61F2
:10243000696E206C6F6F702E0D0A000000010203A0
:10244000030303030102010200000303020002016F
:042450000201000382
:042454000100000083
:04000005080000B936
:00000001FF
