:020000040800F2
:1000000000200020B9000008610F0008650F0008FB
:1000100000000000000000000000000000000000E0
:10002000000000000000000000000000610F000858
:100030000000000000000000610F0008610F0008D0
:10004000610F0008610F0008610F0008610F0008D0
:10005000610F0008610F0008610F0008610F0008C0
:1000600000000000610F0008610F0008610F000828
:10007000610F0008610F000800000000690200081D
:1000800000000000610F00080000000000000000F8
:10009000610F000800000000610F0008610F0008F8
:1000A000610F0008610F0008610F0008610F000870
:1000B000610F0008610F000800F056FF184B194A45
:1000C00093420ED2013AD41A0022A408601C164DA5
:1000D0008000A958995004328242FAD1A400043316
:1000E000E318124A934209D20321013AD21A8A43F1
:1000F000191D5218002102C39342FCD10C4D0D4B27
:100100009D4209D20024013B5E1BB608013608CD92
:1001100001349847B442FAD100F098F9FEE7C0469E
:100120000000002004000020F82800081C00002027
:10013000F8280008F828000810B50478002C09D029
:100140008021054AD3691942FCD094624478013079
:10015000002CF7D110BDC04600380140F0B5C646AE
:1001600000B50D0084B000281DDB061E24D130230D
:1001700001AE33706B460124DF1C802020211E4A13
:10018000D3691842FCD0013D9162A542F8D180218B
:10019000194A3F193C78D3691942FCD09462BE4297
:1001A00026D0013FF6E78021134AD3691942FCD0DB
:1001B0002D2346429362013D6B460024DF1C01342F
:1001C0003B19984630000A2101F052FE4346303177
:1001D000197030000A2101F0C5FD33000600092B1B
:1001E000EDD801AEAC42C8DB8021034A3F19D1E70C
:1001F00004B080BCB846F0BD0038014000220C4B72
:1002000001211A605A609A60DA60A023DB055A69FE
:100210000A435A615A6901310A435A615A690231E3
:100220000A435A615A6904310A435A617047C04609
:1002300008000020F0B5002810D0802100260025FD
:100240000524074A074F013849025760956014603A
:1002500013680B42FCD016600138F6D2F0BDC046E0
:1002600010E000E0FF7C000080220121D20513692C
:1002700010B58B4313612A4A13689C46294B1868B2
:10028000844544D9A020C00584464069884361461E
:10029000486150681968884232D9A0200224C005FC
:1002A0004169A143416190681968884221D9A02021
:1002B0000424C0054169A1434161D1681A68914293
:1002C00010D9A0210820C9054A6982434A611A68E9
:1002D00001321A60FA2219689200914201D3002279
:1002E0001A6010BDA0210820C9054A6902434A616D
:1002F000EDE7A0200424C005416921434161DCE70A
:10030000A0200224C005416921434161CBE7A02020
:10031000C00584464069014360464161B9E7C04673
:10032000080000200400002006C80020184B1860B8
:1003300058609860D860002917DB09D1002A0EDBCD
:10034000002A04D0FA2189008A4217DADA6070475D
:10035000FA20800081420EDA5960002AF0DA0D4955
:100360008A4211DB52429A60F1E70A48814208DB77
:1003700049421960E2E708495960EEE7064ADA6047
:10038000E5E705491960D9E7034A9A60DFE7C04607
:100390000800002019FCFFFFE7030000F8B5DE4667
:1003A0004E464546574604000078E0B5032101302B
:1003B00001F048FE00236360A3609C46A023DB0598
:1003C0009B468023217088460025002405215B0080
:1003D00099461B4E1B4B5A464846526902435846A3
:1003E000426180204002282282465E609C60196043
:1003F000574618683842FBD0013A1D60002AF4D1F4
:100400005A461148526902405846426180204002D3
:10041000282282465E609C60196057461868384200
:10042000FBD0013A1D60002AF4D1E04502D0012240
:100430009444D0E7F0BCBB46B246A946A046F8BDFE
:10044000FF7C000010E000E0FFFEFFFFF0B5DE469D
:1004500057464E464546E0B5A7B016A800F052FEF6
:100460000121E24B1A680A431A60042219680A4201
:10047000FCD0DA68DE490A40DA608822D968D20303
:100480000A43DA608022196852040A431A60802203
:10049000D64B920419681142FCD00120D5490A6854
:1004A00002430A600321DA680A43DA60CF4A09315D
:1004B000D3680B400C2BFBD101200225D36ACE4C14
:1004C0000343D362D36A55262B43D3628023516BF7
:1004D000DB010B435363A023DB051968214019603E
:1004E00080211C6809032143F0241960596AA14343
:1004F0005962596AB03C21435962C049D634CC6034
:100500000E3CFF3C0C60D16AF6340143D162916B22
:10051000014391631968A143196019683143196057
:100520005968463EB1435960996821439960D9683A
:10053000A1430024D960596931435961B04940262B
:100540000C6007914C608C60CC60AE49FF360C604B
:100550008021C9058C62CE620C618034C8600C6059
:100560008024A94E4861376824023C4334600C68FB
:1005700004430C6062B6D46A0443D4628024566B90
:10058000A40034435463FC221C68920122431A6085
:100590009E4B1A69114319619A68104206D09A68F5
:1005A000154301229D6099680A42FCD18023974A35
:1005B0005B0591680B439360954B964A5A60002205
:1005C0009A6005321A608022520219681142FCD0EA
:1005D00000221A6080228D4B120699680A439A60A5
:1005E0009A68002AFCDB05225A61002201210124BD
:1005F000DA609A680A439A60844A260013681E40AB
:100600001C42FAD0FFF7FAFD2021784A0FA8536B5D
:1006100000270B4353631F227F4B00219A627F4ABE
:100620000025DA621A68A2431A6000F0B9FD12A828
:1006300000F09AFF774B80210390FA209C46052416
:10064000734A400049026346536095601460136822
:100650000B42FCD0013817600028F4D17048FFF736
:100660006BFD039B6F48002B00D06F48FFF764FDC4
:100670006E48FFF761FD14239B466D4B5F4C029360
:10068000043398466B4B614D01935F1D5B460496A6
:1006900000938022E3691A42FCD04C238022A3629B
:1006A000E3691A42FCD03D23042100200422A36206
:1006B0001D3BAB62AB681343AB602B681A42FCD0A6
:1006C0002B6C01391B051B0DC0180029F2D1032327
:1006D000C2171340181880100431FFF73FFD202087
:1006E00080220299E3691A42FCD0A06201310878A5
:1006F0004145F7D11023042100200422AB62AB68EE
:100700001343AB602B681A42FCD02B6C01391B05DC
:100710001B0DC0180029F2D10323C217134018186B
:1007200080100431FFF71AFD202080220199E3692F
:100730001A42FCD0A06201310878B942F7D14023B7
:10074000042100200422AB62AB681343AB602B682A
:100750001A42FCD02B6C01391B051B0DC018002957
:10076000F2D10323C2171340181880100431FFF789
:10077000F5FC8022E3691A42FCD00D238022A3629B
:10078000E3691A42FCD00A23A362224B80219B46D4
:10079000002364209A46994605261D4A49025B4675
:1007A00053604B469360166013680B42FCD053466F
:1007B000013813600028F2D1009B013B0093002B0D
:1007C00000D066E70220094A049ED36A0425034349
:1007D000D362194B0D301A680C4C82431A60DA68E8
:1007E0008243DA60DA680A38024327E000100240E8
:1007F000FFFF02FF00200240FFFFF3FF003801402F
:10080000080000200400002000E100E00024014076
:1008100010E000E0FF7C000000140140FFFF00003A
:10082000582800080C280008FC2700087028000839
:10083000202800082828000800040050DA60A023BF
:10084000DB051A68C74802401A601A68C648114397
:1008500019605A69C5490A405A61FFF76DFC402387
:100860009946203B98464B4600934346042200207D
:10087000A362A3682B43A36023681D42FCD0236CB2
:10088000013A1B051B0DC018002AF2D10321C31722
:1008900019401023091800208910A3620432A368AC
:1008A0002B43A36023681D42FCD0236C013A1B0537
:1008B0001B0DC018002AF2D1C31703321A4040237F
:1008C0001218002704209210A362A3682B43A36090
:1008D00023681D42FCD0236C01381B051B0DFF183B
:1008E0000028F2D10323F8170340DB199B1016A848
:1008F00000F01AFC9E4B80219B46002302209A4662
:10090000994605279B4A49025B4653604B469360D4
:10091000176013680B42FCD053461360012801D0C6
:100920003000F1E7009B013B0093002B9DD19248E2
:10093000FFF702FC0023049302930D930C9306230C
:10094000019300230C220693013300938B4B8C4CB4
:1009500008939D1D8B4B0993063398468A4B0A9347
:1009600006339B46894BD21892460B932369DB07CB
:1009700014D523699B0711D5009B012B00D18BE077
:10098000039B002BF2D012A800F06EFE159B002BEB
:10099000ECD0FFF733FC2369DB07EAD40022012106
:1009A0007B4B5A621A680A431A600122013123699B
:1009B0001A42FCD023691942F9D0754B196891434A
:1009C00019605F6AFA23DB009F42D5DD714B9F42BD
:1009D00000DDEBE0380001F0ABFE0C99061C01F0E5
:1009E0003DFC0290049801F083FE6B498146029819
:1009F00001F05EFB002800D165E1019B002B00DCCB
:100A00002EE2013B0193654B9F4200DD1DE2002376
:100A1000059300230C960293009B002B00D0F8E076
:100A2000FA21059BC900D800C01A0001C01AC300F2
:100A3000C01801F021FA4B46FA210600D800C01A6E
:100A40000001C01AC300C018890001F015FA831B09
:100A500000930023079A136053609360D3603318A8
:100A600000D577E1002B06D0FA229200934200DBFA
:100A70004B4B079A5360831B00D562E1009B002B10
:100A800000D1C6E0FA229200934200DB444B079A61
:100A9000D36000230093BCE0042000260421414AD7
:100AA0001F33936293680B43936013681942FCD021
:100AB000136C01381B051B0DF6180028F2D1032119
:100AC000F317194010238919936204260027042282
:100AD0003448891083681343836003681A42FCD04A
:100AE000036C013E1B051B0DFF18002EF2D10322E3
:100AF000FB171A40D21993109C464023042700226A
:100B000083622848043683683343836003681E4247
:100B1000FCD0036C013F1B051B0DD218002FF2D136
:100B20000323D01703409B189B10624616A800F0C1
:100B3000FBFA039B002B06D012A800F095FD159B35
:100B4000002B00D025E7069B5A1C174B06929A42B1
:100B500000DC0BE70FA916A800F030FB002306937A
:100B600004E7C046FFFFFCFF98280008FFFEFFFFD8
:100B7000FF7C000010E000E0BC28000830280008DE
:100B800000040050382800084028000848280008C1
:100B900000140140581B00000080894470170000B9
:100BA000E7030000002401402A020000029801F03F
:100BB0009FFDCD4B05909F426CDC380001F0B8FDE5
:100BC0000D99061C01F04AFBC849049001F070FA27
:100BD000002800D0ABE0C649049801F055FA00287F
:100BE00000D0A4E0C349049801F062FA002800D1C3
:100BF00086E0019B002B00DC2CE1013B0193FA23F2
:100C00009B009946BC4B04930D96009B002B00D192
:100C100006E70A2680210898B84AD3691942FCD011
:100C2000966201300678A842F7D105210598FFF7B2
:100C300095FA202680210998B04AD3691942FCD040
:100C40009662013006784045F7D105214846FFF706
:100C500085FA202680210A98A84AD3691942FCD037
:100C60009662013006785845F7D107213800FFF722
:100C700075FA202680210B98A04AD3691942FCD02E
:100C80009662013006785045F7D102210098FFF7AF
:100C900065FA71E6049801F02BFD994B81469F425D
:100CA00064DD984B9F4278DD974B9F4200DC9AE0D1
:100CB000964B9F4200DC92E0019AD3179B1ADB0F00
:100CC000D31A0193A1E78A49029801F0DDF90028BF
:100CD00000D092E68749029801F0EAF9002800D195
:100CE000D3E0019B002B72DD013B0193884B9F42B7
:100CF00000DC93E0FA239B0005937F4B029383E78C
:100D00008449049801F0C0F9002800D093E0049BC6
:100D10008149181C994601F0B7F9002800D1A4E0D8
:100D200048467E4901F0C4F9002800D19DE0019BAE
:100D3000002B16DD013B0193002399460023049309
:100D400062E7FA23361A9B009E4200DB744E079B33
:100D50009E609EE6734A93423FDB5B42079A1360B4
:100D600089E600239946002304934EE7002380215F
:100D700064209C4605266C4A49026C4B5360002354
:100D80009360166013680B42FCD063460138136011
:100D90000028F2D10223019337E700238021642049
:100DA0009C460526604A4902604B536000239360CD
:100DB000166013680B42FCD06346013813600028AC
:100DC000F2D1019B002B30DC0123009321E7FA23B1
:100DD0009B000593484B029317E7514BBEE70FA8C2
:100DE000FFF7DCFA68E70023802164209C464E4A26
:100DF0004E4E4902634656609360052313601368A4
:100E00000B42FCD00023013813600028F2D1019A74
:100E1000D3179B1ADB0FD31A019301E6FA239B0029
:100E20000593354B0C960293F6E5019B013B01932C
:100E300001230093EDE6019B002B21DD013B019393
:100E40003B4B99463B4B0493DEE60023059300237E
:100E50000293D9E6FA239B009946274B0493D4E6E4
:100E60000023059300230293CFE6049801F040FC91
:100E7000019B8146002B00DCC7E6013B0193C3E6E2
:100E80002B4B99462B4B0493BFE62249029801F065
:100E9000FBF8002815D12049029801F0F5F8002848
:100EA00050D1029801F024FC019B0590002B00DC3E
:100EB000ABE6013B0193164B9F4200DDA4E60C9686
:100EC000AAE5019B002B09DD013B0193104B9F42DA
:100ED00032DD174B0593174B029395E6144B0593A0
:100EE000144B029391E6C0465046000000808944AE
:100EF000008089C400806D4400007A4400380140BD
:100F00001879000088900000E0AB000020CB0000C2
:100F10007017000000806DC40000A0420000A0C255
:100F2000E703000019FCFFFF10E000E0FF7C000079
:100F300018FCFFFF00007AC4064B0C960593064B85
:100F4000029369E50549029801F0B2F80028A8D09B
:100F500053E5C04618FCFFFF00007AC40000A0C2A1
:100F6000FEE7C046FEE7C0460121294A13680B434D
:100F70001360033113681942FCD001230C21D360A4
:100F8000234AD3680B40042BFBD10220214B196864
:100F90000143196019680138014319608023916B7E
:100FA0005B050B439363802310211B4A1B011360D5
:100FB00053681942FCD1164B1849DA680A40DA60C6
:100FC0008822D968D2030A43DA60DA681449DA6001
:100FD000DA68DA60DA68DA601A680A401A60802231
:100FE000196852040A4380211A6089041A680A4267
:100FF000FCD00321DA688A43DA60DA680A43DA60EF
:101000000C220349CB6813400C2BFBD17047C04620
:10101000001002400020024000700040FFFF02FF6D
:10102000FFFFFFFEF0B5C646032400B51960069B1E
:1010300090461B68099E5D00ED186D18079BEF1721
:101040003C401A686419A410944230DA3168131BCA
:10105000002930D1984510DC0122984507DC06991B
:101060000C6008990B60326080BCB846F0BD8021EE
:101070000022C9018D427A41F1E78023DB019D42C4
:1010800020DA0F281BD910210F205043001900F03F
:10109000F3FE079B18603268031B844200DB231AAF
:1010A000002AD9D00122632BD9DC0022D7E731688E
:1010B000A31A0029CED0632BF4DC0F28E3D8082133
:1010C0000720E2E7131B9442C6DBA31AC4E7C0461D
:1010D00000B5002283B0401A502803DCD22252000F
:1010E000503008DBD22368465B0000920193FFF783
:1010F0001BF903B000BD0023684600920193FFF77F
:1011000013F9F6E70023036043608360C360036163
:1011100043618361C361036243628362C3620363A9
:1011200043638363C3637047F0B51E00030004008C
:1011300085B03033C56B03930C3B02930C3B01939A
:101140000C3B17000093C82203002800FFF76AFF3A
:101150002200343203920C3A02920C3A01920C3A79
:1011600039002800231D0092C822FFF75BFF2200F0
:101170002300383203920C3A02920C3A01920C3A54
:101180000833009231002800044AFFF74BFF6B1C24
:1011900001D00135E56305B0F0BDC0460F27000062
:1011A0000122044B01701A700023034A436013703C
:1011B00083607047000000201800002030B54E4DBD
:1011C00004002B78826883B0022B16D0032B09D041
:1011D000012B1BD1642A25DC00238B6003CCFFF795
:1011E00077FF08E041680068FFF772FF2368C82BAB
:1011F00014DD01232B7003B030BD404B1B78642AF3
:1012000034DC00228A60032BF3D12A7000220023F1
:10121000684600920193FFF787F8ECE76368C82BF4
:10122000E7DCE8E78A68002AD8D14A688B60072A99
:1012300056DC531C08784B60314BC0001B189B5C7C
:101240002E4C002223700023684600920193FFF782
:101250006BF8C8204000FEF7EDFF23785A1E012AE4
:1012600026D9032BC5D100232B70C4E7022B0CD049
:10127000032BCBD0012B11D19623224A9B00684629
:1012800000920193FFF750F8B5E796221D4B9200AC
:10129000684600920193FFF747F8ACE7D222D223C9
:1012A00052005B00684600920193FFF73DF8A2E709
:1012B000022B17D09623134A9B0068460092019395
:1012C000FFF732F8E1208000FEF7B4FF0023002290
:1012D000684600920193FFF727F801232B708AE7F5
:1012E0000323ADE79622074B9200684600920193D4
:1012F000FFF71AF8E6E7C0460000002018000020BB
:10130000E0280008A8FDFFFF30B5204B0D00204964
:101310008446CB6101230B601E4B02204B6080236F
:101320004A689B0113431C4C1C4A4B6004E0234257
:1013300026D1013A002A23D08B691842F7D06346A0
:1013400002248B62154A1248134904E00B4217D15C
:10135000013A002A14D083691C42F7D085620F4AF3
:1013600020200B490C4C04E0234209D1013A002A09
:1013700006D08B691842F7D0044B0120CB6103E003
:101380000020034B014ADA6130BDC046301700002F
:1013900000540040520002021017000020A1070074
:1013A0002D4B84462D4830B5C361012303602C4B7F
:1013B0000D004360802342689B0113430221294AA8
:1013C000294C436004E0234241D1013A002A3ED037
:1013D00083691942F7D0634620248362214A1F485B
:1013E000214904E00B4232D1013A002A2FD083690F
:1013F0001C42F7D0184B1949C361012303601B4BF2
:10140000194C4360802342689B0113434360154A93
:10141000042004E023421AD1013A002A17D08B6934
:101420001842F7D04B6A20202B7010230D4ACB6155
:101430000D4C0A4904E0234209D1013A002A06D0A2
:101440008B691842F7D0044B0120CB6103E00020E8
:10145000024B014ADA6130BD3017000000540040F1
:101460005200010220A107001017000052040102DF
:10147000374B8446374830B5C36101230360364B90
:101480000D004360802342689B0113430221334ACD
:10149000334C436004E0234254D1013A002A51D036
:1014A00083691942F7D06346202483622B4A294876
:1014B0002B4904E00B4245D1013A002A42D083690E
:1014C0001C42F7D0224B2349C36101230360254B03
:1014D000234C4360802342689B01134343601F4AAF
:1014E000042004E023422DD1013A002A2AD08B693E
:1014F0001842F7D04B6A04201B029C46174A154934
:10150000174C2B8004E023421CD1013A002A19D049
:101510008B691842F7D062464B6A20201A43102389
:101520002A800F4CCB610D4A0A4904E0234209D1BD
:10153000013A002A06D08B691842F7D0044B0120EB
:10154000CB6103E00020034B014ADA6130BDC046A5
:1015500030170000005400405200010220A1070093
:101560001017000052040202F0B50022C646050022
:1015700000B5028042608260C2600120A024334B2B
:10158000E405D96A80460143D962216830480140A8
:10159000216080212668C90131438026216061686D
:1015A000B1436160A1680F00C02109023943A16005
:1015B000E16801400220E160A662D96A0143D96274
:1015C0008021986B890301439963224B2248196853
:1015D0000140196019680F00A02109023943196000
:1015E000196A0902090A1962196A0F008821490556
:1015F0003943C027196259683943596099680140D5
:10160000996099680F00A021C90139439960D96890
:101610000140D960114B05201A60114A1A61114A24
:10162000DA61FEF707FE0A20A661FEF703FE00F06E
:1016300077F8002802D180BCB846F0BD00F02CFB42
:101640000028F8D0434601206B60F4E70010024008
:10165000FF3FFFFF00040050FF0FFFFF005400405A
:10166000130F42703017000010B5040082B000283C
:1016700002D04368002B01D102B010BD00F040FB46
:101680000028F9D06B46981D00F04EFB00280DD0C5
:101690006B46DA88074B2280D318591E8B41C7212D
:1016A000A360002391425B41E360E5E7A060E06056
:1016B000E2E7C04602E0FFFF30B583B06B46DC1DB9
:1016C00000230500237001281AD0012141250120A3
:1016D000FFF71AFE002810D029000020FFF714FEA3
:1016E00000280AD0072502E023781D420AD12100F4
:1016F0001320FFF755FE0028F6D1002003B030BDBF
:101700000221E4E701210B20FFF7FEFD0028F4D0C1
:1017100000210020FFF7F8FD431E9841C0B2EDE71D
:10172000F0B583B06B460025DC1D2100C02025707C
:10173000FFF736FE002812D02378EE2B0FD12100C0
:1017400089202570FFF72CFE002808D0012321787E
:10175000892019432170FFF7D7FD002802D100200E
:1017600003B0F0BD00218820FFF7CEFD0121070066
:101770008020FFF7C9FD01210600FF20FFF7C4FD0F
:10178000002106400020FFF7BFFD0D4906409120D3
:10179000FFF706FE012106400020FFF7B5FD0021FE
:1017A0000640FF20FFF7B0FD002106408020FFF734
:1017B000ABFD3A00531E9A4130401042CFD001E0B9
:1017C000190000200121FF20FFF79EFD00210700E6
:1017D0000020FFF799FD06000021FF20FFF794FD90
:1017E000330003401E0000210920FFF78DFD330068
:1017F00003401E0000211020FFF786FD3300034048
:101800001E0000211120FFF77FFD330003401E0062
:1018100001212420FFF778FD330003401E00FF2143
:101820002520FFF771FD330003401E0000217520C5
:10183000FFF76AFD330003401E000121FF20FFF780
:1018400063FD330003401E002C214E20FFF75CFD9A
:10185000330003401E0000214820FFF755FD3300F0
:1018600003401E0020213020FFF74EFD33000340CF
:101870001E000021FF20FFF747FD330003401E003C
:1018800009213020FFF740FD330003401E000021F6
:101890005420FFF739FD330003401E00042131209E
:1018A000FFF732FD330003401E0003213220FFF713
:1018B0002BFD330003401E0083214020FFF724FD51
:1018C000330003401E0025214620FFF71DFD330095
:1018D00003401E0000216020FFF716FD3300034087
:1018E0001E0000212720FFF70FFD330003401E00DC
:1018F00006215020FFF708FD330003401E000021A1
:101900005120FFF701FD330003401E0096215220B5
:10191000FFF7FAFC330003401E0008215620FFF7B2
:10192000F3FC330003401E0030215720FFF7ECFC8E
:10193000330003401E0000216120FFF7E5FC330067
:1019400003401E0000216220FFF7DEFC330003404D
:101950001E0000216420FFF7D7FC330003401E0067
:1019600000216520FFF7D0FC330003401E00A021BA
:101970006620FFF7C9FC330003401E000121FF2051
:10198000FFF7C2FC330003401E0032212220FFF784
:10199000BBFC330003401E0014214720FFF7B4FCBA
:1019A000330003401E00FF214920FFF7ADFC330048
:1019B00003401E0000214A20FFF7A6FC330003402D
:1019C0001E000021FF20FFF79FFC330003401E0094
:1019D0000A217A20FFF798FC330003401E00002103
:1019E0007B20FFF791FC330003401E00212178206B
:1019F000FFF78AFC330003401E000121FF20FFF7A0
:101A000083FC330003401E0034212320FFF77CFCBD
:101A1000330003401E0000214220FFF775FC330015
:101A200003401E00FF214420FFF76EFC33000340FB
:101A30001E0026214520FFF767FC330003401E00EF
:101A400005214620FFF760FC330003401E004021C3
:101A50004020FFF759FC330003401E0006210E20F2
:101A6000FFF752FC330003401E001A212020FFF72D
:101A70004BFC330003401E0040214320FFF744FC91
:101A8000330003401E000021FF20FFF73DFC330020
:101A900003401E0003213420FFF736FC33000340CF
:101AA0001E0044213520FFF72FFC330003401E00A9
:101AB0000121FF20FFF728FC330003401E00042112
:101AC0003120FFF721FC330003401E0009214B2089
:101AD000FFF71AFC330003401E0005214C20FFF7DE
:101AE00013FC330003401E0004214D20FFF70CFCC3
:101AF000330003401E000021FF20FFF705FC3300E8
:101B000003401E0000214420FFF7FEFB330003408A
:101B10001E0020214520FFF7F7FB330003401E0085
:101B200008214720FFF7F0FB330003401E00282167
:101B30004820FFF7E9FB330003401E000021672027
:101B4000FFF7E2FB330003401E0004217020FFF783
:101B5000DBFB330003401E0001217120FFF7D4FBA3
:101B6000330003401E00FE217220FFF7CDFB33003F
:101B700003401E0000217620FFF7C6FB3300034020
:101B80001E0000217720FFF7BFFB330003401E003B
:101B90000121FF20FFF7B8FB330003401E000121A5
:101BA0000D20FFF7B1FB330003401E000021FF2092
:101BB000FFF7AAFB330003401E0001218020FFF73E
:101BC000A3FB330003401E00F8210120FFF79CFB1C
:101BD000330003401E000121FF20FFF795FB330077
:101BE00003401E0001218E20FFF78EFB33000340CF
:101BF0001E0001210020FFF787FB33000021034076
:101C0000FF201E00FFF780FB002106408020FFF729
:101C10007BFB3B005A1E93413040184200D19EE5A9
:101C200004210A202570FFF76FFB002800D196E5FC
:101C300021008420FFF7B4FB002800D18FE510239A
:101C40002178842099432170FFF75EFB002800D1A2
:101C500085E501210B20FFF757FB002800D17EE529
:101C6000E8210120FFF750FB002800D177E5002094
:101C7000FFF722FD002800D171E50120FFF71CFDD0
:101C8000002800D16BE5E8210120FFF73DFB431E52
:101C90009841C0B264E5C04670B501218020FFF7CD
:101CA00033FB01210500FF20FFF72EFB002104007C
:101CB0000020FFF729FB114B044019789120FFF712
:101CC00023FB012104400020FFF71EFB00210440FC
:101CD000FF20FFF719FB002104408020FFF714FBD1
:101CE0002B005A1E9341044000201C4205D00221C3
:101CF000FFF70AFB431E9841C0B270BD19000020D7
:101D000000B583B06B461320D91DFFF749FB0023B4
:101D1000002806D06B46DA79072313405A1E9341F8
:101D2000DBB2180003B000BD10B5010004001E2096
:101D3000FFF79EFB002800D110BD01210B20FFF70B
:101D4000E3FA0028F8D02388044A9B18012B01D914
:101D50000120F1E7024B01202380EDE702E0FFFFC5
:101D6000FE1F0000002243088B4274D303098B42FC
:101D70005FD3030A8B4244D3030B8B4228D3030C5B
:101D80008B420DD3FF22090212BA030C8B4202D3FD
:101D90001212090265D0030B8B4219D300E0090A25
:101DA000C30B8B4201D3CB03C01A5241830B8B422E
:101DB00001D38B03C01A5241430B8B4201D34B0317
:101DC000C01A5241030B8B4201D30B03C01A52417C
:101DD000C30A8B4201D3CB02C01A5241830A8B4201
:101DE00001D38B02C01A5241430A8B4201D34B02EA
:101DF000C01A5241030A8B4201D30B02C01A52414E
:101E0000CDD2C3098B4201D3CB01C01A5241830901
:101E10008B4201D38B01C01A524143098B4201D33B
:101E20004B01C01A524103098B4201D30B01C01A66
:101E30005241C3088B4201D3CB00C01A52418308E0
:101E40008B4201D38B00C01A524143088B4201D30D
:101E50004B00C01A5241411A00D20146524110466D
:101E60007047FFE701B5002000F0F0F802BDC04662
:101E70000029F7D076E7704703460B437FD4002252
:101E800043088B4274D303098B425FD3030A8B420E
:101E900044D3030B8B4228D3030C8B420DD3FF2278
:101EA000090212BA030C8B4202D31212090265D046
:101EB000030B8B4219D300E0090AC30B8B4201D3F9
:101EC000CB03C01A5241830B8B4201D38B03C01A40
:101ED0005241430B8B4201D34B03C01A5241030BB7
:101EE0008B4201D30B03C01A5241C30A8B4201D368
:101EF000CB02C01A5241830A8B4201D38B02C01A13
:101F00005241430A8B4201D34B02C01A5241030A89
:101F10008B4201D30B02C01A5241CDD2C3098B426E
:101F200001D3CB01C01A524183098B4201D38B01EB
:101F3000C01A524143098B4201D34B01C01A52418E
:101F400003098B4201D30B01C01A5241C3088B42D3
:101F500001D3CB00C01A524183088B4201D38B00BE
:101F6000C01A524143088B4201D34B00C01A524160
:101F7000411A00D201465241104670475DE0CA0F37
:101F800000D04942031000D34042534000229C46F7
:101F900003098B422DD3030A8B4212D3FC22890101
:101FA00012BA030A8B420CD3890192118B4208D3D7
:101FB000890192118B4204D389013AD0921100E039
:101FC0008909C3098B4201D3CB01C01A524183094D
:101FD0008B4201D38B01C01A524143098B4201D37A
:101FE0004B01C01A524103098B4201D30B01C01AA5
:101FF0005241C3088B4201D3CB00C01A524183081F
:102000008B4201D38B00C01A5241D9D243088B4274
:1020100001D34B00C01A5241411A00D20146634617
:1020200052415B10104601D34042002B00D549427B
:10203000704763465B1000D3404201B5002000F0BA
:1020400005F802BD0029F8D016E770477047C04672
:10205000844608006146FFE71FB500F0AFF800288E
:1020600001D40021C8421FBD10B500F02BF840423A
:10207000013010BD10B500F0A1F8002801DB0020F0
:1020800010BD012010BDC04610B500F097F8002823
:1020900001DD002010BD012010BDC04610B500F0CC
:1020A0003DF8002801DC002010BD012010BDC04615
:1020B00010B500F033F8002801DA002010BD01202F
:1020C00010BDC04630B543024200C50F48025B0A4E
:1020D000440A48009C46120E000EC90FFF2A11D078
:1020E000FF280CD0012382420AD1A44508D18D4299
:1020F00011D0002A04D163465A1E934100E0012307
:10210000180030BD0123FF28FAD162462243F7D1DF
:102110002B004B40F4E70023F2E7C04643025B0A82
:1021200042009C46C30F480210B5440A4800120EF4
:10213000000EC90FFF2A1AD0FF280BD0002A24D185
:10214000624600281ED1002C2ED0002A32D1480031
:1021500001380BE0002C2AD1002A02D16246002A65
:10216000F5D08B421DD001205B42184310BD624662
:10217000002A1CD1FF28F6D1002C18D120008B4258
:10218000F1D1F3E7002AE2D0EBE70028EBD08B4255
:10219000E9D18242E7DC04DBA445E4D80020A44571
:1021A000E4D258000138E1E7002ADFD0DBE7022063
:1021B0004042DBE78B42D6D1EEE7C04643025B0AE2
:1021C00042009C46C30F480210B5440A4800120E54
:1021D000000EC90FFF2A15D0FF280BD0002A1AD1F4
:1021E000624600281DD1002C22D0002A32D148009E
:1021F00001380FE0002C0CD1002A14D16246002ACD
:10220000F5D010E06246002A03D1FF2805D1002C4A
:102210001CD0022010BD00280DD101205B421843C4
:10222000F8E7002AE3D08B42F7D158000138F1E7F4
:10223000002AEFD0F1E78B42EFD18242EDDCF4DBF4
:10224000A445EAD80020A445E4D2EEE720008B4262
:10225000E3D1DFE78B42E0D1F2E7C046F0B5C646F6
:1022600047027B0A4A0245009C46C40F530A4800B5
:10227000984600B52D0EBF09000ECE0F9209FF281B
:1022800000D171E001235E402B1AB4423CD0002BF8
:1022900000DC9CE1002800D1A3E0FF2D00D18BE001
:1022A0008021C9040A431B2B00DCFBE0013F7B01BA
:1022B00000D47BE001277F42BF01B9090E0008006E
:1022C00000F07EFA330005388340854200DCD2E01E
:1022D000B44F2D1A1F405A0700D1F6E00F221340C9
:1022E000042B00D1F1E004377B0100D4EDE0681C41
:1022F000FE2D00D090E0FF200022C0051043E4072F
:10230000204380BCB846F0BD002B00DC77E10028FC
:102310006FD1002A4CD0591E012B00D146E1FF2B72
:102320004AD01B296ADC0B0011002020D940C31AB7
:102330009A40531E9A410A43BF188023DB041F4270
:1023400000D1BBE00135FF2DD5D0974A7908114067
:10235000012217400F437A0700D09AE01F42C6D1EE
:10236000FB089C462B004DE02B00FF3B002A2ED1A2
:1023700001214E40B44200D1B4E0002B50D0002DDA
:1023800000D0EAE0FF23002F00D1FAE0591E012B14
:1023900000D15CE1FF2B00D13DE11B2900DC22E1F3
:1023A000571E340005007B0100D583E72B0004375E
:1023B000FA089446FF2B25D16346002B9BD0802240
:1023C0006346D2031A435202FF20520A95E7B442F1
:1023D00000D1A4E0002B23D0002DD3D0C44634007C
:1023E000EDE7002AE4D0012B39D0FF2BE4D0013BEC
:1023F00059E7FF2DE0D01B2B00DCA6E00537FB08DA
:102400009C462B0062465202520AD8B275E7012060
:102410003A007B0100D43FE1C0B2BA01520A6CE736
:10242000FE216B1C194252D1002D00D0ACE0002FD0
:1024300000D11AE1002A00D1F4E08021BB1AC904BE
:102440000B4200D13CE10124D71B3440002F46D081
:1024500001200F42E1D1FB089C460023D2E7BF1ABE
:102460007A0100D4DAE0BD01A80900F0A9F9AB09AE
:102470000538834001252022401B0130121A1F001D
:102480009340C7405A1E93411F4328D000257B0725
:10249000BDD00F233B40042B00D024E77B0100D5A7
:1024A00025E75DE711002020D940C31A9A40531E4A
:1024B0009A410A43BF1A7B0100D5FDE67B0704D091
:1024C0000F233B40042B00D00DE72B0070E7BB1A15
:1024D00019005B0162D4002900D0EFE6002400203F
:1024E00000220AE7002B1CD0002D00D003E7FF23B9
:1024F000002F47D0591E012B58D0FF2B00D18BE065
:102500001B2900DD90E00B0039002025D940EB1A93
:102510009F407B1E9F410F430500BF180DE7002B16
:1025200017D1FE216B1C19421BD1002D00D080E079
:10253000002F00D1AEE0002A74D0BA18530100D4A5
:10254000AAE092010120520AD7E68021C9040A4379
:10255000EAE6002DCBD0C44631E73400FF2000224C
:10256000CBE6FF2B00D1C6E6BA185208510705D0BA
:102570000F21171D1140042900D019E7D2089446F5
:1025800040E73400170013E7002F75D1002A00D070
:102590009DE080220024FF20D203AEE60124D11B5F
:1025A00034408BE6FFFFFFFBFFFFFF7DBB185A01A6
:1025B00000D494E04D4A5B081A40590700D192E0DC
:1025C0000F210B40042B6ED00223171DF0E6002BC9
:1025D00000D125E7411B0B00002D00D1D3E680235D
:1025E000DB041F43D9E63B002024CB40611A8F4017
:1025F000791E8F411F4334000500D71B5BE7002B7A
:102600008FD0431B002D00D172E71B2B0CDC8021E7
:10261000C9040F4378E73400C446CDE6FB089C4666
:102620000123EFE60023EDE60532D3089C460300C4
:10263000E8E6002FF0D0002A37D08023DB039C454A
:1026400000D2BCE6984500D3B9E6C446B7E6D31B32
:102650005A0130D59B019C09200000F0B1F82300FD
:10266000053883403400012505E7002A18D00124ED
:102670000023C4463440C5E6002A16D08023DB037D
:102680009C4500D29BE6984500D398E60124C446B9
:10269000344094E6002A04D0D3089C460023B1E6D7
:1026A0000024002029E6023B68E780226346D2032B
:1026B000FF201A4321E6DB089C4634000123A1E6F3
:1026C000002B00D10AE7DB089C4600239AE6802213
:1026D00043460124D203FF201A4334400DE6DB08B1
:1026E0009C4601238EE6022348E7C046FFFFFF7D9C
:1026F00041024200C30F490A0020120E7E2A03DD68
:102700009D2A02DD094A9818704780200004014381
:10271000952A07DC9620821AD1404842002BF3D13B
:102720000800F1E7963A9140F7E7C046FFFFFF7FC8
:1027300070B5002813D0C317C5185D40C40F28001A
:1027400000F03EF89E2301001B1A07280EDD082822
:1027500030D008398D406D026D0AD8B201E00024F6
:102760000025C0052843E407204370BD042816DD7A
:10277000052801D0421F9540104A2A4068070AD018
:102780000F202840042806D00432500103D50B4BFB
:102790001A409F235B1A9201550AD8B2E1E7020062
:1027A00028001B329040421E90410522521AD5400B
:1027B0000543E1E76D0296206D0AD2E7FFFFFFFBBC
:1027C0001C2101231B04984201D3000C10391B0A61
:1027D000984201D3000A08391B09984201D3000925
:1027E000043902A2105C40187047C046040302027C
:1027F000010101010000000000000000546F4620AC
:10280000696E6974204F4B0D0A000000546F46201A
:10281000696E6974204641494C45440D0A00000028
:102820002020523D00000000202049583D000000BB
:102830000A0D20783A200000202020793A2000005C
:102840002020206D733A00002020206175746F6D88
:102850006F64653A00000000526F626F74207374F9
:10286000617274696E672075702E2E2E0D0A00003D
:102870002D2D2D20524157204144432044554D5089
:1028800020286E6F2066696C746572696E672920F6
:102890002D2D2D0D0A0000002D2D2D20454E4420FC
:1028A00044554D502C207374617274696E672077A3
:1028B00061726D7570202D2D2D0D0A005761726D9E
:1028C000757020646F6E652E20456E746572696E3A
:1028D00067206D61696E206C6F6F702E0D0A0000AD
:1028E00000010203030303030102010200000303CA
:0828F0000200020102010003D5
:0428F80001000000DB
:04000005080000B936
:00000001FF
