:020000040800F2
:1000000000200020B90000086D0E0008710E0008E5
:1000100000000000000000000000000000000000E0
:100020000000000000000000000000006D0E00084D
:1000300000000000000000006D0E00086D0E0008BA
:100040006D0E00086D0E00086D0E00086D0E0008A4
:100050006D0E00086D0E00086D0E00086D0E000894
:10006000000000006D0E00086D0E00086D0E000807
:100070006D0E00086D0E000800000000550300081A
:10008000000000006D0E00080000000000000000ED
:100090006D0E0008000000006D0E00086D0E0008D7
:1000A0006D0E00086D0E00086D0E00086D0E000844
:1000B0006D0E00086D0E000800F0DCFE184A194BAA
:1000C0009A422AD2013B991A002389080131164825
:1000D0008900C458D45004338B42FAD1D318134A40
:1000E000934209D20321013AD21A8A43191D5218A8
:1000F000002102C39342FCD10D4D0E4EB54209D2F0
:100100000024013E761BB60808CD98472300013431
:10011000B342F9D100F0D8F9FEE71300DFE7C0469B
:100120000000002004000020B42500081C0000206E
:10013000B4250008B425000810B50478002C09D0B7
:100140008021054AD3691942FCD094624478013079
:10015000002CF7D110BDC04600380140F0B50D00AD
:1001600085B000281DDB061E24D13023012401AEFA
:100170003370802020211C4AD3691842FCD0013DF5
:100180009162AC42F8DB8021601E174A3018047877
:10019000D3691942FCD09462431E864221D01800D4
:1001A000F5E78021104AD3691942FCD02D2346423D
:1001B0009362013D00246B46300003330A21013471
:1001C0001F1901F063FD3031397030000A2101F050
:1001D000D7FC37000600092FEDD801AEAC42C8DBD2
:1001E000D1E705B0F0BDC0460038014000220C4BFD
:1001F00001211A605A609A60DA60A023DB055A690F
:100200000A435A615A6901310A435A615A690231F3
:100210000A435A615A6904310A435A617047C04619
:100220000400002070B505012D1AED000C00280017
:10023000642101F02FFD0023364E33607360B360FC
:10024000F3602B00633329DAFA2340429B00984283
:100250004FD8FA2145012D1AAD002D18ED002800C8
:10026000890001F08DFC2C4B9D4248D03060002C61
:100270002ADB002C11D0FA239B009C423BD8610161
:10028000091B89000C19FA21E4002000890001F003
:1002900077FC214B9C4237D0F06070BD632DE6DDCA
:1002A000FA239B00984228D8FA2145012D1AAD0067
:1002B0002D18ED002800890001F062FC164B9D42CC
:1002C00025D07060002CD4DAFA2361429B00994259
:1002D00000D919004B015B1A9C006418FA21E40054
:1002E0002000890001F04CFC0B4B9C4209D0B0600F
:1002F000D3E71800ADE71C00C1E71800D4E70748B2
:10030000B4E70648B060C8E70448F060C5E70348B2
:100310007060D7E70400002040420F00E7030000B0
:100320000300F0B50138002B0FD0802100260025F6
:100330000524064A064F4902576095601460136809
:100340000B42FCD016600138F6D2F0BD10E000E0A0
:10035000FF7C000080220121D205136910B58B4378
:100360001361274A274B14681868844242D9A02495
:10037000E40560698843606150681968884232D931
:10038000A0200224C0054169A14341619068196819
:10039000884221D9A0200424C0054169A1434161BC
:1003A000D1681A68914210D9A0210820C9054A696C
:1003B00082434A611A6801321A60FA22196892006F
:1003C000914201D300221A6010BDA0210820C90566
:1003D0004A6902434A61EDE7A0200424C00541694F
:1003E00021434161DCE7A0200224C005416921438B
:1003F0004161CBE7A024E405606901436161BBE78B
:10040000040000201400002010B503C8FFF70AFF05
:1004100010BDC046F8B5DE464E4645465746040078
:100420000078E0B50321013001F01AFD002363607C
:10043000A3609C46A023DB059B4680232170884651
:100440000025002405215B0099461C4E1C4B5A4692
:1004500048465269024358464261802040022822A1
:1004600082465E609C601960574618683842FBD02F
:10047000013A1D60002AF4D15A46124852690240DE
:100480005846426180204002282282465E609C607D
:100490001960574618683842FBD0013A1D60002A9F
:1004A000F4D162460132E04501D09446CFE7F0BC7A
:1004B000BB46B246A946A046F8BDC046FF7C000038
:1004C00010E000E0FFFEFFFFF0B5DE4657464E4667
:1004D0004546E0B59FB00EA800F0CAFD0121E14BF2
:1004E0001A680A431A60042219680A42FCD0DA68C2
:1004F000DD490A40DA608822D968D2030A43DA600B
:100500008022196852040A431A608022D54B920453
:1005100019681142FCD00120D4490A6802430A60DC
:100520000321DA680A43DA60CE4A0931D3680B4006
:100530000C2BFBD101200225D36ACD4C0343D3629F
:10054000D36AFF262B43D3628023516BDB010B431D
:100550005363A023DB0519680F2721401960802110
:100560001C6809032143F0241960596AA1435962A8
:10057000596AB03C21435962BE49D634CC600E3C26
:10058000FF3C0C60D16A4C340143D162916B014352
:1005900091631968B14319601968214319605C6857
:1005A000BC435C609C6834439C60DC68B443DC60A2
:1005B00000245969402639435961AF49FF360C6020
:1005C0004C608C60CC60AD490C608021C9058C62A8
:1005D000CE620C618034C8600C608024A84E4861F3
:1005E000376824023C4334600C6804430C6062B6F4
:1005F000D46A0443D4628024566BA4003443546309
:10060000FC221C68920122431A609E4B1A69114316
:1006100019619A68104206D09A68154301229D60BC
:1006200099680A42FCD18023964A5B0591680B4386
:100630009360954A954B8021536000239360053366
:100640001360490213680B42FCD000231360802220
:100650008C4B120699680A439A609A68002AFCDB60
:1006600005225A61002201210124DA609A680A43B6
:100670009A60844A2100136819401C42FAD08B46C4
:10068000FFF7B4FD2021774A07A8536B00260B43E0
:1006900053631F227E4B00219A627E4A0025DA6254
:1006A0001A687A4FA2431A6000F030FD0AA800F0E1
:1006B000D9FE80210090FA200524734A40004902A7
:1006C00057609560146013680B42FCD001381660C7
:1006D0000028F5D17048FFF72FFD009B6F48002BD5
:1006E00000D16F48FFF728FD6E48FFF725FD142362
:1006F00001936D4B634C99466C4B98464C2080217E
:100700006B4E5C4AD3691942FCD090627078013616
:100710000028F7D1202304210422A362A3681343F5
:10072000A36023681A42FCD0236C01391B051B0D02
:10073000C0180029F2D180100431FFF70FFD2020EE
:1007400080215C4E4B4AD3691942FCD0906270788C
:1007500001360028F7D1102304210422A362A368E4
:100760001343A36023681A42FCD0236C01391B0594
:100770001B0DC0180029F2D180100431FFF7EEFCE8
:100780004E46202080213B4AD3691942FCD090621A
:10079000707801360028F7D1402304210422A36297
:1007A000A3681343A36023681A42FCD0236C013969
:1007B0001B051B0DC0180029F2D180100431FFF772
:1007C000CDFC46460D2080212A4AD3691942FCD02F
:1007D0009062707801360028F7D12C4B80219A4620
:1007E000002500270526284A6430490253465360F5
:1007F0009760166013680B42FCD001381560002822
:10080000F4D1019B013B0193002B00D076E702203D
:10081000144A4026D36A04250343D362264B0D3085
:100820001A68184C82431A60DA688243DA60DA6820
:100830000A380243DA60A023DB051A681F48024029
:100840001A601A681E48114319605A691D490A4006
:100850005A61FFF771FC2023984643460422002189
:10086000A36231E000100240FFFF02FF00200240BF
:10087000FFFFF3FF003801400400002014000020B7
:1008800000E100E00024014010E000E0FF7C0000F7
:1008900000140140FFFF000014250008B4240008E4
:1008A000C42400082C250008E4240008282500089A
:1008B000D8240008DC24000800040050FFFFFCFFDF
:1008C00054250008FFFEFFFFA3682B43A3602368A5
:1008D0001D42FCD0236C013A1B051B0DC918002AD0
:1008E000F2D1102304208910A362A3682B43A360D4
:1008F00023681D42FCD0236C01381B051B0DD21848
:100900000028F2D140230427A36200239210A0689C
:100910002843A06020680542FCD0206C013F000500
:10092000000D1B18002FF2D19B100EA800F0B2FB97
:10093000CF4AD04B80215360052397604902136052
:1009400013680B42FCD00023CA4913605160802118
:10095000936005331360C64A490213680B42FCD00A
:100960000023013E1360002E00D076E7C248FFF757
:10097000E3FB00239A4698460593039306230293CC
:1009800000235C469B46BD4B01361A69B146D2072F
:1009900012D51B699B070FD54B46012B00D1BFE039
:1009A000009B002B00D10EE10AA800F0E1FD01340C
:1009B000B24B1A69D207ECD4002201210220B04BBD
:1009C0005A621A680A431A60AC4A13691942FCD089
:1009D00013691842F9D0AA4B1A688A431A605D6AF3
:1009E000FA23DB009D42D7DDA64B9D4200DDFCE0F3
:1009F000280001F0F3FC039901F022FBA249804694
:100A000001F064FA002806D14046A04901F04AFAF4
:100A1000002800D158E1002300279846029B002BB4
:100A20000ADD029B2800013B0293994B9D4200DDA9
:100A3000F9E101F0D3FC0390504601F0AFFC0190C6
:100A40004B46002B28D1019A009B1600002B08D0A2
:100A50000D9B0493002B04D0531E1343DB171A4045
:100A60001600FA21F800C01B0001C01BC300C0180B
:100A7000C90001F00FF9FA210490F000801B000179
:100A8000801BC300C018890001F004F9049B9C4638
:100A9000C11A6044FFF7C6FB0A2080217D4E7E4AC2
:100AA000D3691942FCD09062707801360028F7D1E2
:100AB00038000521FFF752FB20208021774F764A2E
:100AC000D3691942FCD09062787801370028F7D1B9
:100AD00005210198FFF742FB20208021704E6E4ACD
:100AE000D3691942FCD09062707801360028F7D1A2
:100AF00028000721FFF732FB20208021694D664A3C
:100B0000D3691942FCD09062687801350028F7D18A
:100B100002214846FFF722FB4B46012B00D03FE75E
:100B2000042500210420604A1F3393629368034325
:100B3000936013681842FCD0136C013D1B051B0D1C
:100B4000C918002DF2D110230426936200225648C2
:100B50008910043583682B43836003681D42FCD0F1
:100B6000036C013E1B051B0DD218002EF2D1402351
:100B70000427836200234C4D92100436A86830434A
:100B8000A86028680642FCD0286C013F0005000DD3
:100B90001B18002FF2D19B100EA800F07BFA009BCF
:100BA000002B13D02000414901F070F8002902D138
:100BB0000AA800F0DDFC0D9B0193002B06D0FFF787
:100BC00015FB0134F4E699460134F1E601239C4615
:100BD000374BE3449B4500DCE9E607A90EA800F08B
:100BE000A3FA002301349B46E2E6324B9D4276DCB9
:100BF000280001F0F3FB0599071C01F021FA2249B6
:100C0000824601F063F9002821D150461F4901F0C6
:100C100049F900281BD15046274901F057F900280F
:100C200000D0C8E05046254901F03CF9002800D02A
:100C3000EFE05046224901F035F9002800D1EDE0FF
:100C40005046204901F042F9002800D1E6E0002397
:100C5000019300239A46029B002B03DD029B05971C
:100C6000013B0293404601F099FB0700E8E6C046CD
:100C700010E000E0FF7C0000782500080004005030
:100C800000140140581B000000808944008089C482
:100C900070170000EC24000800380140F42400081C
:100CA000FC2400080425000800240140B80B0000C3
:100CB0002A0200005046000000806D4400806DC490
:100CC0000000A0420000A0C240465B4901F0FEF8CF
:100CD000002820D0FA27594BBF0098469EE6584B73
:100CE0009D422DDD574B9D4249DD574B9D4273DDA3
:100CF000564B9D426CDD404601F050FB0700029BC5
:100D0000002B00DC98E6029B5046013B029301F069
:100D100045FB019094E640464D4901F0C3F8002898
:100D200003D04C4B4C4F984678E640464B4901F077
:100D3000B9F8002845D1404601F030FB07006DE6C8
:100D40000023802164209C4600270526444A49024E
:100D5000444B53609760166013680B42FCD06346A7
:100D6000013813600028F3D1404601F017FB07005B
:100D7000504601F013FB02230190029360E600232A
:100D8000802164209C4699460526354A354F490204
:100D90004B4657609360166013680B42FCD0634665
:100DA000013813600028F3D1404601F0F7FA01231F
:100DB00007009946A3E7FA239B0001931F4B9A462D
:100DC00049E74046284901F081F80028B3D022E6DF
:100DD00007A8FFF71FFB8EE7002380219C46053301
:100DE0006420002699461E4A1E4F490263465760FA
:100DF00093604B46136013680B42FCD001381660B9
:100E00000028F3D1404601F0C9FA002307009946B3
:100E100075E7114B01930F4B9A461CE7504601F0C2
:100E2000BDFA019017E701F0D9FA0590504601F09C
:100E3000B5FA019016E7C04600806D4400007A4480
:100E40001879000088900000E0AB000020CB000083
:100E500000806DC400007AC418FCFFFF0000A042AF
:100E600010E000E0FF7C00000000A0C2FEE7C046EA
:100E7000FEE7C0460121294A13680B431360033182
:100E800013681942FCD001230C21D360234AD36894
:100E90000B40042BFBD10220214B19680143196040
:100EA00019680138014319608023916B5B050B437E
:100EB0009363802310211B4A1B011360536819425E
:100EC000FCD1164B1849DA680A40DA608822D968E2
:100ED000D2030A43DA60DA681449DA60DA68DA6061
:100EE000DA68DA601A680A401A60802219685204C7
:100EF0000A4380211A6089041A680A42FCD0032040
:100F0000D9688143D960DA6804490243DA600C2267
:100F1000CB6813400C2BFBD17047C0460010024039
:100F20000020024000700040FFFF02FFFFFFFFFEB5
:100F300000B583B002280CD003281CD0012811D0A2
:100F4000962368469B0000930193FFF75DFA03B078
:100F500000BD96239B0000930A4B68460193FFF760
:100F600053FAF4E7074B6846009396239B000193DE
:100F7000FFF74AFAEBE70023684600930193FFF777
:100F800043FAE4E7A8FDFFFFF8B54F46D646032431
:100F900080B51700089A1960136891465D00ED1836
:100FA0006D18EB171C409A46099B64191B68A41026
:100FB0000B9E191B9C4200DBE11A3268002A2FD1DC
:100FC000B94218DB191B9C4200DBE11A0123002AFD
:100FD00022D18F4208DC4A4614600A9A11603360BD
:100FE000C0BCBA46B146F8BD80235046DB019D42E5
:100FF00050410300EFE78021C9018D42E2DA0F285A
:1010000012D910210F205843001900F043FE099A0D
:10101000030010603268D5E76329DCDC0023DAE7DF
:101020006329CFDC0F28ECD808210720EBE7C04666
:1010300000B5411A83B0502910DC96239B00009321
:10104000503105DB68460193FFF7DEF903B000BDC0
:10105000002368460193FFF7D7F9F7E700230093D1
:10106000962368469B000193FFF7CEF9EEE7C04652
:101070000023036043608360C36003614361836155
:10108000C361036243628362C36203634363836336
:10109000C363704770B51D000300040084B0303393
:1010A00003930C3B02930C3B01930C3B0093160003
:1010B0000300C822C06BFFF767FF2200343203929F
:1010C0000C3A02920C3A01920C3A3100E06B231D6B
:1010D0000092C822FFF758FF220023003832039203
:1010E0000C3A02920C3A01920C3A08330092290011
:1010F000054AE06BFFF748FFE36B5A1C01D0013350
:10110000E36304B070BDC0460F2700000122044B0A
:1011100001701A700023034A4360137083607047A4
:10112000000000201800002070B5384D04002B7816
:10113000826882B0022B0BD0032B1DD0012B12D062
:101140000023684600930193FFF75EF902B070BD7B
:10115000642A1FDC00232E4A8B601278032A1ED0DB
:1011600001232B70F2E7642A11DD8A68002A1DD062
:1011700003CCFFF75DFFE9E741680068FFF758FF20
:101180002368C82BECDC6368C82BE9DCDEE70023AE
:101190008B60EDE71E4B1878FFF7CAFED6E768466E
:1011A0002B7000930193FFF72FF9CFE78B604B680B
:1011B000072B28DC0A78581C4860D100154A5218C1
:1011C000D35C0024124E6846337000940194FFF7FC
:1011D0001BF9C8204000FFF7A3F83078431E012B0D
:1011E00003D90328BCD12C70B0E7FFF7A1FEE120A2
:1011F0008000FFF795F8684600940194FFF704F922
:1012000001232B70A2E70323DBE7C0460000002088
:10121000180000209C25000870B51E4B1E4C0225AE
:10122000E361012323601D4B1D4E636080236268D0
:101230009B01134363601B4A04E0334225D1013A0A
:10124000002A22D0A3691D42F7D0A062154A0224C9
:101250001148134D04E02B4217D1013A002A14D053
:1012600083691C42F7D081620E4A20200A490C4C47
:1012700004E0234209D1013A002A06D08B691842C2
:10128000F7D0044B0120CB6103E00020024B014A60
:10129000DA6170BD301700000054004052000202B5
:1012A0001017000020A1070070B52C4B2C4C022514
:1012B000E361012323602B4B2B4E63608023626824
:1012C0009B0113436360294A04E0334240D1013A51
:1012D000002A3DD0A3691D42F7D0A062234A2024F2
:1012E0001F48214D04E02B4232D1013A002A2FD071
:1012F00083691C42F7D0194B0424C36101230360A6
:101300001B4B194D4360802342689B01134343608C
:10131000164A134804E02B421AD1013A002A17D08A
:1013200083691C42F7D0436A104A0B7010230C49A2
:10133000C3610D4C202004E0234209D1013A002A68
:1013400006D08B691842F7D0044B0120CB6103E033
:101350000020034B014ADA6170BDC046301700001F
:1013600000540040520001021017000020A10700A5
:101370005204010270B5354B354C0225E36101235F
:101380002360344B344E6360802362689B011343B7
:101390006360324A04E0334252D1013A002A4FD00E
:1013A000A3691D42F7D0A0622C4A202428482A4D68
:1013B00004E02B4244D1013A002A41D083691C4207
:1013C000F7D0224B0424C36101230360244B224D38
:1013D0004360802342689B01134343601F4A1C48BB
:1013E00004E02B422CD1013A002A29D083691C4207
:1013F000F7D0466A04243602B6B2184A1448164D8D
:101400000E8004E02B421BD1013A002A18D08369D8
:101410001C42F7D0436A114A1E4310230E800E4C23
:10142000C3610B49202004E0234209D1013A002A7C
:1014300006D08B691842F7D0044B0120CB6103E042
:101440000020034B014ADA6170BDC046301700002E
:1014500000540040520001021017000020A10700B4
:1014600052040202F0B50022C646050000B5028013
:1014700042608260C2600120A024364BE405D96A34
:1014800080460143D9622168334880268446014062
:10149000802021602168C001084320606068B0435B
:1014A0006060C020A16800020843A0606046E16857
:1014B00001400220E160A662D96A0143D96280211D
:1014C000986B890301439963244B254819680140AF
:1014D000196019688C46A0216746090239431960D2
:1014E000196A0902090A1962196A8C468821674635
:1014F00049053943C02719625968394359609968C9
:101500000140996099688C46A0216746C90139431A
:101510009960D9680140D960124B05201A60124ABF
:101520001A61124ADA61FEF7FBFE0A20A661FEF795
:10153000F7FE00F079F8002803D1002080BCB846FF
:10154000F0BD00F0B7FA0028F7D0434601206B60E9
:10155000F4E7C04600100240FF3FFFFF00040050C8
:10156000FF0FFFFF00540040130F427030170000C0
:1015700010B5040082B0002802D04368002B01D1CE
:1015800002B010BD00F0CAFA0028F9D06B46981DD1
:1015900000F0D8FA00280DD06B46DA88074B22807D
:1015A000D318591E8B416321A360002391425B41F4
:1015B000E360E5E7A060E060E2E7C04602E0FFFF2D
:1015C00030B583B06B46DC1D00230500022123707B
:1015D000012801D0012141250120FFF71DFE00282F
:1015E00002D1002003B030BD29000020FFF714FE17
:1015F0000028F6D0072502E023781D4206D12100FD
:101600001320FFF751FE0028F6D1EAE701210B2055
:10161000FFF702FE0028E4D000210020FFF7FCFDC8
:10162000431E9841C0B2DDE7F0B5C64600B582B0B2
:101630006B460025DC1D2100C0202570FFF734FE1D
:1016400000280AD02378EE2B06D1210089202570AE
:10165000FFF72AFE002804D1002002B080BCB84663
:10166000F0BD01232178892019432170FFF7D4FDB3
:101670000028F1D000218820FFF7CEFD01210600CF
:101680008020FFF7C9FD01210700FF20FFF7C4FDFF
:10169000002107400020FFF7BFFDFFB2FA490740D5
:1016A0009120FFF701FE012107400020FFF7B4FD64
:1016B00000210740FF20FFF7AFFD002107408020F9
:1016C000FFF7AAFD731E9E4138403042C4D001216D
:1016D000FF20FFF7A1FD002106000020FFF79CFD81
:1016E00000210700FF20FFF797FD00210740092098
:1016F000FFF792FDFFB23840804600211020FFF72F
:101700008BFD4746002107401120FFF785FD012191
:1017100007402420FFF780FDFF2107402520FFF729
:101720007BFD002107407520FFF776FD0121074072
:10173000FF20FFF771FD384080462C214E20FFF737
:101740006BFD4746002107404820FFF765FD20213B
:1017500007403020FFF760FD00210740FF20FFF722
:101760005BFD092107403020FFF756FD38408046D9
:1017700000215420FFF750FD474604210740312047
:10178000FFF74AFD032107403220FFF745FD832183
:1017900007404020FFF740FD252107404620FFF786
:1017A0003BFD3840804600216020FFF735FD47466D
:1017B000002107402720FFF72FFD0621074050207A
:1017C000FFF72AFD002107405120FFF725FD962154
:1017D00007405220FFF720FD384080460821562060
:1017E000FFF71AFD4746302107405720FFF714FD49
:1017F000002107406120FFF70FFD00210740622014
:10180000FFF70AFD002107406420FFF705FD38407F
:10181000804600216520FFF7FFFC4746A0210740D6
:101820006620FFF7F9FC01210740FF20FFF7F4FCD9
:10183000322107402220FFF7EFFC14210740472008
:10184000FFF7EAFC38408046FF214920FFF7E4FC1F
:101850004746002107404A20FFF7DEFC00210740F1
:10186000FF20FFF7D9FC0A2107407A20FFF7D4FCBC
:10187000002107407B20FFF7CFFC38408046212124
:101880007820FFF7C9FC474601210740FF20FFF7FA
:10189000C3FC342107402320FFF7BEFC0021074092
:1018A0004220FFF7B9FCFF2107404420FFF7B4FCBA
:1018B0003840804626214520FFF7AEFC47460521EB
:1018C00007404620FFF7A8FC402107404020FFF7D3
:1018D000A3FC062107400E20FFF79EFC1A210740BB
:1018E0002020FFF799FC3840804640214320FFF735
:1018F00093FC474600210740FF20FFF78DFC0321A2
:1019000007403420FFF788FC442107403520FFF7CB
:1019100083FC01210740FF20FFF77EFC3840804612
:1019200004213120FFF778FC4746092107404B206E
:10193000FFF772FC052107404C20FFF76DFC0421E6
:1019400007404D20FFF768FC00210740FF20FFF70C
:1019500063FC3840804600214420FFF75DFC474689
:10196000202107404520FFF757FC0821074047206A
:10197000FFF752FC282107404820FFF74DFC0021CB
:1019800007406720FFF748FC38408046042170205C
:10199000FFF742FC4746012107407120FFF73CFC5E
:1019A000FE2107407220FFF737FC00210740762018
:1019B000FFF732FC002107407720FFF72DFC38406D
:1019C00080460121FF20FFF727FC47460121074001
:1019D0000D20FFF721FC00210740FF20FFF71CFC32
:1019E000012107408020FFF717FCF8210740012064
:1019F000FFF712FC384080460121FF20FFF70CFC66
:101A00004746012107408E20FFF706FC01210740D1
:101A10000020FFF701FC00210740FF20FFF7FCFB3F
:101A2000002107408020FFF7F7FB731E9E413840DE
:101A3000304200D110E604210A202570FFF7ECFBAC
:101A4000002800D108E621008420FFF72DFC0028A3
:101A500000D101E610232178842099432170FFF7FB
:101A6000DBFB002800D1F7E501210B20FFF7D4FBB9
:101A7000002800D1F0E5E8210120FFF7CDFB002888
:101A800000D1E9E502E0C046190000200020FFF780
:101A900097FD002800D1DFE50120FFF791FD002828
:101AA00000D1D9E5E8210120FFF7B6FB431E98419C
:101AB000C0B2D2E570B501218020FFF7ADFB012156
:101AC0000400FF20FFF7A8FB002105000020FFF71E
:101AD000A3FB114B054019789120FFF79DFBEDB258
:101AE000012105400020FFF797FB00210540FF2062
:101AF000FFF792FB002105408020FFF78DFB631E5E
:101B00009C4105400020254205D00221FFF784FBBF
:101B1000431E9841C0B270BD1900002000B583B0CB
:101B20006B461320D91DFFF7BFFB0023002806D00A
:101B30006B46D879072303405A1E9341DBB2180045
:101B400003B000BD10B5010004001E20FFF712FC19
:101B5000002801D1002010BD01210B20FFF75CFB04
:101B60000028F7D0044A2388944663440120012BBF
:101B7000F1D8024B2380EEE702E0FFFFFE1F0000DA
:101B8000002243088B4274D303098B425FD3030ABC
:101B90008B4244D3030B8B4228D3030C8B420DD3CF
:101BA000FF22090212BA030C8B4202D3121209025D
:101BB00065D0030B8B4219D300E0090AC30B8B429B
:101BC00001D3CB03C01A5241830B8B4201D38B0349
:101BD000C01A5241430B8B4201D34B03C01A5241EE
:101BE000030B8B4201D30B03C01A5241C30A8B4231
:101BF00001D3CB02C01A5241830A8B4201D38B021C
:101C0000C01A5241430A8B4201D34B02C01A5241BF
:101C1000030A8B4201D30B02C01A5241CDD2C30931
:101C20008B4201D3CB01C01A524183098B4201D3AD
:101C30008B01C01A524143098B4201D34B01C01A98
:101C4000524103098B4201D30B01C01A5241C30810
:101C50008B4201D3CB00C01A524183088B4201D37F
:101C60008B00C01A524143088B4201D34B00C01A6B
:101C70005241411A00D20146524110467047FFE7D7
:101C800001B5002000F0F0F802BDC0460029F7D0F1
:101C900076E7704703460B437FD4002243088B420C
:101CA00074D303098B425FD3030A8B4244D3030BE3
:101CB0008B4228D3030C8B420DD3FF22090212BAA8
:101CC000030C8B4202D31212090265D0030B8B4224
:101CD00019D300E0090AC30B8B4201D3CB03C01A0E
:101CE0005241830B8B4201D38B03C01A5241430BE9
:101CF0008B4201D34B03C01A5241030B8B4201D3D9
:101D00000B03C01A5241C30A8B4201D3CB02C01A43
:101D10005241830A8B4201D38B02C01A5241430ABB
:101D20008B4201D34B02C01A5241030A8B4201D3AA
:101D30000B02C01A5241CDD2C3098B4201D3CB0151
:101D4000C01A524183098B4201D38B01C01A524100
:101D500043098B4201D34B01C01A524103098B4204
:101D600001D30B01C01A5241C3088B4201D3CB00EF
:101D7000C01A524183088B4201D38B00C01A5241D2
:101D800043088B4201D34B00C01A5241411A00D282
:101D900001465241104670475DE0CA0F00D04942EB
:101DA000031000D34042534000229C4603098B425B
:101DB0002DD3030A8B4212D3FC22890112BA030AE3
:101DC0008B420CD3890192118B4208D38901921165
:101DD0008B4204D389013AD0921100E08909C309EA
:101DE0008B4201D3CB01C01A524183098B4201D3EC
:101DF0008B01C01A524143098B4201D34B01C01AD7
:101E0000524103098B4201D30B01C01A5241C3084E
:101E10008B4201D3CB00C01A524183088B4201D3BD
:101E20008B00C01A5241D9D243088B4201D34B00D8
:101E3000C01A5241411A00D20146634652415B101A
:101E4000104601D34042002B00D5494270476346FB
:101E50005B1000D3404201B5002000F005F802BD40
:101E60000029F8D016E770477047C046844608003E
:101E70006146FFE71FB500F09FF8002801D400215C
:101E8000C8421FBD10B500F02BF84042013010BD14
:101E900010B500F091F8002801DB002010BD0120F2
:101EA00010BDC04610B500F087F8002801DD002005
:101EB00010BD012010BDC04610B500F037F8002855
:101EC00001DC002010BD012010BDC04610B500F09F
:101ED0002DF8002801DA002010BD012010BDC046F9
:101EE00070B5420045024E024C00C30F6D0A01203E
:101EF000120E760A240EC90FFF2A06D0FF2C03D03B
:101F0000A24201D1B54206D070BD002DFCD1FF2CFC
:101F1000FAD1002EF8D18B4206D00120002AF3D14D
:101F20002800431E9841EFE70020EDE770B542001E
:101F300045024E024C00C30F6D0A120E760A240EA3
:101F4000C80FFF2A1BD0FF2C0ED0002A1BD1002C5B
:101F500001D1002E1CD0002D0CD083421CD00221B8
:101F6000581E0840013870BD002E22D1002AF4D13D
:101F7000002DF2D10028F6D101204042F3E7002DD8
:101F800017D1FF2CF0D0002CE7D1002EE5D1E6E7E9
:101F90000020002DE7D0E2E7A24205DCEADBB542F3
:101FA00002D8E7D30020DEE7434258414000013821
:101FB000D9E702204042D6E770B5420045024E0202
:101FC0004C00C30F6D0A120E760A240EC80FFF2AAA
:101FD0000BD0FF2C0DD0002A1FD1002C16D1002EC3
:101FE00014D10020002D10D009E0002D0CD1FF2CC1
:101FF00013D1002E08D1002A08D0834212D002212A
:10200000581E0840013800E0022070BD002DF4D1B8
:102010000028FAD101204042F7E7002CEDD1002E34
:10202000EBD1ECE7A24205DCF2DBB54202D8EFD3FC
:102030000020EAE74342584140000138E5E7C04646
:10204000F8B5CE46474643025B0A4E02DA00944694
:10205000720A914645004A0080B52D0E1F00C40F3C
:10206000120EC90FB609FF2A5BD0012041408C42F5
:1020700039D0A81A00285ADD002A6AD0FF2D00D1D5
:10208000D9E08022D20416431B2800DCE9E00120BD
:102090006346181A430100D4B4E080018709380070
:1020A00000F0EAF905388740854200DCCCE02D1AC3
:1020B000B5483840430704D00F230340042B00D019
:1020C0000430430100D4A0E06A1CFE2D00D18DE055
:1020D0008001470AD2B2D0053843E4072043C0BC90
:1020E000B946B046F8BDA81A8046002845DD002A4A
:1020F00070D0FF2D00D19EE08023DB041E434346B9
:102100001B2B00DCD2E00120604443017AD501356D
:10211000FF2D6BD001239D4A034040081040184317
:10212000C8E7002E20D08C4223D02800FF3800289A
:1021300039D0571B002D00D09DE06346002B00D105
:10214000DBE07B1E012F00D10DE1FF2F71D01F00BE
:1021500098E0002E00D1A7E0421E012800D1E6E061
:10216000FF2868D010008FE701204140A14200D035
:102170007FE7FF2040428046A8444046002838D0F0
:10218000511B002D00D1AEE0FF2A00D1DFE08023FB
:102190006046DB04184384461B2900DCD9E001209B
:1021A00015008019B1E7FE206A1C104271D1002D84
:1021B00000D0A6E06346002B00D1D9E00022002E1B
:1021C00000D188E7981B430100D4E1E063460C008E
:1021D000F01A6FE7002E00D1B7E00200013A0128A3
:1021E00000D19CE0FF2826D0904688E7FF220027F8
:1021F00071E7FE206A1C104264D0FF2AF6D0150059
:1022000066447008430700D056E7C308FF2D12D07C
:102210005B025F0AEAB25EE76246002A00D196E0FE
:10222000002E08D08022D203134204D04846104228
:1022300001D10C004B46002BD8D08027FF031F4351
:102240007F02FF227F0A46E720233A00451B380021
:102250000135EA405D1BA840431E9841002510430C
:1022600028E720231B1A32009E40C2403000431E44
:10227000984110430CE7FF2ADBD080236046DB0443
:10228000184384461B2F56DD01200C001500301A20
:1022900000E763469F1B7B013DD4002F00D0FEE684
:1022A00000240022002716E70500AFE7320043466E
:1022B0004146DA4020235B1A9E403000431E98417D
:1022C000104321E7002DA7D16346002B59D00022EF
:1022D000002E00D1FFE630006044430192D52A4B26
:1022E000013518408EE76346002B47D04B1E01296D
:1022F00015D0FF292BD019004EE70C004B463D00AE
:1023000084E76246002A8BD1002E92D180270024D8
:10231000FF22FF03DFE663460C00F71ABFE630003A
:1023200060440125430100D46CE70225F2E66346D0
:102330000125981BAEE6202364466046FC40DF1B67
:10234000B840431E984120439FE705005EE74B4697
:1023500071E7202365466046CD40591A8840431EE8
:10236000984128431CE763460C000125F01A91E6CA
:10237000002E95D00C004F460022ACE64B460D00D7
:1023800044E74F460022A6E6FFFFFFFBFFFFFF7D6D
:10239000002800D036E7002400279CE641024200D6
:1023A000C30F490A0020120E7E2A03DD9D2A02DD9A
:1023B000094A98187047802000040143952A07DCD9
:1023C0009620821AD1404842002BF3D10800F1E751
:1023D000963A9140F7E7C046FFFFFF7FF8B5002827
:1023E00013D0C317C6185E40C40F300000F044F885
:1023F0009E2305001B1A962B0FDC082801DD083DE3
:10240000AE407602760AD8B202E000240020002610
:10241000C0053043E4072043F8BD992B0CDD0522AD
:102420003100121AD1400A00010030001B318840EF
:10243000411E884102431600052D12DC31000D4F6C
:102440003940720709D00F203040042805D00431EC
:102450004A0102D59F2339405B1B89014E0AD8B23D
:10246000D6E76A1F96403100024F39407207F4D018
:10247000E9E7C046FFFFFFFB1C2101231B04984234
:1024800001D3000C10391B0A984201D3000A083905
:102490001B09984201D30009043902A2105C4018BC
:1024A0007047C04604030202010101010000000060
:1024B00000000000546F4620696E6974204F4B0D78
:1024C0000A000000546F4620696E69742046414935
:1024D0004C45440D0A0000004C3D00002020523DB8
:1024E00000000000202049583D0000000A0D20781F
:1024F0003A200000202020793A2000002020206D82
:10250000733A00002020206175746F6D6F64653A26
:1025100000000000526F626F7420737461727469FE
:102520006E672075702E2E2E0D0A00002D2D2D2089
:10253000524157204144432044554D5020286E6F4E
:102540002066696C746572696E6729202D2D2D0DCA
:102550000A0000002D2D2D20454E442044554D509D
:102560002C207374617274696E67207761726D7567
:1025700070202D2D2D0D0A005761726D757020642D
:102580006F6E652E20456E746572696E67206D6191
:10259000696E206C6F6F702E0D0A0000000102033F
:1025A000030303030102010200000303020002010E
:0425B0000201000321
:0425B4000100000022
:04000005080000B936
:00000001FF
