:020000040800F2
:1000000000200020B9000008F9010008FD010008E7
:1000100000000000000000000000000000000000E0
:10002000000000000000000000000000F9010008CE
:100030000000000000000000F9010008F9010008BC
:10004000F9010008F9010008F9010008F9010008A8
:10005000F9010008F9010008F9010008F901000898
:1000600000000000F9010008F9010008F90100088A
:10007000F9010008F901000800000000F90100087A
:1000800000000000F901000800000000000000006E
:10009000F901000800000000F9010008F90100085A
:1000A000F9010008F9010008F9010008F901000848
:1000B000F9010008F901000800F0A2F8184A194BEC
:1000C0009A422AD2013B991A002389080131164825
:1000D0008900C458D45004338B42FAD1D318134A40
:1000E000934209D20321013AD21A8A43191D5218A8
:1000F000002102C39342FCD10D4D0E4EB54209D2F0
:100100000024013E761BB60808CD98472300013431
:10011000B342F9D100F010F8FEE71300DFE7C04664
:100120000000002000000020BC02000800000020A9
:10013000BC020008BC02000801212B4830B5C36A8C
:10014000FF240B43C362A023AA25DB051A68A24340
:100150001A601A682A431A605A689B3DAA435A607B
:100160009A68593522439A60DA68A243DA601A6ABB
:10017000120C12041A621C6A1C4A22431A62836B14
:100180001F220B4383638023DB059A62184ADA62DD
:1001900000229A61DA61986928439861D0209C69AD
:1001A000C00104439C61DC692C43DC61DC692043B1
:1001B000D8611C6A0F4820438024186218682043C5
:1001C00018605A639A63DA631A645A690A435A6177
:1001D0001A68114319609621002289005A639963B5
:1001E000DA631A64FAE7C0460010024022220000D7
:1001F000E703000011110000FEE7C046FEE7C0461D
:100200000121294A13680B43136003311368194213
:10021000FCD001230C21D360234AD3680B40042B6C
:10022000FBD10220214B196801431960196801387C
:10023000014319608023916B5B050B43936380231B
:1002400010211B4A1B01136053681942FCD1164B45
:100250001849DA680A40DA608822D968D2030A436A
:10026000DA60DA681449DA60DA68DA60DA68DA6083
:100270001A680A401A608022196852040A438021D1
:100280001A6089041A680A42FCD00320D9688143A5
:10029000D960DA6804490243DA600C22CB68134063
:1002A0000C2BFBD17047C0460010024000200240DA
:0C02B00000700040FFFF02FFFFFFFFFE98
:04000005080000B936
:00000001FF
