:1000000002000E0000000000000000020163758184
:1000100044120099E582600302007A780079007A40
:10002000007B007C007D00EC4D601C88828983E4AD
:1000300093A3A882A9838A828B83F0A3AA82AB832D
:100040001CBCFFE31D80E07582007583007C007D91
:1000500000EC4D600AE4F0A31CBCFFF51D80F275B6
:1000600082007583007C007D00EC4D600AE4F0A303
:100070001CBCFFF51D80F212008D1201D480FE1B06
:100080005B324A000D252E3266206D7300E4F50ABE
:10009000F50B750C0AE4F50D2275A7007597DE7552
:1000A00097AD43FF8075EF0275A71075C12075A746
:1000B0000075A90075A900E5A930E7FB75A90375CE
:1000C000A903E5A930E7FB43A41043A58075E1012E
:1000D00075E20075E340759810858E8E758DE68506
:1000E0008D8B53890F438920D28ED299758200223D
:1000F000AA82438E407592B87593FF85929485933A
:10010000957591047B00C3EB9A500BE59130E7FBAA
:1001100053917F0B80F075910022AA82AB83BA00C5
:1001200004BB0001227582F9C002C0031200F07501
:1001300082F91200F07582F91200F07582FA12004D
:10014000F0D003D0021ABAFF011B80D275A700437A
:100150008E045389F0438901758CFC758A4DD2A9B0
:10016000D28C22C020C0E0C0F0C082C083C002C0D8
:1001700003C004C005C006C007C000C001C0D075E0
:10018000D000758CFC758A4D850C0F850D10900084
:100190000A120293AA82AB83C3EA950AEB648085B4
:1001A0000BF063F08095F0400CB297050AE4B50AB5
:1001B00006050B8002C297D0D0D001D000D007D066
:1001C00006D005D004D003D002D083D082D0F0D0A6
:1001D000E0D0203212014CD2AF9001F412011A7417
:1001E0007FC0E07400C0E07480C0E012031E15817F
:1001F0001581158120B10E30B1FD750C67E4F50D48
:10020000E4F50AF50B2096EC7A007B007C007D007B
:1002100020963CE4C0E0C0E07480C0E0743FC0E0E1
:100220008A828B838CF0ED1202B0AA82AB83ACF091
:10023000FDE58124FCF58175820AC002C003C0047B
:10024000C0051200F0D005D004D003D00280C1E474
:10025000C0E0C0E074C8C0E07442C0E08A828B8312
:100260008CF0ED12033FAA82AB83ACF0FDE5812454
:10027000FCF581C002C003C004C0057484C0E074F2
:1002800000C0E07480C0E012031EE58124F9F5810E
:100290000201F4E582850FF0A4C582C0F08510F05C
:1002A000A4D0F025F0C583850FF0A42583F5832223
:1002B0001204FA7900E583B58202800D500312041E
:1002C0005EE583C39582120528E5D0C465D020E1A0
:1002D00017EA2DFAEB3EFBEC3FFC500974011205C6
:1002E00028EC4480FC020478C3EA9DFAEB9EFBEC08
:1002F0009FFC500FC3E499F9E49AFAE49BFBE49C59
:10030000FCB2D11204C7020478020EF7858231854F
:10031000833285F033850E3490030902094AC00800
:10032000858108E50824FBF534E50824FBF88631CF
:1003300008863208863390030912094AD00822122F
:1003400004FA30D502B2D1BF0009BC00030204BCDC
:100350000204AFBC0003020499E583B4FF0BE582FD
:10036000B4FF030204BC020499E582B4FF03020453
:10037000AFC395835007247F400B02049924801457
:1003800050030204AFC0E0E4CCCBCAF98D0F8E104D
:100390008F11EF54F0C4F5127583068512F0EB84CB
:1003A000F582E9C4F9EAC4FAEBC4FBEC540FC47853
:1003B00003D6FC18EBD6FB18EAD6FA8582F0EDA43A
:1003C000A8F0FD8582F0EEA428FEE435F0F88582E1
:1003D000F0EFA428FFE435F0F8E99DF9EA9EFAEB86
:1003E0009FFBEC98FCAD0FAE10AF1130E7101582FB
:1003F000E92DF9EA3EFAEB3FFBE43CFC80EDC082DC
:10040000D58398C3E933F9EA33FAEB33FBEC33FCD9
:10041000C3E99DEA9EEB9FEC9400B3E413F9D0028C
:10042000D0E0C44AFAD003D0E0C44BFBD004D0E003
:10043000F5F0540FC44CFCD082158230F40FD3EC8D
:1004400013FCEB13FBEA13FAE913F90582E930E731
:100450000A74012AFAE43BFBE43CFC020490E582C6
:10046000C583F582A2D133A2D592D11392D5ECCF18
:10047000FCEBCEFBEACDFA22B98003EA13B34010BD
:10048000EA2401FAE43BFBE43CFC50047C80058256
:10049000BC000EBB000BBA0008E4F5F0F583F58252
:1004A00022A2D1E582138CF092F78B838A8222E418
:1004B000F583F58275F080F4A2D11322E4F583F57B
:1004C0008275F0C0747F227804EC7011E58224F804
:1004D000500AF582E4C9CACBFCD8EF22EC7820059B
:1004E0008220E713D5820122C3E933F9EA33FAEB1C
:1004F00033FBEC33FCD8EA158222AA82AB83A2F745
:100500003392D16002D2F7F582ACF0E58124F9F89C
:10051000E6FD08E6FE0886F008E6A2F73392D5600D
:1005200002D2F7F583AFF0226040F82582500274C2
:10053000FFF582E824F8501ECCCBCAF9E4CC24F8AD
:100540005014CBCAF9E4CB24F8500BCAF9E4CA24FE
:10055000F8500379002224086010F8C3EC13FCEB78
:1005600013FBEA13FAE913F9D8F122AA82747CC0CA
:10057000E07405C0E0C023C0248A8222052AE4B5C5
:100580002A02052B22AA8274302AFA24C6500A7441
:10059000072AFA3008034302208A8202056BE582AB
:1005A000FAC4540FF582C002120585D002740F5AA6
:1005B000F582020585AA25AB26AC27AD28AE2975A4
:1005C0003020EE2EFEED235401FF4206EA2AFAEB1C
:1005D00033FBEC33FCED33FDC3EE952C4008EEC34A
:1005E000952CFE430201D530D98A258B268C278D88
:1005F000288E29227841E624D075F00AA4FA7842A0
:10060000E624D02AFA78408603BB2D04C3E49AFA84
:10061000752C01C3E464808AF063F08095F0502962
:100620007530038A0374F62530401C052CE5301420
:100630002435F8E5302435F98704A604772E1BEB22
:10064000FA6004053080DE8B02EA30E70D783686EA
:10065000037837A6037836762E0AE52E600AE52E53
:1006600004FB252CF52C8005301302052C783586EB
:1006700003E4BB2D0104FB7006200E03300F0205BE
:100680002C300C0302073B300D57EB600C75822DAC
:10069000C00212056BD002801C300E0C75822BC07C
:1006A0000212056BD002800D300F0A758220C00245
:1006B00012056BD00278368604BC2E0C758230C0D1
:1006C0000212056BD002152DAC2D152DC3E52C9C07
:1006D000400302077F758230C00212056BD0028092
:1006E000E7AC2D152DC3E52C9C500C758220C00263
:1006F00012056BD00280EA78358604BC2D0C758219
:100700002DC00212056BD002801C300E0C75822B9E
:10071000C00212056BD002800D300F0A758220C016
:100720000212056BD00278368604BC2E52758230D8
:10073000C00212056BD002152D8044EB600E75824D
:100740002DC00212056BD002152D8020300E0E75C3
:10075000822BC00212056BD002152D800F300F0CBA
:10076000758220C00212056BD002152D78368603E3
:10077000BB2E0C758230C00212056BD002152D7590
:100780003001C215E5302435F88603BB4503020865
:100790003CBB2E348A03C3E464808BF063F0809505
:1007A000F0500F758230C00312056BD0031B8B0213
:1007B00080E48B02D215E52E703820130302083C2A
:1007C00075822E12056B80743015278A03EB30E793
:1007D0001FC3E46480852EF063F08095F0500C75A3
:1007E0008230C00312056BD003152E0B8B0280DD07
:1007F0008B0230150EC3E46480852EF063F0809583
:10080000F05021E5302435F886038B82C0021205B2
:100810006BD00230150EE5302435F88603BB2E026E
:100820008002152E152DC3E46480852EF063F080C0
:1008300095F040032015050530020784C3E4648069
:10084000852EF063F08095F0500A75823012056BAA
:10085000152E80E8300C0FAA2D152DEA6008758240
:100860002012056B80F122E52E700330130D740702
:10087000252EFAE52DC39AF52D8006E52D24FAF5EF
:100880002D75300078358602BA2B0F200E0C783586
:100890007620200F05753001052D200C19AA2DC3D7
:1008A000E464808AF063F08095F0500A758220122B
:1008B000056B152D80E7C215E5302435F88602BAA0
:1008C00000028069BA451F3008027665C3E464807F
:1008D000852EF063F08095F0500A75823012056B1A
:1008E000152E80E8D215C3E5309402E433FA701473
:1008F000EA700EC3E46480852EF063F08095F040CA
:1009000003301516E5302435F886028A8212056B0D
:10091000E53024FD5012152E800E7402B5300930DA
:10092000130675822E12056B05300208B8300C19BB
:10093000AA2DC3E464808AF063F08095F0500A75B4
:10094000822012056B152D80E72285822385832462
:10095000E4F52AF52BAA31AB32AC338A828B838C37
:10096000F0120F0CFD74012AF531E43BF5328C33A3
:10097000EDFA7003020EF0BA25028003020EE8C2FF
:100980000CC20DC20EC20FC210C211C212C213C2DB
:1009900009C20AC20B752C00752D00752EFFAB31F4
:1009A000AC32AD338B828C838DF0120F0CFAA3AB7B
:1009B00082AC838B318C328D33BA25078A82120543
:1009C0006B80928A06BE3000402E8A06EE24C64016
:1009D0002774FFB52E13E52D75F00AA4FEEA24D086
:1009E0002EF52D70BFD20D80BBE52E75F00AA4FE4A
:1009F000EA24D02EF52E80ACBA2E0A74FFB52EA4B0
:100A0000752E00809F8A06BE6100400E8A06EE2485
:100A10008540075302DFD2088002C208BA20028054
:100A200075BA2303020AA5BA2A03020AAABA2B023C
:100A3000805FBA2D028055BA4202805FBA4303023A
:100A40000AEFBA4403020C2ABA4503020C44BA4620
:100A500003020C40BA4703020C48BA4903020C2AAD
:100A6000BA4C02803BBA4E03020C4CBA4F03020C44
:100A700031BA5003020BC3BA5303020B13BA550326
:100A8000020C36BA5803020C3B020C76D20C020957
:100A9000A4D20E0209A4D20F0209A4D2110209A401
:100AA000D2120209A4D2130209A474FFB52E203079
:100AB000110BE53414F88834862D0209A4E534249A
:100AC000FEF888348606088607188E2D0209A430A1
:100AD000110BE53414F88834862E0209A4E5342479
:100AE000FEF888348606088607188E2E0209A43080
:100AF000110AE53414F888348602800FE53424FEA8
:100B0000F888348603088604188B028A8212056BE3
:100B1000020C7BE53424FDF888348603088604083B
:100B2000860518188B258C268D278B828C838DF05B
:100B3000121060AB82AC838B2F74FFB52E03852F10
:100B40002E200C1DC3E52F952D5016E52DC3952F96
:100B5000F52DAB2D152DEB600875822012056B80ED
:100B6000F18525828526838527F0120F0CFBFA601C
:100B700029AB2E152EC3E464808BF063F08095F0D2
:100B800050188A8212056BAB25AC26AD270BBB0033
:100B9000010C8B258C268D2780C7200C03020C7B33
:100BA000C3E52F952D4003020C7BE52DC3952FF552
:100BB0002DAB2D152DEB7003020C7B7582201205D9
:100BC0006B80EEE53424FDF888348603088604083B
:100BD000860518188B258C268D27E527FB30E70422
:100BE0007A438013EB546060047A50800AEB30E65D
:100BF000047A4980027A588A82C00212056B758293
:100C00003A12056B75823012056B75827812056B8E
:100C1000D002BA4902800BBA5002800685268212A1
:100C2000059E85258212059E8051D210752C0A8062
:100C30004A752C088045752C0A8040752C10803B25
:100C4000D2098037D20A8033D20B802FE53424FDBD
:100C5000F88834860308860408860518188B258CC6
:100C6000268D278B828C838DF0E52A121047A3E511
:100C70002B12104780058A8212056B200906200A74
:100C800003300B70E53424FCF888348603088604AE
:100C90000886050886061818188B258C268D278E41
:100CA00028E525E526E527E5288B828C838DF0EE67
:100CB000120F2874FFB52E03752E06300B27747F94
:100CC0005528FB8B29E529EB2BFB8B29E52730E702
:100CD0000674014529F529E52924684006749925FB
:100CE000294002D20A300A06120867020955120585
:100CF000F4020955E52C70030209557B3A30112B9B
:100D0000E53414F88834E6FC3395E0FDFEFF8C25CD
:100D10008D268E278F2820105EAC257D007E007FDB
:100D2000008C258D268E278F28804C30121FE534AD
:100D300024FCF88834860408860508860608860799
:100D40001818188C258D268E278F28802AE53424A4
:100D5000FEF88834860408860518ED3395E0FEFF1A
:100D60008C258D268E278F2820100CAC25AD267E55
:100D7000007F008E278F28301343E5254526452721
:100D8000452860397408B52C0C758230C0031205F3
:100D90006BD00380287410B52C23758230C00312E9
:100DA000056BD00330080C758278C00312056BD038
:100DB00003800A758258C00312056BD003301025DA
:100DC000AC25AD26AE27E528FF30E717C3E49CFC31
:100DD000E49DFDE49EFEE49FFF8C258D268E278FEB
:100DE000288002C210752F00D2148B00752900C014
:100DF000001205B5D00020140DE529C4FCE6FD4C19
:100E0000F61888038002A629052FB214E525452689
:100E10004527452870D68803E52D7003752D0120E0
:100E20000D1A200C17E52F04FCC3952D500E75826A
:100E300020C00312056BD003152D80E930100E750C
:100E4000822DC00312056BD003152D8024E52F6081
:100E500020300E0E75822BC00312056BD003152DAA
:100E6000800F300F0C758220C00312056BD0031564
:100E70002D200C1EAC2D152DC3E52F9C5027300DB9
:100E8000047C3080027C208C82C00312056BD0036E
:100E900080E2C3E52F952D5009E52DC3952FF52D43
:100EA0008003752D008B00AB2F152FEB6022B21441
:100EB00020140A08E6C4540FFB8B298007860374AC
:100EC0000F5BF529852982C000120585D00080D7E7
:100ED000200C03020955AB2D152DEB7003020955AB
:100EE00075822012056B80EE8A8212056B0209550D
:100EF000852A82852B8322AA82BA0A081099028049
:100F0000FB75990D10990280FB8A992220F7143005
:100F1000F6148883A88220F507E6A883758300224B
:100F2000E280F7E49322E022C0E0F8458245834561
:100F3000F07009F5F0FBFCFDFE020FF6E823A2F7C6
:100F400092E0F8A982AA83D2F7ABF07C007E07C3B7
:100F5000749798404074FF2EFE740A89F0A4F985B6
:100F6000F082740A8AF0A4FA85F083740A8BF0A4E4
:100F7000FB740529F9EA3582FAEB3583FB740035F9
:100F8000F0FCC3EC13FCEB13FBEA13FAE913F908CA
:100F9000EC70EF80BAE8C3947FF88B838EF0E4FBAB
:100FA000FCFDFEFF08C3E933F9EA33FAE58333F5C4
:100FB00083EB3BD4FBEC3CD4FCED3DD4FDEE3ED4C6
:100FC000FEEF3FD4FF602D05F074052BD4FBE43C0D
:100FD000D4FCE43DD4FDE43ED4FEE43FD4FF75826E
:100FE00004C3EF13FFEE13FEED13FDEC13FCEB1344
:100FF000FBD582EDD8AF7835D0E020E704762B80A2
:1010000002762D087906E7C4540F4430F608B90675
:1010100003762E08E7540F4430F60819B902E77634
:101020004508E5F020E704762B8004762DF40408CB
:1010300075F00A844430F608E5F04430F608E4F62A
:1010400090003575F0402220F71030F6118883A803
:101050008220F507F6A88375830022F280F7F0223C
:10106000AA82AB83ACF07D007E008A828B838CF0F9
:10107000120F0CFFA3AA82AB83EF60070DBD00EA3D
:101080000E80E78D828E83220000000000000000A9
:00000001FF
